{
  "contractName": "KlerosConnector",
  "abi": [
    {
      "anonymous": false,
      "inputs": [
        {
          "indexed": true,
          "internalType": "uint256",
          "name": "_claimID",
          "type": "uint256"
        },
        {
          "indexed": true,
          "internalType": "address",
          "name": "_challenger",
          "type": "address"
        },
        {
          "indexed": true,
          "internalType": "uint256",
          "name": "_localDisputeID",
          "type": "uint256"
        },
        {
          "indexed": false,
          "internalType": "bool",
          "name": "_readjusted",
          "type": "bool"
        }
      ],
      "name": "ClaimChallenged",
      "type": "event"
    },
    {
      "anonymous": false,
      "inputs": [
        {
          "indexed": true,
          "internalType": "uint256",
          "name": "_claimID",
          "type": "uint256"
        }
      ],
      "name": "ClaimReadjusted",
      "type": "event"
    },
    {
      "anonymous": false,
      "inputs": [
        {
          "indexed": true,
          "internalType": "uint256",
          "name": "_claimID",
          "type": "uint256"
        }
      ],
      "name": "ClaimResolved",
      "type": "event"
    },
    {
      "anonymous": false,
      "inputs": [
        {
          "indexed": true,
          "internalType": "uint256",
          "name": "localDisputeID",
          "type": "uint256"
        },
        {
          "indexed": true,
          "internalType": "uint256",
          "name": "round",
          "type": "uint256"
        },
        {
          "indexed": false,
          "internalType": "uint256",
          "name": "ruling",
          "type": "uint256"
        },
        {
          "indexed": true,
          "internalType": "address",
          "name": "contributor",
          "type": "address"
        },
        {
          "indexed": false,
          "internalType": "uint256",
          "name": "amount",
          "type": "uint256"
        }
      ],
      "name": "Contribution",
      "type": "event"
    },
    {
      "anonymous": false,
      "inputs": [
        {
          "indexed": true,
          "internalType": "contract IArbitrator",
          "name": "_arbitrator",
          "type": "address"
        },
        {
          "indexed": true,
          "internalType": "uint256",
          "name": "_disputeID",
          "type": "uint256"
        },
        {
          "indexed": false,
          "internalType": "uint256",
          "name": "_metaEvidenceID",
          "type": "uint256"
        },
        {
          "indexed": false,
          "internalType": "uint256",
          "name": "_evidenceGroupID",
          "type": "uint256"
        }
      ],
      "name": "Dispute",
      "type": "event"
    },
    {
      "anonymous": false,
      "inputs": [
        {
          "indexed": true,
          "internalType": "contract IArbitrator",
          "name": "_arbitrator",
          "type": "address"
        },
        {
          "indexed": true,
          "internalType": "uint256",
          "name": "_evidenceGroupID",
          "type": "uint256"
        },
        {
          "indexed": true,
          "internalType": "address",
          "name": "_party",
          "type": "address"
        },
        {
          "indexed": false,
          "internalType": "string",
          "name": "_evidence",
          "type": "string"
        }
      ],
      "name": "Evidence",
      "type": "event"
    },
    {
      "anonymous": false,
      "inputs": [
        {
          "indexed": true,
          "internalType": "uint256",
          "name": "_claimID",
          "type": "uint256"
        },
        {
          "indexed": true,
          "internalType": "uint256",
          "name": "_newGroup",
          "type": "uint256"
        }
      ],
      "name": "GroupClaimChanged",
      "type": "event"
    },
    {
      "anonymous": false,
      "inputs": [
        {
          "indexed": true,
          "internalType": "uint256",
          "name": "_metaEvidenceID",
          "type": "uint256"
        },
        {
          "indexed": false,
          "internalType": "string",
          "name": "_evidence",
          "type": "string"
        }
      ],
      "name": "MetaEvidence",
      "type": "event"
    },
    {
      "anonymous": false,
      "inputs": [
        {
          "indexed": true,
          "internalType": "uint256",
          "name": "_claimID",
          "type": "uint256"
        },
        {
          "indexed": true,
          "internalType": "address",
          "name": "_claimant",
          "type": "address"
        }
      ],
      "name": "NewClaim",
      "type": "event"
    },
    {
      "anonymous": false,
      "inputs": [
        {
          "indexed": true,
          "internalType": "address",
          "name": "_marketAddress",
          "type": "address"
        },
        {
          "indexed": true,
          "internalType": "uint256",
          "name": "_groupClaimId",
          "type": "uint256"
        },
        {
          "indexed": true,
          "internalType": "uint256",
          "name": "_userClaimId",
          "type": "uint256"
        },
        {
          "indexed": false,
          "internalType": "uint256",
          "name": "_claimID",
          "type": "uint256"
        }
      ],
      "name": "NewClaimID",
      "type": "event"
    },
    {
      "anonymous": false,
      "inputs": [
        {
          "indexed": true,
          "internalType": "contract IArbitrator",
          "name": "_arbitrator",
          "type": "address"
        },
        {
          "indexed": true,
          "internalType": "uint256",
          "name": "_disputeID",
          "type": "uint256"
        },
        {
          "indexed": false,
          "internalType": "uint256",
          "name": "_ruling",
          "type": "uint256"
        }
      ],
      "name": "Ruling",
      "type": "event"
    },
    {
      "anonymous": false,
      "inputs": [
        {
          "indexed": true,
          "internalType": "uint256",
          "name": "localDisputeID",
          "type": "uint256"
        },
        {
          "indexed": true,
          "internalType": "uint256",
          "name": "round",
          "type": "uint256"
        },
        {
          "indexed": true,
          "internalType": "uint256",
          "name": "ruling",
          "type": "uint256"
        }
      ],
      "name": "RulingFunded",
      "type": "event"
    },
    {
      "anonymous": false,
      "inputs": [
        {
          "indexed": true,
          "internalType": "uint256",
          "name": "localDisputeID",
          "type": "uint256"
        },
        {
          "indexed": true,
          "internalType": "uint256",
          "name": "round",
          "type": "uint256"
        },
        {
          "indexed": false,
          "internalType": "uint256",
          "name": "ruling",
          "type": "uint256"
        },
        {
          "indexed": true,
          "internalType": "address",
          "name": "contributor",
          "type": "address"
        },
        {
          "indexed": false,
          "internalType": "uint256",
          "name": "reward",
          "type": "uint256"
        }
      ],
      "name": "Withdrawal",
      "type": "event"
    },
    {
      "inputs": [],
      "name": "VERSION",
      "outputs": [
        {
          "internalType": "string",
          "name": "",
          "type": "string"
        }
      ],
      "stateMutability": "view",
      "type": "function"
    },
    {
      "inputs": [],
      "name": "arbitrator",
      "outputs": [
        {
          "internalType": "contract IArbitrator",
          "name": "",
          "type": "address"
        }
      ],
      "stateMutability": "view",
      "type": "function"
    },
    {
      "inputs": [],
      "name": "arbitratorExtraData",
      "outputs": [
        {
          "internalType": "bytes",
          "name": "",
          "type": "bytes"
        }
      ],
      "stateMutability": "view",
      "type": "function"
    },
    {
      "inputs": [],
      "name": "challengeTimeout",
      "outputs": [
        {
          "internalType": "uint256",
          "name": "",
          "type": "uint256"
        }
      ],
      "stateMutability": "view",
      "type": "function"
    },
    {
      "inputs": [
        {
          "internalType": "bytes32",
          "name": "",
          "type": "bytes32"
        }
      ],
      "name": "claimCreated",
      "outputs": [
        {
          "internalType": "bool",
          "name": "",
          "type": "bool"
        }
      ],
      "stateMutability": "view",
      "type": "function"
    },
    {
      "inputs": [],
      "name": "claimantMultiplier",
      "outputs": [
        {
          "internalType": "uint256",
          "name": "",
          "type": "uint256"
        }
      ],
      "stateMutability": "view",
      "type": "function"
    },
    {
      "inputs": [],
      "name": "claims",
      "outputs": [
        {
          "internalType": "contract IClaims",
          "name": "",
          "type": "address"
        }
      ],
      "stateMutability": "view",
      "type": "function"
    },
    {
      "inputs": [
        {
          "internalType": "uint256",
          "name": "",
          "type": "uint256"
        }
      ],
      "name": "claimsData",
      "outputs": [
        {
          "internalType": "enum KlerosConnector.Status",
          "name": "status",
          "type": "uint8"
        },
        {
          "internalType": "address payable",
          "name": "claimant",
          "type": "address"
        },
        {
          "internalType": "address payable",
          "name": "challenger",
          "type": "address"
        },
        {
          "internalType": "uint64",
          "name": "lastActionTime",
          "type": "uint64"
        },
        {
          "internalType": "address",
          "name": "marketAddress",
          "type": "address"
        },
        {
          "internalType": "bool",
          "name": "groupWasChanged",
          "type": "bool"
        },
        {
          "internalType": "bool",
          "name": "amountReadjusted",
          "type": "bool"
        },
        {
          "internalType": "uint64",
          "name": "metaEvidenceID",
          "type": "uint64"
        },
        {
          "internalType": "uint256",
          "name": "amount",
          "type": "uint256"
        },
        {
          "internalType": "uint256",
          "name": "groupClaimId",
          "type": "uint256"
        },
        {
          "internalType": "uint256",
          "name": "userClaimId",
          "type": "uint256"
        },
        {
          "internalType": "uint256",
          "name": "localDisputeID",
          "type": "uint256"
        }
      ],
      "stateMutability": "view",
      "type": "function"
    },
    {
      "inputs": [
        {
          "internalType": "uint256",
          "name": "",
          "type": "uint256"
        }
      ],
      "name": "disputes",
      "outputs": [
        {
          "internalType": "uint256",
          "name": "externalDisputeID",
          "type": "uint256"
        },
        {
          "internalType": "uint256",
          "name": "claimID",
          "type": "uint256"
        },
        {
          "internalType": "enum KlerosConnector.Party",
          "name": "ruling",
          "type": "uint8"
        },
        {
          "internalType": "bool",
          "name": "resolved",
          "type": "bool"
        }
      ],
      "stateMutability": "view",
      "type": "function"
    },
    {
      "inputs": [
        {
          "internalType": "uint256",
          "name": "",
          "type": "uint256"
        }
      ],
      "name": "externalIDtoLocalID",
      "outputs": [
        {
          "internalType": "uint256",
          "name": "",
          "type": "uint256"
        }
      ],
      "stateMutability": "view",
      "type": "function"
    },
    {
      "inputs": [],
      "name": "governor",
      "outputs": [
        {
          "internalType": "address",
          "name": "",
          "type": "address"
        }
      ],
      "stateMutability": "view",
      "type": "function"
    },
    {
      "inputs": [],
      "name": "loserStakeMultiplier",
      "outputs": [
        {
          "internalType": "uint256",
          "name": "",
          "type": "uint256"
        }
      ],
      "stateMutability": "view",
      "type": "function"
    },
    {
      "inputs": [],
      "name": "metaEvidenceUpdates",
      "outputs": [
        {
          "internalType": "uint64",
          "name": "",
          "type": "uint64"
        }
      ],
      "stateMutability": "view",
      "type": "function"
    },
    {
      "inputs": [],
      "name": "minimumDeposit",
      "outputs": [
        {
          "internalType": "uint256",
          "name": "",
          "type": "uint256"
        }
      ],
      "stateMutability": "view",
      "type": "function"
    },
    {
      "inputs": [],
      "name": "nbClaims",
      "outputs": [
        {
          "internalType": "uint256",
          "name": "",
          "type": "uint256"
        }
      ],
      "stateMutability": "view",
      "type": "function"
    },
    {
      "inputs": [],
      "name": "readjustmentTimeout",
      "outputs": [
        {
          "internalType": "uint256",
          "name": "",
          "type": "uint256"
        }
      ],
      "stateMutability": "view",
      "type": "function"
    },
    {
      "inputs": [
        {
          "internalType": "address",
          "name": "",
          "type": "address"
        }
      ],
      "name": "tokenToOracle",
      "outputs": [
        {
          "internalType": "address",
          "name": "",
          "type": "address"
        }
      ],
      "stateMutability": "view",
      "type": "function"
    },
    {
      "inputs": [],
      "name": "winnerStakeMultiplier",
      "outputs": [
        {
          "internalType": "uint256",
          "name": "",
          "type": "uint256"
        }
      ],
      "stateMutability": "view",
      "type": "function"
    },
    {
      "inputs": [
        {
          "internalType": "contract IArbitrator",
          "name": "_arbitrator",
          "type": "address"
        },
        {
          "internalType": "bytes",
          "name": "_arbitratorExtraData",
          "type": "bytes"
        },
        {
          "internalType": "contract IClaims",
          "name": "_claims",
          "type": "address"
        },
        {
          "internalType": "string",
          "name": "_metaEvidence",
          "type": "string"
        },
        {
          "internalType": "uint256",
          "name": "_challengeTimeout",
          "type": "uint256"
        },
        {
          "internalType": "uint256",
          "name": "_readjustmentTimeout",
          "type": "uint256"
        },
        {
          "internalType": "uint256",
          "name": "_minimumDeposit",
          "type": "uint256"
        },
        {
          "internalType": "uint256",
          "name": "_claimantMultiplier",
          "type": "uint256"
        },
        {
          "internalType": "uint256",
          "name": "_winnerStakeMultiplier",
          "type": "uint256"
        },
        {
          "internalType": "uint256",
          "name": "_loserStakeMultiplier",
          "type": "uint256"
        }
      ],
      "name": "initialize",
      "outputs": [],
      "stateMutability": "nonpayable",
      "type": "function"
    },
    {
      "inputs": [
        {
          "internalType": "uint256",
          "name": "_challengeTimeout",
          "type": "uint256"
        }
      ],
      "name": "changeChallengeTimeout",
      "outputs": [],
      "stateMutability": "nonpayable",
      "type": "function"
    },
    {
      "inputs": [
        {
          "internalType": "uint256",
          "name": "_readjustmentTimeout",
          "type": "uint256"
        }
      ],
      "name": "changeReadjustmentTimeout",
      "outputs": [],
      "stateMutability": "nonpayable",
      "type": "function"
    },
    {
      "inputs": [
        {
          "internalType": "uint256",
          "name": "_minimumDeposit",
          "type": "uint256"
        }
      ],
      "name": "changeMinimumDeposit",
      "outputs": [],
      "stateMutability": "nonpayable",
      "type": "function"
    },
    {
      "inputs": [
        {
          "internalType": "uint256",
          "name": "_claimantMultiplier",
          "type": "uint256"
        }
      ],
      "name": "changeClaimantMultiplier",
      "outputs": [],
      "stateMutability": "nonpayable",
      "type": "function"
    },
    {
      "inputs": [
        {
          "internalType": "uint256",
          "name": "_winnerStakeMultiplier",
          "type": "uint256"
        }
      ],
      "name": "changeWinnerStakeMultiplier",
      "outputs": [],
      "stateMutability": "nonpayable",
      "type": "function"
    },
    {
      "inputs": [
        {
          "internalType": "uint256",
          "name": "_loserStakeMultiplier",
          "type": "uint256"
        }
      ],
      "name": "changeLoserStakeMultiplier",
      "outputs": [],
      "stateMutability": "nonpayable",
      "type": "function"
    },
    {
      "inputs": [
        {
          "internalType": "address",
          "name": "_governor",
          "type": "address"
        }
      ],
      "name": "changeGovernor",
      "outputs": [],
      "stateMutability": "nonpayable",
      "type": "function"
    },
    {
      "inputs": [
        {
          "internalType": "string",
          "name": "_metaEvidence",
          "type": "string"
        }
      ],
      "name": "changeMetaEvidence",
      "outputs": [],
      "stateMutability": "nonpayable",
      "type": "function"
    },
    {
      "inputs": [
        {
          "internalType": "address",
          "name": "_token",
          "type": "address"
        },
        {
          "internalType": "address",
          "name": "_oracle",
          "type": "address"
        }
      ],
      "name": "setOracle",
      "outputs": [],
      "stateMutability": "nonpayable",
      "type": "function"
    },
    {
      "inputs": [
        {
          "internalType": "contract IClaims",
          "name": "_claims",
          "type": "address"
        }
      ],
      "name": "setClaimsContract",
      "outputs": [],
      "stateMutability": "nonpayable",
      "type": "function"
    },
    {
      "inputs": [
        {
          "internalType": "address",
          "name": "_marketAddress",
          "type": "address"
        },
        {
          "internalType": "uint256",
          "name": "_amount",
          "type": "uint256"
        },
        {
          "internalType": "bool",
          "name": "_dappCover",
          "type": "bool"
        },
        {
          "internalType": "string[]",
          "name": "_evidences",
          "type": "string[]"
        },
        {
          "internalType": "uint256",
          "name": "_incidentGroupClaimId",
          "type": "uint256"
        }
      ],
      "name": "makeNewClaim",
      "outputs": [],
      "stateMutability": "payable",
      "type": "function"
    },
    {
      "inputs": [
        {
          "internalType": "address",
          "name": "_marketAddress",
          "type": "address"
        },
        {
          "internalType": "uint256",
          "name": "_groupClaimId",
          "type": "uint256"
        },
        {
          "internalType": "uint256",
          "name": "_amount",
          "type": "uint256"
        },
        {
          "internalType": "string[]",
          "name": "_evidences",
          "type": "string[]"
        }
      ],
      "name": "makeNewClaimAndJoinGroup",
      "outputs": [],
      "stateMutability": "payable",
      "type": "function"
    },
    {
      "inputs": [
        {
          "internalType": "uint256",
          "name": "_claimID",
          "type": "uint256"
        },
        {
          "internalType": "uint256",
          "name": "_groupClaimId",
          "type": "uint256"
        }
      ],
      "name": "joinGroupClaim",
      "outputs": [],
      "stateMutability": "nonpayable",
      "type": "function"
    },
    {
      "inputs": [
        {
          "internalType": "uint256",
          "name": "_claimID",
          "type": "uint256"
        },
        {
          "internalType": "string[]",
          "name": "_evidences",
          "type": "string[]"
        }
      ],
      "name": "challengeClaim",
      "outputs": [],
      "stateMutability": "payable",
      "type": "function"
    },
    {
      "inputs": [
        {
          "internalType": "uint256",
          "name": "_claimID",
          "type": "uint256"
        }
      ],
      "name": "acceptClaim",
      "outputs": [],
      "stateMutability": "nonpayable",
      "type": "function"
    },
    {
      "inputs": [
        {
          "internalType": "uint256",
          "name": "_claimID",
          "type": "uint256"
        }
      ],
      "name": "refuseClaim",
      "outputs": [],
      "stateMutability": "nonpayable",
      "type": "function"
    },
    {
      "inputs": [
        {
          "internalType": "uint256",
          "name": "_claimID",
          "type": "uint256"
        },
        {
          "internalType": "uint256",
          "name": "_newAmount",
          "type": "uint256"
        },
        {
          "internalType": "string[]",
          "name": "_evidences",
          "type": "string[]"
        }
      ],
      "name": "readjustClaim",
      "outputs": [],
      "stateMutability": "payable",
      "type": "function"
    },
    {
      "inputs": [
        {
          "internalType": "uint256",
          "name": "_localDisputeID",
          "type": "uint256"
        },
        {
          "internalType": "uint256",
          "name": "_ruling",
          "type": "uint256"
        }
      ],
      "name": "fundAppeal",
      "outputs": [
        {
          "internalType": "bool",
          "name": "fullyFunded",
          "type": "bool"
        }
      ],
      "stateMutability": "payable",
      "type": "function"
    },
    {
      "inputs": [
        {
          "internalType": "uint256",
          "name": "_localDisputeID",
          "type": "uint256"
        },
        {
          "internalType": "address payable",
          "name": "_beneficiary",
          "type": "address"
        },
        {
          "internalType": "uint256",
          "name": "_round",
          "type": "uint256"
        },
        {
          "internalType": "uint256",
          "name": "_ruling",
          "type": "uint256"
        }
      ],
      "name": "withdrawFeesAndRewards",
      "outputs": [
        {
          "internalType": "uint256",
          "name": "reward",
          "type": "uint256"
        }
      ],
      "stateMutability": "nonpayable",
      "type": "function"
    },
    {
      "inputs": [
        {
          "internalType": "uint256",
          "name": "_localDisputeID",
          "type": "uint256"
        },
        {
          "internalType": "address payable",
          "name": "_contributor",
          "type": "address"
        },
        {
          "internalType": "uint256",
          "name": "_roundNumber",
          "type": "uint256"
        },
        {
          "internalType": "uint256[]",
          "name": "",
          "type": "uint256[]"
        }
      ],
      "name": "withdrawFeesAndRewardsForMultipleRulings",
      "outputs": [],
      "stateMutability": "nonpayable",
      "type": "function"
    },
    {
      "inputs": [
        {
          "internalType": "uint256",
          "name": "_localDisputeID",
          "type": "uint256"
        },
        {
          "internalType": "address payable",
          "name": "_contributor",
          "type": "address"
        },
        {
          "internalType": "uint256[]",
          "name": "_contributedTo",
          "type": "uint256[]"
        }
      ],
      "name": "withdrawFeesAndRewardsForAllRounds",
      "outputs": [],
      "stateMutability": "nonpayable",
      "type": "function"
    },
    {
      "inputs": [
        {
          "internalType": "uint256",
          "name": "_localDisputeID",
          "type": "uint256"
        },
        {
          "internalType": "string",
          "name": "_evidenceURI",
          "type": "string"
        }
      ],
      "name": "submitEvidence",
      "outputs": [],
      "stateMutability": "nonpayable",
      "type": "function"
    },
    {
      "inputs": [
        {
          "internalType": "uint256",
          "name": "_localDisputeID",
          "type": "uint256"
        },
        {
          "internalType": "string[]",
          "name": "_evidences",
          "type": "string[]"
        }
      ],
      "name": "submitMultipleEvidence",
      "outputs": [],
      "stateMutability": "nonpayable",
      "type": "function"
    },
    {
      "inputs": [
        {
          "internalType": "uint256",
          "name": "_disputeID",
          "type": "uint256"
        },
        {
          "internalType": "uint256",
          "name": "_ruling",
          "type": "uint256"
        }
      ],
      "name": "rule",
      "outputs": [],
      "stateMutability": "nonpayable",
      "type": "function"
    },
    {
      "inputs": [],
      "name": "getMultipliers",
      "outputs": [
        {
          "internalType": "uint256",
          "name": "_winnerStakeMultiplier",
          "type": "uint256"
        },
        {
          "internalType": "uint256",
          "name": "_loserStakeMultiplier",
          "type": "uint256"
        },
        {
          "internalType": "uint256",
          "name": "_loserAppealPeriodMultiplier",
          "type": "uint256"
        },
        {
          "internalType": "uint256",
          "name": "divisor",
          "type": "uint256"
        }
      ],
      "stateMutability": "view",
      "type": "function"
    },
    {
      "inputs": [
        {
          "internalType": "uint256",
          "name": "",
          "type": "uint256"
        }
      ],
      "name": "numberOfRulingOptions",
      "outputs": [
        {
          "internalType": "uint256",
          "name": "",
          "type": "uint256"
        }
      ],
      "stateMutability": "view",
      "type": "function"
    },
    {
      "inputs": [
        {
          "internalType": "uint256",
          "name": "_localDisputeID",
          "type": "uint256"
        }
      ],
      "name": "getNumberOfRounds",
      "outputs": [
        {
          "internalType": "uint256",
          "name": "",
          "type": "uint256"
        }
      ],
      "stateMutability": "view",
      "type": "function"
    },
    {
      "inputs": [
        {
          "internalType": "uint256",
          "name": "_localDisputeID",
          "type": "uint256"
        },
        {
          "internalType": "uint256",
          "name": "_round",
          "type": "uint256"
        },
        {
          "internalType": "address",
          "name": "_contributor",
          "type": "address"
        }
      ],
      "name": "getContributions",
      "outputs": [
        {
          "internalType": "uint256[3]",
          "name": "contributions",
          "type": "uint256[3]"
        }
      ],
      "stateMutability": "view",
      "type": "function"
    },
    {
      "inputs": [
        {
          "internalType": "uint256",
          "name": "_localDisputeID",
          "type": "uint256"
        },
        {
          "internalType": "uint256",
          "name": "_round",
          "type": "uint256"
        }
      ],
      "name": "getRoundInfo",
      "outputs": [
        {
          "internalType": "bool",
          "name": "appealed",
          "type": "bool"
        },
        {
          "internalType": "uint256[3]",
          "name": "paidFees",
          "type": "uint256[3]"
        },
        {
          "internalType": "enum KlerosConnector.Party",
          "name": "sideFunded",
          "type": "uint8"
        },
        {
          "internalType": "uint256",
          "name": "feeRewards",
          "type": "uint256"
        }
      ],
      "stateMutability": "view",
      "type": "function"
    },
    {
      "inputs": [
        {
          "internalType": "address",
          "name": "_marketAddress",
          "type": "address"
        },
        {
          "internalType": "uint256",
          "name": "_amount",
          "type": "uint256"
        }
      ],
      "name": "getClaimantDeposit",
      "outputs": [
        {
          "internalType": "uint256",
          "name": "",
          "type": "uint256"
        }
      ],
      "stateMutability": "view",
      "type": "function"
    },
    {
      "inputs": [
        {
          "internalType": "uint256",
          "name": "_claimID",
          "type": "uint256"
        }
      ],
      "name": "getAppealCost",
      "outputs": [
        {
          "internalType": "uint256",
          "name": "appealCost",
          "type": "uint256"
        }
      ],
      "stateMutability": "view",
      "type": "function"
    },
    {
      "inputs": [
        {
          "internalType": "uint256",
          "name": "_claimID",
          "type": "uint256"
        }
      ],
      "name": "getChallengeCost",
      "outputs": [
        {
          "internalType": "uint256",
          "name": "challengeCost",
          "type": "uint256"
        }
      ],
      "stateMutability": "view",
      "type": "function"
    },
    {
      "inputs": [
        {
          "internalType": "address",
          "name": "_marketAddress",
          "type": "address"
        },
        {
          "internalType": "uint256",
          "name": "_amount",
          "type": "uint256"
        }
      ],
      "name": "getClaimCost",
      "outputs": [
        {
          "internalType": "uint256",
          "name": "deposit",
          "type": "uint256"
        }
      ],
      "stateMutability": "view",
      "type": "function"
    },
    {
      "inputs": [
        {
          "internalType": "uint256",
          "name": "_localDisputeID",
          "type": "uint256"
        },
        {
          "internalType": "address payable",
          "name": "_contributor",
          "type": "address"
        },
        {
          "internalType": "uint256[]",
          "name": "",
          "type": "uint256[]"
        }
      ],
      "name": "getTotalWithdrawableAmount",
      "outputs": [
        {
          "internalType": "uint256",
          "name": "sum",
          "type": "uint256"
        }
      ],
      "stateMutability": "view",
      "type": "function"
    }
  ],
  "bytecode": "0x608060405234801561001057600080fd5b50614aac806100206000396000f3fe60806040526004361061034a5760003560e01c80638a54959c116101bb578063c189f8c7116100f7578063e4c0aaf411610095578063ee8b72c71161006f578063ee8b72c714610940578063f787e7cf14610960578063fc6f8f1614610980578063ffa1ad74146109a05761034a565b8063e4c0aaf4146108eb578063e8d6b66c1461090b578063ed28b907146109205761034a565b8063c25516e9116100d1578063c25516e914610890578063cc4df1ec146108b0578063cc6f4afa146108c3578063dcc59b6f146108d65761034a565b8063c189f8c714610830578063c20ac2b914610850578063c21ae061146108705761034a565b80639820c73311610164578063adc7faba1161013e578063adc7faba146107b0578063b03038e4146107d0578063b3523154146107f0578063c009c2e4146108105761034a565b80639820c73314610738578063a0ef515b14610758578063a6a7f0eb146107905761034a565b8063907652791161019557806390765279146106d857806392239dff146106f8578063974e527a146107185761034a565b80638a54959c146106735780638a9bb02a146106885780638d8b2d7e146106b85761034a565b806347f275781161028a578063636bfbab116102335780636cdc090f1161020d5780636cdc090f146105f757806379873f8a146106195780637b9433831461063e57806385632b12146106535761034a565b8063636bfbab146105a057806368c76ffd146105b55780636cc6cde1146105e25761034a565b806351c544461161026457806351c544461461053b578063564a565d146105505780635c38eb3a146105805761034a565b806347f27578146104e857806347f321c7146104fb5780634b2f0ea01461051b5761034a565b80632762294b116102f7578063311a6c56116102d1578063311a6c561461046857806331e6d69c14610488578063362c3479146104a857806338de6fe0146104c85761034a565b80632762294b146104205780632888c73d146104355780632ce09bc7146104555761034a565b80630c7f6f12116103285780630c7f6f12146103be5780630e274e4c146103de5780631d512085146103fe5761034a565b80630bc856fd1461034f5780630c340a24146103715780630c7ac7b61461039c575b600080fd5b34801561035b57600080fd5b5061036f61036a366004613f85565b6109b5565b005b34801561037d57600080fd5b50610386610c7a565b60405161039391906141a5565b60405180910390f35b3480156103a857600080fd5b506103b1610c89565b6040516103939190614319565b3480156103ca57600080fd5b5061036f6103d9366004613c74565b610d17565b3480156103ea57600080fd5b5061036f6103f9366004613dae565b610d46565b34801561040a57600080fd5b50610413610dc2565b6040516103939190614900565b34801561042c57600080fd5b50610413610dc8565b34801561044157600080fd5b50610413610450366004613c74565b610dce565b61036f610463366004613c0d565b610ecb565b34801561047457600080fd5b5061036f610483366004613f85565b6112cc565b34801561049457600080fd5b506104136104a3366004613c74565b611484565b3480156104b457600080fd5b506104136104c3366004613ec4565b61156f565b3480156104d457600080fd5b5061036f6104e3366004613c74565b6117d8565b61036f6104f6366004613b91565b611807565b34801561050757600080fd5b50610413610516366004613b66565b611c52565b61052e610529366004613f85565b611e61565b60405161039391906142dc565b34801561054757600080fd5b50610413612315565b34801561055c57600080fd5b5061057061056b366004613c74565b61231b565b6040516103939493929190614930565b34801561058c57600080fd5b5061036f61059b366004613b2e565b612357565b3480156105ac57600080fd5b506104136123af565b3480156105c157600080fd5b506105d56105d0366004613fc9565b6123b5565b60405161039391906142ce565b3480156105ee57600080fd5b5061038661244b565b34801561060357600080fd5b5061060c61245a565b604051610393919061497a565b34801561062557600080fd5b5061062e612470565b604051610393949392919061495f565b34801561064a57600080fd5b50610413612482565b34801561065f57600080fd5b5061036f61066e366004613e07565b612488565b34801561067f57600080fd5b506104136124aa565b34801561069457600080fd5b506106a86106a3366004613f85565b6124b0565b60405161039394939291906142e7565b3480156106c457600080fd5b506104136106d3366004613c74565b612563565b3480156106e457600080fd5b5061036f6106f3366004613d57565b612569565b34801561070457600080fd5b5061036f610713366004613c74565b61260d565b34801561072457600080fd5b5061036f610733366004613c74565b61263c565b34801561074457600080fd5b50610386610753366004613af6565b61281c565b34801561076457600080fd5b50610778610773366004613c74565b612837565b6040516103939c9b9a9998979695949392919061433f565b34801561079c57600080fd5b5061036f6107ab366004613f49565b6128bb565b3480156107bc57600080fd5b5061036f6107cb366004613c74565b6128fb565b3480156107dc57600080fd5b5061036f6107eb366004613c8c565b61292a565b3480156107fc57600080fd5b5061036f61080b366004613c74565b612a63565b34801561081c57600080fd5b5061036f61082b366004613af6565b612b88565b34801561083c57600080fd5b5061036f61084b366004613c74565b612bd4565b34801561085c57600080fd5b5061036f61086b366004613c74565b612c03565b34801561087c57600080fd5b5061041361088b366004613c74565b612c32565b34801561089c57600080fd5b506104136108ab366004613dae565b612c44565b61036f6108be366004614001565b612e43565b61036f6108d1366004613f00565b6130f3565b3480156108e257600080fd5b5061038661345e565b3480156108f757600080fd5b5061036f610906366004613af6565b61346d565b34801561091757600080fd5b506104136134b9565b34801561092c57600080fd5b5061041361093b366004613b66565b6134bf565b34801561094c57600080fd5b5061052e61095b366004613c74565b6134cb565b34801561096c57600080fd5b5061036f61097b366004613f00565b6134e0565b34801561098c57600080fd5b5061041361099b366004613c74565b61354e565b3480156109ac57600080fd5b506103b1613577565b6000828152603f602090815260408083206035546002820154925191946001600160a01b03918216949190931692916109f69185918591899133910161416d565b60408051601f19818403018152919052805160209091012090506001845460ff166004811115610a2257fe5b14610a485760405162461bcd60e51b8152600401610a3f90614624565b60405180910390fd5b835461010090046001600160a01b03163314610a765760405162461bcd60e51b8152600401610a3f90614521565b60008181526042602052604090205460ff1615610aa55760405162461bcd60e51b8152600401610a3f90614455565b6002840154600160a01b900460ff1615610ad15760405162461bcd60e51b8152600401610a3f90614558565b60028401805460ff60a01b1916600160a01b179055600081815260426020526040808220805460ff191660011790556004808701546005880154925163b426a2eb60e01b81526001600160a01b0388169463b426a2eb94610b389489949391929101614276565b600060405180830381600087803b158015610b5257600080fd5b505af1158015610b66573d6000803e3d6000fd5b505050506004808501869055600385015460405163de95eac360e01b81526001600160a01b0386169263de95eac392610ba79287928b92339290910161424c565b602060405180830381600087803b158015610bc157600080fd5b505af1158015610bd5573d6000803e3d6000fd5b505050506040513d601f19601f82011682018060405250810190610bf99190613d96565b6005850155604051859087907f74f2a12a9a51764d3a57a6071d6039a2e4b0c6ab79c854cf4ae6f147b02459e790600090a3836005015485836001600160a01b03167ffcc111f85da4fd64dac39e1e37e5f32844be103b5185998b0da5dab22070c76089604051610c6a9190614900565b60405180910390a4505050505050565b6036546001600160a01b031681565b6034805460408051602060026001851615610100026000190190941693909304601f81018490048402820184019092528181529291830182828015610d0f5780601f10610ce457610100808354040283529160200191610d0f565b820191906000526020600020905b815481529060010190602001808311610cf257829003601f168201915b505050505081565b6036546001600160a01b03163314610d415760405162461bcd60e51b8152600401610a3f906144ec565b603955565b6000603e8581548110610d5557fe5b6000918252602082206003600490920201015491505b81811015610dba57610db286868387878080602002602001604051908101604052809392919081815260200183836020028082843760009201919091525061248892505050565b600101610d6b565b505050505050565b603d5481565b60375481565b6000818152603f602052604081206001815460ff166004811115610dee57fe5b14610e0b5760405162461bcd60e51b8152600401610a3f906143e7565b6038546001820154600160a01b90046001600160401b031642031115610e435760405162461bcd60e51b8152600401610a3f906148c9565b60335460405163f7434ea960e01b81526001600160a01b039091169063f7434ea990610e749060349060040161432c565b60206040518083038186803b158015610e8c57600080fd5b505afa158015610ea0573d6000803e3d6000fd5b505050506040513d601f19601f82011682018060405250810190610ec49190613d96565b9392505050565b6000610ed78685611c52565b6035546040519192506001600160a01b031690600090610f019083908a908a90339060200161416d565b60408051601f1981840301815291815281516020928301206000818152604290935291205490915060ff1615610f495760405162461bcd60e51b8152600401610a3f90614455565b82341015610f695760405162461bcd60e51b8152600401610a3f906146c9565b603754603e546000828152603f6020526040902060335460028201805467ffffffffffffffff60b01b1916600160a01b9092046001600160401b0316600160b01b029190911790558054600190829060ff191682800217905550338160000160016101000a8154816001600160a01b0302191690836001600160a01b031602179055508a8160020160006101000a8154816001600160a01b0302191690836001600160a01b03160217905550888160030181905550898160040181905550428160010160146101000a8154816001600160401b0302191690836001600160401b0316021790555060018160020160146101000a81548160ff02191690831515021790555081816006018190555060016042600086815260200190815260200160002060006101000a81548160ff0219169083151502179055506000856001600160a01b031663de95eac38d8d338e6040518563ffffffff1660e01b81526004016110d6949392919061424c565b602060405180830381600087803b1580156110f057600080fd5b505af1158015611104573d6000803e3d6000fd5b505050506040513d601f19601f820116820180604052508101906111289190613d96565b60058301819055603e805460018082019092556004027f8d800d6614d35eed73733ee453164a3b48076eb3138f466adeeb9dec7bb31f7181018790557f8d800d6614d35eed73733ee453164a3b48076eb3138f466adeeb9dec7bb31f73810180548084018255600091825260209091209394507f8d800d6614d35eed73733ee453164a3b48076eb3138f466adeeb9dec7bb31f7090910192600690910201906111d4908290348c613598565b505060405133915085907f820d5c1e68e104954ea8658765dff498fb7fa4aafeb985f7d03137146075019590600090a3808b8d6001600160a01b03167ffcc111f85da4fd64dac39e1e37e5f32844be103b5185998b0da5dab22070c7608760405161123f9190614900565b60405180910390a46033546001600160a01b031660005b898110156112b55733856001600160a01b038416600080516020614a578339815191528e8e8681811061128557fe5b905060200281019061129791906149a7565b6040516112a59291906143d3565b60405180910390a4600101611256565b505050600190920160375550505050505050505050565b60008160028111156112da57fe5b600084815260416020526040812054603e80549394509092839081106112fc57fe5b6000918252602080832060016004909302019190910154808352603f90915260409091209091506002815460ff16600481111561133557fe5b146113525760405162461bcd60e51b8152600401610a3f90614824565b60028511156113735760405162461bcd60e51b8152600401610a3f9061485b565b6033546001600160a01b0316331461139d5760405162461bcd60e51b8152600401610a3f9061465b565b6000603e84815481106113ac57fe5b600091825260208220600360049092020190810180549193509060001981019081106113d457fe5b6000918252602090912060069091020190506001600382015460ff1660028111156113fb57fe5b141561140a576001955061142a565b6002600382015460ff16600281111561141f57fe5b141561142a57600295505b87337f394027a5fa6e098a1191094d1719d6929b9abc535fcc0c8f448d6a4e7562227688600281111561145957fe5b6040516114669190614900565b60405180910390a361147a84848489613659565b5050505050505050565b6000818152603f602052604081206002815460ff1660048111156114a457fe5b146114c15760405162461bcd60e51b8152600401610a3f90614824565b6000603e8260060154815481106114d457fe5b600091825260209091206004918202015460335460405163791f8b7360e11b81529193506001600160a01b03169163f23f16e69161151791859160349101614909565b60206040518083038186803b15801561152f57600080fd5b505afa158015611543573d6000803e3d6000fd5b505050506040513d601f19601f820116820180604052508101906115679190613d96565b949350505050565b600080603e868154811061157f57fe5b600091825260208083206001600490930201918201548352603f9052604090912060028201549192509060ff61010090910416806115cc57506004815460ff1660048111156115ca57fe5b145b6115e85760405162461bcd60e51b8152600401610a3f90614892565b60008260030186815481106115f957fe5b60009182526020909120600285015460038601546006909302909101925060ff169060001901871415611654576001600160a01b03881660009081526005830160205260409020866003811061164b57fe5b01549450611733565b600081600281111561166257fe5b14156116c05760028201546001830154018061167f5760006116b8565b60048301546001600160a01b038a166000908152600585016020526040902082919089600381106116ac57fe5b015402816116b657fe5b045b955050611733565b8060028111156116cc57fe5b861415611733578186600381106116df57fe5b01546116ec576000611730565b8186600381106116f857fe5b015460048301546001600160a01b038a1660009081526005850160205260409020886003811061172457fe5b0154028161172e57fe5b045b94505b6001600160a01b03881660009081526005830160205260408120876003811061175857fe5b015584156117cc576040516001600160a01b0389169086156108fc029087906000818181858888f1935050505050876001600160a01b0316878a7f54b3cab3cb5c4aca3209db1151caff092e878011202e43a36782d4ebe0b963ae89896040516117c3929190614922565b60405180910390a45b50505050949350505050565b6036546001600160a01b031633146118025760405162461bcd60e51b8152600401610a3f906144ec565b603b55565b60006118138787611c52565b9050803410156118355760405162461bcd60e51b8152600401610a3f906146c9565b603754603e546000828152603f602052604081206033546002820180548354600160ff199091161774ffffffffffffffffffffffffffffffffffffffff001916336101000217845567ffffffffffffffff60b01b1916600160a01b9092046001600160401b0316600160b01b02919091176001600160a01b0319166001600160a01b038d811691909117909155600382018b9055603554919291169060001987141561198757816001600160a01b0316634e981a418d338e8e8e8e60008181106118fb57fe5b905060200281019061190d91906149a7565b6040518763ffffffff1660e01b815260040161192e969594939291906141b9565b602060405180830381600087803b15801561194857600080fd5b505af115801561195c573d6000803e3d6000fd5b505050506040513d601f19601f820116820180604052508101906119809190613d96565b9050611a10565b816001600160a01b0316634e7cd3408d338e8e8c6040518663ffffffff1660e01b81526004016119bb959493929190614200565b602060405180830381600087803b1580156119d557600080fd5b505af11580156119e9573d6000803e3d6000fd5b505050506040513d601f19601f82011682018060405250810190611a0d9190613d96565b90505b808360040181905550428360010160146101000a8154816001600160401b0302191690836001600160401b03160217905550838360060181905550600160426000848f8533604051602001611a68949392919061416d565b60408051808303601f19018152918152815160209283012083528282019390935291016000908120805460ff191693151593909317909255603e805460018181019092556004027f8d800d6614d35eed73733ee453164a3b48076eb3138f466adeeb9dec7bb31f7181018990557f8d800d6614d35eed73733ee453164a3b48076eb3138f466adeeb9dec7bb31f73810180548084018255908552929093207f8d800d6614d35eed73733ee453164a3b48076eb3138f466adeeb9dec7bb31f7090930192600690920290910190611b41908290348b613598565b505060405133915086907f820d5c1e68e104954ea8658765dff498fb7fa4aafeb985f7d03137146075019590600090a36000818d6001600160a01b03167ffcc111f85da4fd64dac39e1e37e5f32844be103b5185998b0da5dab22070c76088604051611bad9190614900565b60405180910390a46033546001600160a01b031660006000198914611bd3576000611bd6565b60015b60ff1690505b89811015611c3b5733866001600160a01b038416600080516020614a578339815191528e8e86818110611c0b57fe5b9050602002810190611c1d91906149a7565b604051611c2b9291906143d3565b60405180910390a4600101611bdc565b505050600190930160375550505050505050505050565b600080836001600160a01b03166365cfb89b6040518163ffffffff1660e01b815260040160206040518083038186803b158015611c8e57600080fd5b505afa158015611ca2573d6000803e3d6000fd5b505050506040513d601f19601f82011682018060405250810190611cc69190613b12565b6001600160a01b038082166000908152604060208190529020549192501680611d015760405162461bcd60e51b8152600401610a3f906147ed565b604051633ddac95360e01b81526000906001600160a01b03831690633ddac95390611d329086908990600401614233565b60206040518083038186803b158015611d4a57600080fd5b505afa158015611d5e573d6000803e3d6000fd5b505050506040513d601f19601f82011682018060405250810190611d829190613d96565b60335460405163f7434ea960e01b81529192506000916001600160a01b039091169063f7434ea990611db99060349060040161432c565b60206040518083038186803b158015611dd157600080fd5b505afa158015611de5573d6000803e3d6000fd5b505050506040513d601f19601f82011682018060405250810190611e099190613d96565b90506000611e3e612710611e28603b548661392f90919063ffffffff16565b81611e2f57fe5b8491900463ffffffff61395916565b9050603a548111611e5157603a54611e53565b805b955050505050505b92915050565b60008160011480611e725750816002145b611e8e5760405162461bcd60e51b8152600401610a3f906144c3565b6000603e8481548110611e9d57fe5b600091825260208083206001600490930201918201548352603f905260409091209091506002815460ff166004811115611ed357fe5b14611ef05760405162461bcd60e51b8152600401610a3f90614824565b603354825460405163afe15cfb60e01b81526001600160a01b03909216916000918291849163afe15cfb91611f289190600401614900565b604080518083038186803b158015611f3f57600080fd5b505afa158015611f53573d6000803e3d6000fd5b505050506040513d601f19601f82011682018060405250810190611f779190613fa6565b91509150814210158015611f8a57508042105b611fa65760405162461bcd60e51b8152600401610a3f9061441e565b8454604051631c3db16d60e01b815260009182916001600160a01b03871691631c3db16d91611fd89190600401614900565b60206040518083038186803b158015611ff057600080fd5b505afa158015612004573d6000803e3d6000fd5b505050506040513d601f19601f820116820180604052508101906120289190613d96565b905088811480612036575080155b1561204557603c54915061206e565b603d549150600284840104421061206e5760405162461bcd60e51b8152600401610a3f90614700565b5060038601805460009190600019810190811061208757fe5b60009182526020909120600690910201600381015490915060ff1660028111156120ad57fe5b8914156120cc5760405162461bcd60e51b8152600401610a3f906147b8565b865460405163791f8b7360e11b81526000916001600160a01b0388169163f23f16e6916120fe91603490600401614909565b60206040518083038186803b15801561211657600080fd5b505afa15801561212a573d6000803e3d6000fd5b505050506040513d601f19601f8201168201806040525081019061214e9190613d96565b90506000612168612710611e28848763ffffffff61392f16565b90506000612183848d600281111561217c57fe5b3485613598565b9050336001600160a01b031660018b60030180549050038e7fcae597f39a3ad75c2e10d46b031f023c5c2babcd58ca0491b122acda3968d4c08f856040516121cc929190614922565b60405180910390a481848d600381106121e157fe5b0154106123055760038a01546040518d9160001901908f907f39493c1b78d9a13bcc9e1d532fc7faed3889248d93affa811416ce3c6bcb1a6890600090a46000600385015460ff16600281111561223457fe5b1415612268578b600281111561224657fe5b60038501805460ff1916600183600281111561225e57fe5b0217905550612300565b895460405163093225f160e31b81526001600160a01b038a16916349912f8891869161229991603490600401614909565b6000604051808303818588803b1580156122b257600080fd5b505af11580156122c6573d6000803e3d6000fd5b50505060038c0180546001018155600052505060048401546122ee908463ffffffff61396e16565b600485015560038401805460ff191690555b60019a505b5050505050505050505092915050565b60385481565b603e818154811061232857fe5b600091825260209091206004909102018054600182015460029092015490925060ff8082169161010090041684565b6036546001600160a01b031633146123815760405162461bcd60e51b8152600401610a3f906144ec565b6001600160a01b03918216600090815260406020819052902080546001600160a01b03191691909216179055565b603a5481565b6123bd6139b5565b6000603e85815481106123cc57fe5b906000526020600020906004020160030184815481106123e857fe5b600091825260208083206001600160a01b03871684526005600690930201918201905260409182902082516060810190935290925060038282826020028201915b8154815260200190600101908083116124295750505050509150509392505050565b6033546001600160a01b031681565b603354600160a01b90046001600160401b031681565b603c54603d5461138861271090919293565b603c5481565b61249584848460016104c3565b506124a384848460026104c3565b5050505050565b603b5481565b60006124ba6139b5565b6000806000603e87815481106124cc57fe5b9060005260206000209060040201905060008160030187815481106124ed57fe5b6000918252602090912060038481015460069093029091018082015460048201546040805160608101918290529396506000199095018c141594869460ff909316939192859182845b81548152602001906001019080831161253657505050505092509550955095509550505092959194509250565b50600290565b6036546001600160a01b031633146125935760405162461bcd60e51b8152600401610a3f906144ec565b6033805460016001600160401b03600160a01b8084048216929092018116820267ffffffffffffffff60a01b199093169290921792839055604051920416907f61606860eb6c87306811e2695215385101daab53bd6ab4e9f9049aead9363c7d9061260190859085906143d3565b60405180910390a25050565b6036546001600160a01b031633146126375760405162461bcd60e51b8152600401610a3f906144ec565b603d55565b6000818152603f602052604090206001815460ff16600481111561265c57fe5b146126795760405162461bcd60e51b8152600401610a3f90614624565b6038546001820154600160a01b90046001600160401b03164203116126b05760405162461bcd60e51b8152600401610a3f90614783565b805460ff19166004178155600281015460ff600160a81b909104161561275257603554600282015460048084015460058501546003860154604051638264a80360e01b81526001600160a01b0396871696638264a8039661271b96911694939260019290910161429e565b600060405180830381600087803b15801561273557600080fd5b505af1158015612749573d6000803e3d6000fd5b505050506127c9565b6035546002820154600480840154600585015460405163b426a2eb60e01b81526001600160a01b039586169563b426a2eb9561279695911693929160019101614276565b600060405180830381600087803b1580156127b057600080fd5b505af11580156127c4573d6000803e3d6000fd5b505050505b60405182907f889436f9dfa330c26537ca082ec808276fab849b9c88f7454a9344360e1b1d4990600090a260068101548154612817919061010090046001600160a01b0316600060016104c3565b505050565b6040602081905260009182529020546001600160a01b031681565b603f60205260009081526040902080546001820154600283015460038401546004850154600586015460069096015460ff808716976001600160a01b03610100909804881697878116976001600160401b03600160a01b9182900481169892831697918304851696600160a81b840490951695600160b01b9093041693909290918c565b603354604051339185916001600160a01b0390911690600080516020614a57833981519152906128ee90879087906143d3565b60405180910390a4505050565b6036546001600160a01b031633146129255760405162461bcd60e51b8152600401610a3f906144ec565b603c55565b600054610100900460ff16806129435750612943613989565b80612951575060005460ff16155b61296d5760405162461bcd60e51b8152600401610a3f90614735565b600054610100900460ff16158015612998576000805460ff1961ff0019909116610100171660011790555b60007f61606860eb6c87306811e2695215385101daab53bd6ab4e9f9049aead9363c7d8a8a6040516129cb9291906143d3565b60405180910390a2603380546001600160a01b0319166001600160a01b038f161790556129fa60348d8d6139d3565b50603580546001600160a01b038c166001600160a01b031991821617909155603680549091163317905560388790556039869055603a859055603b849055603c839055603d8290558015612a54576000805461ff00191690555b50505050505050505050505050565b6000818152603f602052604090206003815460ff166004811115612a8357fe5b14612aa05760405162461bcd60e51b8152600401610a3f9061448c565b805460ff1916600417815560395460018201546001600160401b03600160a01b90910416420311612ae35760405162461bcd60e51b8152600401610a3f90614692565b6035546002820154600480840154600585015460405163b426a2eb60e01b81526001600160a01b039586169563b426a2eb95612b2795911693929160009101614276565b600060405180830381600087803b158015612b4157600080fd5b505af1158015612b55573d6000803e3d6000fd5b50506040518492507f889436f9dfa330c26537ca082ec808276fab849b9c88f7454a9344360e1b1d499150600090a25050565b6036546001600160a01b03163314612bb25760405162461bcd60e51b8152600401610a3f906144ec565b603580546001600160a01b0319166001600160a01b0392909216919091179055565b6036546001600160a01b03163314612bfe5760405162461bcd60e51b8152600401610a3f906144ec565b603a55565b6036546001600160a01b03163314612c2d5760405162461bcd60e51b8152600401610a3f906144ec565b603855565b60416020526000908152604090205481565b600080603e8681548110612c5457fe5b600091825260208083206001600490930201918201548352603f9052604090912060028201549192509060ff6101009091041680612ca157506004815460ff166004811115612c9f57fe5b145b612cbd5760405162461bcd60e51b8152600401610a3f90614892565b6002820154600383015460ff9091169060005b81811015612e36576000856003018281548110612ce957fe5b906000526020600020906006020190506001866003018054905003821415612d3b576001600160a01b038a16600090815260058201602052604090206002810154600190910154019690960195612e2d565b6000846002811115612d4957fe5b1415612daa576002808201546001808401546001600160a01b038e16600090815260058601602052604090209384015493909101549101910181612d8e576000612d9f565b818360040154820281612d9d57fe5b045b890198505050612e2d565b80846002811115612db757fe5b60038110612dc157fe5b0154612dce576000612e28565b80846002811115612ddb57fe5b60038110612de557fe5b015460048201546001600160a01b038c1660009081526005840160205260409020866002811115612e1257fe5b60038110612e1c57fe5b01540281612e2657fe5b045b870196505b50600101612cd0565b5050505050949350505050565b6000848152603f602052604090206003815460ff166004811115612e6357fe5b14612e805760405162461bcd60e51b8152600401610a3f9061458f565b805461010090046001600160a01b03163314612eae5760405162461bcd60e51b8152600401610a3f90614521565b8315801590612ec05750806003015484105b612edc5760405162461bcd60e51b8152600401610a3f906145c6565b6039546001820154600160a01b90046001600160401b031642031115612f145760405162461bcd60e51b8152600401610a3f906145ed565b6002810154600090612f2f906001600160a01b031686611c52565b905080341015612f515760405162461bcd60e51b8152600401610a3f906146c9565b815460ff1916600190811783556003830186905580830180546001600160401b034216600160a01b0267ffffffffffffffff60a01b1990911617905560028301805460ff60a81b1916600160a81b179055603e805460068086018290558184019092557f8d800d6614d35eed73733ee453164a3b48076eb3138f466adeeb9dec7bb31f71600482029081018a90557f8d800d6614d35eed73733ee453164a3b48076eb3138f466adeeb9dec7bb31f738101805480860182556000918252602090912092947f8d800d6614d35eed73733ee453164a3b48076eb3138f466adeeb9dec7bb31f7090920193029091019061304c9082903487613598565b5060405189907fb0fa7bd1027b1ed5b1c59dd1978e6d923eeac000b98c75bb3441fc6b198ece8a90600090a26033546001600160a01b031660005b878110156130e65733856001600160a01b038416600080516020614a578339815191528c8c868181106130b657fe5b90506020028101906130c891906149a7565b6040516130d69291906143d3565b60405180910390a4600101613087565b5050505050505050505050565b6000838152603f6020526040808220603354915163f7434ea960e01b815290926001600160a01b039092169190829063f7434ea9906131379060349060040161432c565b60206040518083038186803b15801561314f57600080fd5b505afa158015613163573d6000803e3d6000fd5b505050506040513d601f19601f820116820180604052508101906131879190613d96565b90506001835460ff16600481111561319b57fe5b146131b85760405162461bcd60e51b8152600401610a3f906143e7565b6038546001840154600160a01b90046001600160401b0316420311156131f05760405162461bcd60e51b8152600401610a3f906148c9565b803410156132105760405162461bcd60e51b8152600401610a3f906146c9565b825460ff19166002178355600183018054336001600160a01b03199091161790556006830154603e805460009290811061324657fe5b906000526020600020906004020190506000836001600160a01b031663c13517e184600260346040518463ffffffff1660e01b8152600401613289929190614909565b6020604051808303818588803b1580156132a257600080fd5b505af11580156132b6573d6000803e3d6000fd5b50505050506040513d601f19601f820116820180604052508101906132db9190613d96565b600686015481845560008281526041602052604081208290556003850180549394509192909190600019810190811061331057fe5b9060005260206000209060060201905061332d8160023488613598565b506004810154613343908663ffffffff61396e16565b600482015560038401805460010181556000526002870154604051839133918d917eb6517e62fa028de3dc3786c85261b00f2f103797132fac902574979bd16e6f9161339991600160a81b900460ff16906142dc565b60405180910390a482866001600160a01b03167f74baab670a4015ab2f1b467c5252a96141a2573f2908e58a92081e80d3cfde3d8960020160169054906101000a90046001600160401b0316856040516133f492919061498e565b60405180910390a360005b888110156130e65733836001600160a01b038916600080516020614a578339815191528d8d8681811061342e57fe5b905060200281019061344091906149a7565b60405161344e9291906143d3565b60405180910390a46001016133ff565b6035546001600160a01b031681565b6036546001600160a01b031633146134975760405162461bcd60e51b8152600401610a3f906144ec565b603680546001600160a01b0319166001600160a01b0392909216919091179055565b60395481565b6000610ec48383611c52565b60426020526000908152604090205460ff1681565b6033546001600160a01b031660005b828110156124a35733856001600160a01b038416600080516020614a5783398151915287878681811061351e57fe5b905060200281019061353091906149a7565b60405161353e9291906143d3565b60405180910390a46001016134ef565b6000603e828154811061355d57fe5b600091825260209091206003600490920201015492915050565b604051806040016040528060058152602001640312e302e360dc1b81525081565b6000806135cd846135c8888860028111156135af57fe5b600381106135b957fe5b0154869063ffffffff61396e16565b613990565b3360009081526005890160205260409020919350915082908660028111156135f157fe5b600381106135fb57fe5b0180549091019055818686600281111561361157fe5b6003811061361b57fe5b018054909101905560048601805483019055801561365057604051339082156108fc029083906000818181858888f150505050505b50949350505050565b808260020160006101000a81548160ff0219169083600281111561367957fe5b021790555060028201805461ff001916610100179055600683015460018260028111156136a257fe5b14156137f157835460ff19166004178455600284015460ff600160a81b909104161561374a57603554600285015460048087015460058801546003890154604051638264a80360e01b81526001600160a01b0396871696638264a8039661371396911694939260019290910161429e565b600060405180830381600087803b15801561372d57600080fd5b505af1158015613741573d6000803e3d6000fd5b505050506137c1565b6035546002850154600480870154600588015460405163b426a2eb60e01b81526001600160a01b039586169563b426a2eb9561378e95911693929160019101614276565b600060405180830381600087803b1580156137a857600080fd5b505af11580156137bc573d6000803e3d6000fd5b505050505b60405185907f889436f9dfa330c26537ca082ec808276fab849b9c88f7454a9344360e1b1d4990600090a2613888565b6002840154600160a81b900460ff161561385357835460ff191660049081178555603554600286015482870154600588015460405163b426a2eb60e01b81526001600160a01b039485169563b426a2eb9561378e951693929160009101614276565b835460ff191660031784556001840180546001600160401b034216600160a01b0267ffffffffffffffff60a01b199091161790555b600082600281111561389657fe5b14156138df5783546138bb90829061010090046001600160a01b0316600060016104c3565b5060018401546138d99082906001600160a01b0316600060026104c3565b506124a3565b60018260028111156138ed57fe5b14156139125783546138d990829061010090046001600160a01b0316600060016104c3565b6001840154610dba9082906001600160a01b0316600060026104c3565b60008261393e57506000611e5b565b8282028284828161394b57fe5b0414610ec457600019611567565b600082820183811015610ec457600019611567565b60008282111561398057506000611e5b565b50808203611e5b565b303b155b90565b600080838311156139a6575082905060006139ae565b508190508083035b9250929050565b60405180606001604052806003906020820280368337509192915050565b828054600181600116156101000203166002900490600052602060002090601f016020900481019282601f10613a145782800160ff19823516178555613a41565b82800160010185558215613a41579182015b82811115613a41578235825591602001919060010190613a26565b50613a4d929150613a51565b5090565b61398d91905b80821115613a4d5760008155600101613a57565b60008083601f840112613a7c578182fd5b5081356001600160401b03811115613a92578182fd5b60208301915083602080830285010111156139ae57600080fd5b60008083601f840112613abd578182fd5b5081356001600160401b03811115613ad3578182fd5b6020830191508360208285010111156139ae57600080fd5b8035611e5b81614a3e565b600060208284031215613b07578081fd5b8135610ec481614a3e565b600060208284031215613b23578081fd5b8151610ec481614a3e565b60008060408385031215613b40578081fd5b8235613b4b81614a3e565b91506020830135613b5b81614a3e565b809150509250929050565b60008060408385031215613b78578182fd5b8235613b8381614a3e565b946020939093013593505050565b60008060008060008060a08789031215613ba9578182fd5b8635613bb481614a3e565b95506020870135945060408701358015158114613bcf578283fd5b935060608701356001600160401b03811115613be9578283fd5b613bf589828a01613a6b565b979a9699509497949695608090950135949350505050565b600080600080600060808688031215613c24578081fd5b8535613c2f81614a3e565b9450602086013593506040860135925060608601356001600160401b03811115613c57578182fd5b613c6388828901613a6b565b969995985093965092949392505050565b600060208284031215613c85578081fd5b5035919050565b6000806000806000806000806000806000806101408d8f031215613cae578586fd5b613cb88e8e613aeb565b9b506001600160401b0360208e01351115613cd1578586fd5b613ce18e60208f01358f01613aac565b909b509950613cf38e60408f01613aeb565b98506001600160401b0360608e01351115613d0c578586fd5b613d1c8e60608f01358f01613aac565b9c9f9b9e50999c989b999a60808a01359960a0810135995060c0810135985060e0810135975061010081013596506101200135945092505050565b60008060208385031215613d69578182fd5b82356001600160401b03811115613d7e578283fd5b613d8a85828601613aac565b90969095509350505050565b600060208284031215613da7578081fd5b5051919050565b60008060008060608587031215613dc3578182fd5b843593506020850135613dd581614a3e565b925060408501356001600160401b03811115613def578283fd5b613dfb87828801613a6b565b95989497509550505050565b60008060008060808587031215613e1c578182fd5b84359350602080860135613e2f81614a3e565b93506040860135925060608601356001600160401b03811115613e50578283fd5b80870188601f820112613e61578384fd5b80359150613e76613e7183614a13565b6149ed565b82815283810190828501858502840186018c1015613e92578687fd5b8693505b84841015613eb4578035835260019390930192918501918501613e96565b50979a9699509497505050505050565b60008060008060808587031215613ed9578182fd5b843593506020850135613eeb81614a3e565b93969395505050506040820135916060013590565b600080600060408486031215613f14578081fd5b8335925060208401356001600160401b03811115613f30578182fd5b613f3c86828701613a6b565b9497909650939450505050565b600080600060408486031215613f5d578081fd5b8335925060208401356001600160401b03811115613f79578182fd5b613f3c86828701613aac565b60008060408385031215613f97578182fd5b50508035926020909101359150565b60008060408385031215613fb8578182fd5b505080516020909101519092909150565b600080600060608486031215613fdd578081fd5b83359250602084013591506040840135613ff681614a3e565b809150509250925092565b60008060008060608587031215614016578182fd5b843593506020850135925060408501356001600160401b03811115613def578283fd5b8060005b600381101561405c57815184526020938401939091019060010161403d565b50505050565b15159052565b60008151808452815b8181101561408d57602081850181015186830182015201614071565b8181111561409e5782602083870101525b50601f01601f19169290920160200192915050565b600081546001808216600081146140d157600181146140ef5761412d565b60028304607f16865260ff198316602087015260408601935061412d565b600283048087526140ff86614a32565b60005b828110156141235781546020828b0101528482019150602081019050614102565b8801602001955050505b50505092915050565b60008284528282602086013780602084860101526020601f19601f85011685010190509392505050565b6001600160401b03169052565b6bffffffffffffffffffffffff19606095861b8116825293851b84166014820152602881019290925290921b166048820152605c0190565b6001600160a01b0391909116815260200190565b60006001600160a01b038089168352808816602084015250856040830152841515606083015260a060808301526141f460a083018486614136565b98975050505050505050565b6001600160a01b039586168152939094166020840152604083019190915215156060820152608081019190915260a00190565b6001600160a01b03929092168252602082015260400190565b6001600160a01b039485168152602081019390935292166040820152606081019190915260800190565b6001600160a01b03949094168452602084019290925260408301521515606082015260800190565b6001600160a01b039590951685526020850193909352604084019190915215156060830152608082015260a00190565b60608101611e5b8284614039565b901515815260200190565b841515815260c081016142fd6020830186614039565b6003841061430757fe5b608082019390935260a0015292915050565b600060208252610ec46020830184614068565b600060208252610ec460208301846140b3565b610180810160058e1061434e57fe5b8d82526001600160a01b038d811660208401528c811660408401526001600160401b038c1660608401528a16608083015261438c60a083018a614062565b61439960c0830189614062565b6143a660e0830188614160565b856101008301528461012083015283610140830152826101608301529d9c50505050505050505050505050565b600060208252611567602083018486614136565b60208082526017908201527f537461747573206d75737420626520437265617465642e000000000000000000604082015260600190565b60208082526019908201527f41707065616c20706572696f6420686173207061737365642e00000000000000604082015260600190565b6020808252601f908201527f43616e206e6f74206d616b652061206475706c696361746520636c61696d2e00604082015260600190565b6020808252601e908201527f5374617475732073686f756c6420626520526561646a75737461626c652e0000604082015260600190565b6020808252600f908201526e24b73b30b634b210393ab634b7339760891b604082015260600190565b6020808252818101527f5468652063616c6c6572206d7573742062652074686520676f7665726e6f722e604082015260600190565b6020808252601f908201527f4f6e6c7920636c61696d616e742063616e206578656375746520746869732e00604082015260600190565b6020808252601f908201527f47726f75702068617320616c7265616479206265656e206368616e6765642e00604082015260600190565b6020808252601c908201527f537461747573206d75737420626520526561646a75737461626c652e00000000604082015260600190565b6020808252600d908201526c2bb937b7339030b6b7bab73a1760991b604082015260600190565b6020808252601c908201527f54696d6520746f20726561646a75737420686173207061737365642e00000000604082015260600190565b60208082526019908201527f5374617475732073686f756c6420626520437265617465642e00000000000000604082015260600190565b6020808252601f908201527f4f6e6c79207468652061726269747261746f722063616e206578656375746500604082015260600190565b6020808252601f908201527f54696d6520746f20726561646a75737420686173206e6f742070617373656400604082015260600190565b6020808252601c908201527f53686f756c6420706179207468652066756c6c206465706f7369742e00000000604082015260600190565b6020808252818101527f54696d6520666f72206c6f73696e672070617274792068617320706173736564604082015260600190565b6020808252602e908201527f436f6e747261637420696e7374616e63652068617320616c726561647920626560408201526d195b881a5b9a5d1a585b1a5e995960921b606082015260800190565b6020808252818101527f54696d6520746f206368616c6c656e676520686173206e6f7420706173736564604082015260600190565b6020808252818101527f41707065616c206665652068617320616c7265616479206265656e2070616964604082015260600190565b6020808252601b908201527f54686520746f6b656e206973206e6f7420737570706f727465642e0000000000604082015260600190565b60208082526018908201527f537461747573206d7573742062652044697370757465642e0000000000000000604082015260600190565b60208082526015908201527f496e76616c69642072756c696e67206f7074696f6e0000000000000000000000604082015260600190565b6020808252601e908201527f44697370757465206f7220636c61696d206e6f74207265736f6c7665642e0000604082015260600190565b6020808252601d908201527f54696d6520746f206368616c6c656e676520686173207061737365642e000000604082015260600190565b90815260200190565b60008382526040602083015261156760408301846140b3565b918252602082015260400190565b84815260208101849052608081016003841061494857fe5b836040830152821515606083015295945050505050565b93845260208401929092526040830152606082015260800190565b6001600160401b0391909116815260200190565b6001600160401b03929092168252602082015260400190565b6000808335601e198436030181126149bd578283fd5b808401803592506001600160401b038311156149d7578384fd5b602001925050368190038213156139ae57600080fd5b6040518181016001600160401b0381118282101715614a0b57600080fd5b604052919050565b60006001600160401b03821115614a28578081fd5b5060209081020190565b60009081526020902090565b6001600160a01b0381168114614a5357600080fd5b5056fedccf2f8b2cc26eafcd61905cba744cff4b81d14740725f6376390dc6298a6a3ca2646970667358221220a727d12acd536b0224647377afec59c585321384fab0f2e050c06a0086a99b6364736f6c63430006060033",
  "immutableReferences": {},
  "source": "/**\n *  Note that this review is a standalone review of this contract, not of the system which will use it, as the remaining code of the system was not available for review.\n *  @authors: [@unknownunknown1]\n *  @reviewers: [@mtsalenc*, @nix1g*, @fnanni-0*, @epiqueras*, @ferittuncer, @egalite.merlin, @clesaege*, @shalzz]\n *  @auditors: []\n *  @bounties: []\n *  @deployments: []\n *  @tools: []\n */\n\npragma solidity 0.6.6;\npragma experimental ABIEncoderV2;\n\nimport '@kleros/erc-792/contracts/IArbitrator.sol';\nimport '@kleros/ethereum-libraries/contracts/CappedMath.sol';\nimport '@openzeppelin/contracts-ethereum-package/contracts/Initializable.sol';\nimport './IClaims.sol';\nimport './IClaimableMarket.sol';\nimport './oracle/IOracle.sol';\nimport './dispute-resolver/IDisputeResolver.sol';\n\n/**\n *  @title KlerosConnector\n *  @dev This contract acts a connector between Unslashed and Kleros court.\n *  NOTE: This contract trusts that the Arbitrator is honest and will not reenter or modify its costs during a call.\n *  The arbitrator must support appeal period.\n *  The contract also trusts that Claims and Market contracts are honest and won't reenter.\n */\ncontract KlerosConnector is Initializable, IDisputeResolver {\n    using CappedMath for uint256;\n\n    /* Constants */\n\n    uint256 private constant RULING_OPTIONS = 2; // The amount of non 0 choices the arbitrator can give.\n    uint256 private constant MULTIPLIER_DIVISOR = 10000; // Divisor parameter for multipliers.\n\n    /* Enums */\n\n    enum Party {\n        None, // The default party, when there is no challenger or claimant. Also used for inconclusive ruling.\n        Claimant, // The party that makes a claim.\n        Challenger // The party that challenges a claim.\n    }\n\n    enum Status {\n        None, // The claim was not created.\n        Created, // The claim was created and added to the contract.\n        Disputed, // The claim has been challenged, and a dispute was created in the arbitrator contract.\n        Readjustable, // The claimed amount can be readjusted.\n        Resolved // The claim has been resolved.\n    }\n\n    /* Structs */\n\n    struct ClaimData {\n        Status status; // Status of the claim.\n        address payable claimant; // Address that made the claim.\n        address payable challenger; // Address that challenged the claim, if any.\n        uint64 lastActionTime; // Records the timestamps of timeout-related actions.\n        address marketAddress; // Address of the market that will pay the claimed amount.\n        bool groupWasChanged; // True if the default group of the claim was changed. Note that this flag is also active when the claim is added to the existing group right away.\n        bool amountReadjusted; // True if the amount of this claim was readjusted.\n        uint64 metaEvidenceID; // The index of the relevant metaevidence string.\n        uint256 amount; // Amount of tokens the claimant wants to get compensated for.\n        uint256 groupClaimId; // The id of the group claim in Claims contract.\n        uint256 userClaimId; // The id of the user claim in Claims contract.\n        uint256 localDisputeID; // The index of the related dispute in the array of disputes in this contract. Note that in case of challenge of the readjusted claim the old ID is overwritten.\n    }\n\n    struct DisputeData {\n        uint256 externalDisputeID; // The ID of the dispute created in arbitrator contract.\n        uint256 claimID; // The ID of the disputed claim.\n        Party ruling; // Ruling given by the arbitrator.\n        bool resolved; // True if the dispute has been resolved.\n        Round[] rounds; // Stores the data of funding rounds.\n    }\n\n    // Arrays with 3 elements map with the Party enum for better readability:\n    // - 0: is unused, matches `Party.None`.\n    // - 1: for `Party.Claimant`.\n    // - 2: for `Party.Challenger`.\n    struct Round {\n        uint256[3] paidFees; // Tracks the fees paid by each side in this round.\n        Party sideFunded; // Stores the side that successfully paid the appeal fees in the latest round. Note that if both sides have paid a new round is created. Also note that it's not used in the 0 round because successful payments are determined by the status in this case.\n        uint256 feeRewards; // Sum of reimbursable fees and stake rewards available to the parties that made contributions to the side that ultimately wins a dispute.\n        mapping(address => uint256[3]) contributions; // Maps contributors to their contributions for each side.\n    }\n\n    /* Storage */\n\n    IArbitrator public arbitrator; // The arbitrator contract.\n    uint64 public metaEvidenceUpdates; // The meta evidence to use in disputes.\n    bytes public arbitratorExtraData; // Extra data for the arbitrator.\n    IClaims public claims; // Address of the contract Claims.sol.\n\n    address public governor; // The governor of this contract.\n    uint256 public nbClaims; // Total number of created claims.\n    uint256 public challengeTimeout; // Time a challenger has to challenge the claim.\n    uint256 public readjustmentTimeout; // Time during which the claim can be readjusted.\n    uint256 public minimumDeposit; // The minimum deposit the claimant has to pay if the claimed amount is too low.\n\n    // Multipliers are in basis points.\n    uint256 public claimantMultiplier; // Multiplier for calculating the deposit the claimant must pay in order to create a claim.\n    uint256 public winnerStakeMultiplier; // Multiplier for calculating the fee stake paid by the party that won the previous round. Also applies to the rounds that resulted in draw.\n    uint256 public loserStakeMultiplier; // Multiplier for calculating the fee stake paid by the party that lost the previous round.\n\n    DisputeData[] public disputes; // Stores all the dispute-related info. Note that the new element is pushed when the new claim is made and not when the dispute is actually created in Arbitrator contract.\n\n    mapping(uint256 => ClaimData) public claimsData; // Stores the data of all created claims. claimsData[claimID].\n    mapping(address => address) public tokenToOracle; // The address of the Uniswap oracle contract that is used for a specific token. tokenToOracle[tokenAddress].\n    mapping(uint256 => uint256) public override externalIDtoLocalID; // Maps external dispute ids to local dispute ids.\n    mapping(bytes32 => bool) public claimCreated; // Stores the hashed info of the claim in order to catch duplicates. claimCreated[hash].\n\n    /* Events */\n\n    /**\n     *  @dev Emitted when a new claim is created.\n     *  @param _claimID The ID of the claim.\n     *  @param _claimant The address that made the claim.\n     */\n    event NewClaim(uint256 indexed _claimID, address indexed _claimant);\n\n    /**\n     *  @dev Emitted when a new claim is created. \n     *  For finding Kleros claimID with unslashed group and user id-s.\n     *  @param _marketAddress The address of the related market.\n     *  @param _groupClaimId Claims contract groupClaimId.\n     *  @param _userClaimId Claims contract userClaimId.\n     *  @param _claimID The ID of the claim.\n     */\n    event NewClaimID(address indexed _marketAddress, uint256 indexed _groupClaimId, uint256 indexed _userClaimId, uint256 _claimID);\n\n    /**\n     *  @dev Emitted when a claim changes its group.\n     *  @param _claimID The ID of the claim.\n     *  @param _newGroup The index of the new group in Claims contract.\n     */\n    event GroupClaimChanged(uint256 indexed _claimID, uint256 indexed _newGroup);\n\n    /**\n     *  @dev Emitted when a claim is challenged.\n     *  @param _claimID The ID of the claim.\n     *  @param _challenger The address of the challenger.\n     *  @param _localDisputeID The index of the dispute in the array of disputes in this contract.\n     *  @param _readjusted Whether the claim is readjusted or not.\n     */\n    event ClaimChallenged(uint256 indexed _claimID, address indexed _challenger, uint256 indexed _localDisputeID, bool _readjusted);\n\n    /**\n     *  @dev Emitted when a claim's amount is readjusted.\n     *  @param _claimID The ID of the claim.\n     */\n    event ClaimReadjusted(uint256 indexed _claimID);\n\n    /**\n     *  @dev Emitted when a claim is resolved.\n     *  @param _claimID The ID of the claim.\n     */\n    event ClaimResolved(uint256 indexed _claimID);\n\n    /* Modifiers */\n\n    modifier onlyGovernor {require(msg.sender == governor, 'The caller must be the governor.'); _;}\n\n    /** @dev Constructor.\n     *  @param _arbitrator The arbitrator of the contract.\n     *  @param _arbitratorExtraData Extra data for the arbitrator.\n     *  @param _claims The address of Claims.sol contract.\n     *  @param _metaEvidence The URI of the meta evidence object.\n     *  @param _challengeTimeout Time in seconds during which it is possible to challenge a claim.\n     *  @param _readjustmentTimeout Time in seconds during which it is possible to readjust the amount of the claim.\n     *  @param _minimumDeposit The minimum deposit the claimant has to pay if the claimed amount is too low.\n     *  @param _claimantMultiplier Multiplier for calculating the deposit of the claimant.\n     *  @param _winnerStakeMultiplier Multiplier of the arbitration cost that the winner has to pay as fee stake for a round in basis points. Also applies in case of a draw.\n     *  @param _loserStakeMultiplier Multiplier of the arbitration cost that the loser has to pay as fee stake for a round in basis points.\n     */\n    function initialize(\n        IArbitrator _arbitrator,\n        bytes calldata _arbitratorExtraData,\n        IClaims _claims,\n        string calldata _metaEvidence,\n        uint256 _challengeTimeout,\n        uint256 _readjustmentTimeout,\n        uint256 _minimumDeposit,\n        uint256 _claimantMultiplier,\n        uint256 _winnerStakeMultiplier,\n        uint256 _loserStakeMultiplier\n    ) external initializer {\n        emit MetaEvidence(0, _metaEvidence);\n        \n        arbitrator = _arbitrator;\n        arbitratorExtraData = _arbitratorExtraData;\n        claims = _claims;\n        governor = msg.sender;\n        challengeTimeout = _challengeTimeout;\n        readjustmentTimeout = _readjustmentTimeout;\n        minimumDeposit = _minimumDeposit;\n        claimantMultiplier = _claimantMultiplier;\n        winnerStakeMultiplier = _winnerStakeMultiplier;\n        loserStakeMultiplier = _loserStakeMultiplier;\n    }\n\n    /* External and Public */\n\n    // ************************ //\n    // *      Governance      * //\n    // ************************ //\n\n    /** @dev Change the duration of the challenge period.\n     *  @param _challengeTimeout The new duration of the challenge period.\n     */\n    function changeChallengeTimeout(uint256 _challengeTimeout) external onlyGovernor {\n        challengeTimeout = _challengeTimeout;\n    }\n\n    /** @dev Change the duration of the readjustment period.\n     *  @param _readjustmentTimeout The new duration of the readjustment period.\n     */\n    function changeReadjustmentTimeout(uint256 _readjustmentTimeout) external onlyGovernor {\n        readjustmentTimeout = _readjustmentTimeout;\n    }\n\n    /** @dev Change the minimum deposit the claimant has to pay when the claimed value is too low.\n     *  @param _minimumDeposit The new minimum deposit for claimant.\n     */\n    function changeMinimumDeposit(uint256 _minimumDeposit) external onlyGovernor {\n        minimumDeposit = _minimumDeposit;\n    }\n\n    /** @dev Change the proportion of the requested amount that must be paid by the claimant in order to create a new claim.\n     *  @param _claimantMultiplier The new multiplier for calculating the claimant's deposit. In basis points.\n     */\n    function changeClaimantMultiplier(uint256 _claimantMultiplier) external onlyGovernor {\n        claimantMultiplier = _claimantMultiplier;\n    }\n\n    /** @dev Change the proportion of arbitration fees that must be paid as fee stake by the winner of the previous round. Also applies in case of a draw.\n     *  @param _winnerStakeMultiplier The new multiplier of arbitration fees that must be paid as fee stake. In basis points.\n     */\n    function changeWinnerStakeMultiplier(uint256 _winnerStakeMultiplier) external onlyGovernor {\n        winnerStakeMultiplier = _winnerStakeMultiplier;\n    }\n\n    /** @dev Change the proportion of arbitration fees that must be paid as fee stake by the party that lost the previous round.\n     *  @param _loserStakeMultiplier The new multiplier of arbitration fees that must be paid as fee stake. In basis points.\n     */\n    function changeLoserStakeMultiplier(uint256 _loserStakeMultiplier) external onlyGovernor {\n        loserStakeMultiplier = _loserStakeMultiplier;\n    }\n\n    /** @dev Change the governor of the contract.\n     *  @param _governor The address of the new governor.\n     */\n    function changeGovernor(address _governor) external onlyGovernor {\n        governor = _governor;\n    }\n\n    /** @dev Update the meta evidence used for disputes.\n     *  @param _metaEvidence URI of the new meta evidence.\n     */\n    function changeMetaEvidence(string calldata _metaEvidence) external onlyGovernor {\n        metaEvidenceUpdates++;\n        emit MetaEvidence(metaEvidenceUpdates, _metaEvidence);\n    }\n\n    /** @dev Map the address of the oracle to a specific token.\n     *  @param _token The address of the token.\n     *  @param _oracle The address of the oracle to convert tokens into ETH.\n     */\n    function setOracle(address _token, address _oracle) external onlyGovernor {\n        tokenToOracle[_token] = _oracle;\n    }\n\n    /** @dev Set the address of the Claims contract.\n     *  @param _claims The address of the Claims contract.\n     */\n    function setClaimsContract(IClaims _claims) external onlyGovernor {\n        claims = _claims;\n    }\n\n    // ********************** //\n    // *       Claims       * //\n    // ********************** //\n\n    /** @dev Make a new claim in Connector and Claims contracts.\n     *  Requires the fraction of the claimed amount as a deposit. Accepts enough ETH to cover the deposit, reimburses the rest.\n     *  @param _marketAddress The address of the market contract claimed\n     *  @param _amount The claimed amount.\n     *  @param _dappCover True if the claim is covered by the dapp.\n     *  @param _evidences A list of links to evidence using its URI. Ignored if not provided. If claim is first of the incident, the incident url has to be the first element\n     *  @param _incidentGroupClaimId id connecting all the claims in the same incident, groupClaimId of the first claim in the incident if == uint256(-1) it means that this claim is the first in the incident\n     */\n    function makeNewClaim(address _marketAddress, uint256 _amount, bool _dappCover, string[] calldata _evidences, uint256 _incidentGroupClaimId) external payable {\n        // Calculate the required deposit based on the market token and the claimed amount.\n        uint256 claimantDeposit = getClaimantDeposit(_marketAddress, _amount);\n        require(msg.value >= claimantDeposit, 'Should pay the full deposit.');\n        uint256 claimID = nbClaims;\n        uint256 localDisputeID = disputes.length;\n\n        ClaimData storage claimData = claimsData[claimID];\n        claimData.metaEvidenceID = metaEvidenceUpdates;\n        claimData.status = Status.Created;\n        claimData.claimant = msg.sender;\n        claimData.marketAddress = _marketAddress;\n        claimData.amount = _amount;\n\n        IClaims claimsContract = claims;\n        uint256 groupClaimId;\n        if (_incidentGroupClaimId == uint256(-1)) {\n            groupClaimId = claimsContract.addIncidentGroupClaim(_marketAddress, msg.sender, _amount, _dappCover, _evidences[0]);\n        } else {\n            groupClaimId = claimsContract.addGroupClaim(_marketAddress, msg.sender, _amount, _dappCover,  _incidentGroupClaimId);\n        }\n        claimData.groupClaimId = groupClaimId;\n        claimData.lastActionTime = uint64(now);\n        claimData.localDisputeID = localDisputeID;\n\n        claimCreated[keccak256(abi.encodePacked(claimsContract, _marketAddress, groupClaimId, msg.sender))] = true;\n\n        {\n            DisputeData storage disputeData = disputes.push();\n            disputeData.claimID = claimID;\n            Round storage round = disputeData.rounds.push();\n            contribute(round, Party.Claimant, msg.value, claimantDeposit);\n        }\n        emit NewClaim(claimID, msg.sender);\n        emit NewClaimID(_marketAddress, groupClaimId, 0, claimID);\n\n        IArbitrator claimArbitrator = arbitrator;\n        // We dont emit an event for the incident. It is done in Claims.sol\n        uint256 i = _incidentGroupClaimId==uint256(-1) ? 1 : 0;\n        for (; i < _evidences.length; i++) {\n            emit Evidence(claimArbitrator, localDisputeID, msg.sender, _evidences[i]);\n        }\n\n        nbClaims = claimID + 1;\n    }\n\n    /** @dev Make a new claim and join an existing claim group.\n     *  Requires the fraction of the claimed amount as a deposit. Accepts enough ETH to cover the deposit, reimburses the rest.\n     *  @param _marketAddress The address of the market contract.\n     *  @param _groupClaimId The ID of the group to join in Claims contract.\n     *  @param _amount Claimed amount.\n     *  @param _evidences A list of links to evidences using its URIs. Ignored if not provided.\n     */\n    function makeNewClaimAndJoinGroup(address _marketAddress, uint256 _groupClaimId, uint256 _amount, string[] calldata _evidences) external payable {\n        uint256 claimantDeposit = getClaimantDeposit(_marketAddress, _amount);\n        IClaims claimsContract = claims;\n        bytes32 claimHash = keccak256(abi.encodePacked(claimsContract, _marketAddress, _groupClaimId, msg.sender));\n        require(!claimCreated[claimHash], 'Can not make a duplicate claim.');\n        require(msg.value >= claimantDeposit, 'Should pay the full deposit.');\n\n        uint256 claimID = nbClaims;\n        uint256 localDisputeID = disputes.length;\n\n        ClaimData storage claimData = claimsData[claimID];\n        claimData.metaEvidenceID = metaEvidenceUpdates;\n        claimData.status = Status.Created;\n        claimData.claimant = msg.sender;\n        claimData.marketAddress = _marketAddress;\n        claimData.amount = _amount;\n        claimData.groupClaimId = _groupClaimId;\n        claimData.lastActionTime = uint64(now);\n        claimData.groupWasChanged = true;\n        claimData.localDisputeID = localDisputeID;\n        claimCreated[claimHash] = true;\n\n        uint256 userClaimId = claimsContract.joinGroupClaim(_marketAddress, _groupClaimId, msg.sender, _amount);\n        claimData.userClaimId = userClaimId;\n\n        {\n            DisputeData storage disputeData = disputes.push();\n            disputeData.claimID = claimID;\n            Round storage round = disputeData.rounds.push();\n            contribute(round, Party.Claimant, msg.value, claimantDeposit);\n        }        \n        emit NewClaim(claimID, msg.sender);\n        emit NewClaimID(_marketAddress, _groupClaimId, userClaimId, claimID);\n\n        IArbitrator claimArbitrator = arbitrator;\n        for (uint256 i = 0; i < _evidences.length; i++) {\n            emit Evidence(claimArbitrator, localDisputeID, msg.sender, _evidences[i]);\n        }\n        nbClaims = claimID + 1;\n    }\n\n    /** @dev Join a new claim group. Can only be called once per claim.\n     *  @param _claimID  The ID of the claim for which group is to be changed.\n     *  @param _groupClaimId The ID of the new claim group.\n     */\n    function joinGroupClaim(uint256 _claimID, uint256 _groupClaimId) external {\n        ClaimData storage claimData = claimsData[_claimID];\n        IClaims claimsContract = claims;\n        address marketAddress = claimData.marketAddress;\n\n        bytes32 claimHash = keccak256(abi.encodePacked(claimsContract, marketAddress, _groupClaimId, msg.sender));\n        require(claimData.status == Status.Created, 'Status should be Created.');\n        require(claimData.claimant == msg.sender, 'Only claimant can execute this.');\n        require(!claimCreated[claimHash], 'Can not make a duplicate claim.');\n        require(!claimData.groupWasChanged, 'Group has already been changed.');\n\n        claimData.groupWasChanged = true;\n        claimCreated[claimHash] = true;\n\n        // Refuse old one.\n        claimsContract.decideUserClaim(marketAddress, claimData.groupClaimId, claimData.userClaimId, false);\n\n        claimData.groupClaimId = _groupClaimId;\n\n        claimData.userClaimId = claimsContract.joinGroupClaim(marketAddress, _groupClaimId, msg.sender, claimData.amount);\n        emit GroupClaimChanged(_claimID, _groupClaimId);\n        emit NewClaimID(marketAddress, _groupClaimId, claimData.userClaimId, _claimID);\n    }\n\n    /** @dev Challenge the claim and create a dispute.\n     *  Requires the value of the arbitration cost as a deposit. Accepts enough ETH to cover the deposit, reimburses the rest.\n     *  @param _claimID The ID of the claim to challenge.\n     *  @param _evidences A list of links to evidences using its URIs. Ignored if not provided.\n     */\n    function challengeClaim(uint256 _claimID, string[] calldata _evidences) external payable {\n        ClaimData storage claimData = claimsData[_claimID];\n        IArbitrator claimArbitrator = arbitrator;\n\n        uint256 arbitrationCost = claimArbitrator.arbitrationCost(arbitratorExtraData);\n        require(claimData.status == Status.Created, 'Status must be Created.');\n        require(now - claimData.lastActionTime <= challengeTimeout, 'Time to challenge has passed.');\n        require(msg.value >= arbitrationCost, 'Should pay the full deposit.');\n\n        claimData.status = Status.Disputed;\n        claimData.challenger = msg.sender;\n        DisputeData storage disputeData = disputes[claimData.localDisputeID];\n        // Create a dispute in arbitrator contract.\n        uint256 externalDisputeID = claimArbitrator.createDispute{value: arbitrationCost}(RULING_OPTIONS,  arbitratorExtraData);\n        uint256 localDisputeID = claimData.localDisputeID;\n        disputeData.externalDisputeID = externalDisputeID;\n        externalIDtoLocalID[externalDisputeID] = localDisputeID;\n\n        Round storage round = disputeData.rounds[disputeData.rounds.length - 1];\n        contribute(round, Party.Challenger, msg.value, arbitrationCost);\n        round.feeRewards = round.feeRewards.subCap(arbitrationCost);\n        disputeData.rounds.push();\n\n        emit ClaimChallenged(_claimID, msg.sender, localDisputeID, claimData.amountReadjusted);\n        emit Dispute(claimArbitrator, externalDisputeID, claimData.metaEvidenceID, localDisputeID);\n\n        for (uint256 i = 0; i < _evidences.length; i++) {\n            emit Evidence(claimArbitrator, localDisputeID, msg.sender, _evidences[i]);\n        }\n    }\n\n    /** @dev Accept the claim that wasn't challenged during the challenge period.\n     *  @param _claimID The ID of the claim.\n     */\n    function acceptClaim(uint256 _claimID) external {\n        ClaimData storage claimData = claimsData[_claimID];\n        require(claimData.status == Status.Created, 'Status should be Created.');\n        require(now - claimData.lastActionTime > challengeTimeout, 'Time to challenge has not passed');\n\n        claimData.status = Status.Resolved;\n\n        if (claimData.amountReadjusted)\n            claims.decideUserClaimChangeAmount(claimData.marketAddress, claimData.groupClaimId, claimData.userClaimId, true, claimData.amount);\n        else\n            claims.decideUserClaim(claimData.marketAddress, claimData.groupClaimId, claimData.userClaimId, true);\n\n        emit ClaimResolved(_claimID);\n\n        withdrawFeesAndRewards(claimData.localDisputeID, claimData.claimant, 0, uint(Party.Claimant));\n    }\n\n    /** @dev Refuse the claim that wasn't readjusted during the readjustment period.\n     *  @param _claimID The ID of the claim.\n     */\n    function refuseClaim(uint256 _claimID) external {\n        ClaimData storage claimData = claimsData[_claimID];\n        require(claimData.status == Status.Readjustable, 'Status should be Readjustable.');\n        claimData.status = Status.Resolved;\n\n        require(now - claimData.lastActionTime > readjustmentTimeout, 'Time to readjust has not passed');\n        claims.decideUserClaim(claimData.marketAddress, claimData.groupClaimId, claimData.userClaimId, false);\n\n        emit ClaimResolved(_claimID);\n    }\n\n    /** @dev Change the claimed amount. Resets the claim to its initial state and makes it open for a new challenge.\n     *  Can only be called once per claim and after the claim has been declined.\n     *  @param _claimID The ID of the claim which amount to readjust.\n     *  @param _newAmount The new amount to claim.\n     *  @param _evidences A list of links to evidences using its URIs. Ignored if not provided.\n     */\n    function readjustClaim(uint256 _claimID, uint256 _newAmount, string[] calldata _evidences) external payable {\n        ClaimData storage claimData = claimsData[_claimID];\n        require(claimData.status == Status.Readjustable, 'Status must be Readjustable.');\n        require(claimData.claimant == msg.sender, 'Only claimant can execute this.');\n        require(_newAmount != 0 && _newAmount < claimData.amount, 'Wrong amount.');\n        require(now - claimData.lastActionTime <= readjustmentTimeout, 'Time to readjust has passed.');\n\n        uint256 claimantDeposit = getClaimantDeposit(claimData.marketAddress, _newAmount);\n        require(msg.value >= claimantDeposit, 'Should pay the full deposit.');\n\n        claimData.status = Status.Created;\n        claimData.amount = _newAmount;\n        claimData.lastActionTime = uint64(now);\n        claimData.amountReadjusted = true;\n        uint256 localDisputeID = disputes.length;\n        claimData.localDisputeID = localDisputeID;\n\n        DisputeData storage disputeData = disputes.push();\n        disputeData.claimID = _claimID;\n        Round storage round = disputeData.rounds.push();\n        contribute(round, Party.Claimant, msg.value, claimantDeposit);\n\n        emit ClaimReadjusted(_claimID);\n\n        IArbitrator claimArbitrator = arbitrator;\n        for (uint256 i = 0; i < _evidences.length; i++) {\n            emit Evidence(claimArbitrator, localDisputeID, msg.sender, _evidences[i]);\n        }\n    }\n\n    /** @dev Take up to the total amount required to fund a side of an appeal. Reimburse the rest. Create an appeal if both sides are fully funded.\n     *  @param _localDisputeID The index of the related dispute in the array of disputes.\n     *  @param _ruling The ruling to contribute to.\n     *  @return fullyFunded Whether the side of an appeal was fully funded or not.\n     */\n    function fundAppeal(uint256 _localDisputeID, uint256 _ruling) external payable override returns (bool fullyFunded) {\n        require(_ruling == 1 || _ruling == 2, 'Invalid ruling.');\n        DisputeData storage disputeData = disputes[_localDisputeID];\n        ClaimData storage claimData = claimsData[disputeData.claimID];\n        require(claimData.status == Status.Disputed, 'Status must be Disputed.');\n        IArbitrator claimArbitrator = arbitrator;\n\n        (uint256 appealPeriodStart, uint256 appealPeriodEnd) = claimArbitrator.appealPeriod(disputeData.externalDisputeID);\n        require(now >= appealPeriodStart && now < appealPeriodEnd, 'Appeal period has passed.');\n\n        uint256 multiplier;\n        {\n            uint256 winner = claimArbitrator.currentRuling(disputeData.externalDisputeID);\n            if (winner==_ruling || winner==0) {\n                multiplier = winnerStakeMultiplier;\n            } else {\n                multiplier = loserStakeMultiplier;\n                require(now < (appealPeriodStart+appealPeriodEnd)/2, 'Time for losing party has passed');\n            }\n        }\n\n        Round storage round = disputeData.rounds[disputeData.rounds.length - 1];\n        require(_ruling != uint256(round.sideFunded), 'Appeal fee has already been paid');\n        uint256 appealCost = claimArbitrator.appealCost(disputeData.externalDisputeID, arbitratorExtraData);\n        uint256 totalCost = appealCost.addCap((appealCost.mulCap(multiplier)) / MULTIPLIER_DIVISOR);\n        uint256 contribution = contribute(round, Party(_ruling), msg.value, totalCost);\n\n        emit Contribution(_localDisputeID, disputeData.rounds.length - 1, _ruling, msg.sender, contribution);\n\n        if (round.paidFees[_ruling] >= totalCost) {\n            emit RulingFunded(_localDisputeID, disputeData.rounds.length - 1, _ruling);\n            if (round.sideFunded == Party.None) {\n                round.sideFunded = Party(_ruling);\n            } else {\n                // Both sides are fully funded. Create an appeal.\n                claimArbitrator.appeal{value: appealCost}(disputeData.externalDisputeID, arbitratorExtraData);\n                disputeData.rounds.push();\n                round.feeRewards = round.feeRewards.subCap(appealCost);\n                round.sideFunded = Party.None;\n            }\n            fullyFunded = true;\n        }\n    }\n\n    /** @dev Reimburse contributions if no disputes were raised in Arbitrator contract.\n     *  If a dispute was raised, send the fee stake rewards and reimbursements proportionally to the contributions made to the winner of a dispute.\n     *  @param _localDisputeID The index of the related dispute in the array of disputes.\n     *  @param _beneficiary The address that made contributions.\n     *  @param _round The round from which to withdraw.\n     *  @param _ruling The ruling to withdraw from.\n     *  @return reward The withdrawn reward value.\n     */\n    function withdrawFeesAndRewards(\n        uint256 _localDisputeID,\n        address payable _beneficiary,\n        uint256 _round,\n        uint256 _ruling\n    ) public override returns (uint256 reward)  {\n        DisputeData storage disputeData = disputes[_localDisputeID];\n        ClaimData storage claimData = claimsData[disputeData.claimID];\n        require(disputeData.resolved || claimData.status == Status.Resolved, 'Dispute or claim not resolved.');\n        Round storage round = disputeData.rounds[_round];\n\n        Party ruling = disputeData.ruling;\n        if (_round == disputeData.rounds.length - 1) {\n            // Reimburse if not enough fees were raised to appeal the ruling.\n            reward = round.contributions[_beneficiary][_ruling];\n        } else if (ruling == Party.None) {\n            // Reimburse unspent fees proportionally if there is no winner or loser.\n            uint256 totalFeesInRound = round.paidFees[uint256(Party.Claimant)] + round.paidFees[uint256(Party.Challenger)];\n            reward = totalFeesInRound > 0 ? round.contributions[_beneficiary][_ruling] * round.feeRewards / totalFeesInRound : 0;\n        } else if (_ruling == uint256(ruling)) {\n            // Reward the winner.\n            reward = round.paidFees[_ruling] != 0\n                ? (round.contributions[_beneficiary][_ruling] * round.feeRewards) / round.paidFees[_ruling]\n                : 0;\n\n        }\n        round.contributions[_beneficiary][_ruling] = 0;\n\n        if (reward != 0) {\n            _beneficiary.send(reward); // Deliberate use of send to prevent reverting fallback. It's the user's responsibility to accept ETH.\n            emit Withdrawal(_localDisputeID, _round, _ruling, _beneficiary, reward);\n        }\n    }\n\n    /** @dev Allows to withdraw any reimbursable fees or rewards after the dispute gets solved for multiple ruling options at once.\n     *  Note that since this arbitrable contract only has 2 ruling options using this function isn't practical. It's implemented to match Dispute Resolver interface.\n     *  @param _localDisputeID The index of the related dispute in the array of disputes.\n     *  @param _contributor The address to withdraw rewards for.\n     *  @param _roundNumber The number of the round caller wants to withdraw from.\n     */\n    function withdrawFeesAndRewardsForMultipleRulings(\n        uint256 _localDisputeID,\n        address payable _contributor,\n        uint256 _roundNumber,\n        uint256[] memory /* _contributedTo */\n    ) public override {\n        withdrawFeesAndRewards(_localDisputeID, _contributor, _roundNumber, uint256(Party.Claimant));\n        withdrawFeesAndRewards(_localDisputeID, _contributor, _roundNumber, uint256(Party.Challenger));\n    }\n\n    /** @dev Allows to withdraw any rewards or reimbursable fees after the dispute gets resolved. For multiple rulings options and for all rounds at once.\n     *  This function is O(n) where n is the number of rounds. This could exceed the gas limit, therefore this function should be used only as a utility and not be relied upon by other contracts.\n     *  @param _localDisputeID The index of the related dispute in the array of disputes.\n     *  @param _contributor The address to withdraw rewards for.\n     *  @param _contributedTo Rulings that received contributions from contributor. Not used in this contract.\n     */\n    function withdrawFeesAndRewardsForAllRounds(\n        uint256 _localDisputeID,\n        address payable _contributor,\n        uint256[] calldata _contributedTo\n    ) external override {\n        uint256 noOfRounds = disputes[_localDisputeID].rounds.length;\n        for (uint256 roundNumber = 0; roundNumber < noOfRounds; roundNumber++) {\n            withdrawFeesAndRewardsForMultipleRulings(_localDisputeID, _contributor, roundNumber, _contributedTo);\n        }\n    }\n\n    /** @dev Submit a reference to evidence. EVENT.\n     *  @param _localDisputeID The index of the related dispute in the array of disputes.\n     *  @param _evidenceURI Link to evidence.\n     */\n    function submitEvidence(uint256 _localDisputeID, string calldata _evidenceURI) external override {\n        emit Evidence(arbitrator, _localDisputeID, msg.sender, _evidenceURI);\n    }\n\n    /** @dev Submit a reference to evidence. EVENT.\n     *  This function accept multiple evidence URIs at once. \n     *  @param _localDisputeID The index of the related dispute in the array of disputes.\n     *  @param _evidences A list of links to evidences using its URIs.\n     */\n    function submitMultipleEvidence(uint256 _localDisputeID, string[] calldata _evidences) external {\n        IArbitrator claimArbitrator = arbitrator;\n        for (uint256 i = 0; i < _evidences.length; i++) {\n            emit Evidence(claimArbitrator, _localDisputeID, msg.sender, _evidences[i]);\n        }\n    }\n\n    /** @dev Give a ruling for a dispute. Can only be called by the arbitrator. TRUSTED.\n     *  Accounts for the situation where the winner loses a case due to paying less appeal fees than expected.\n     *  @param _disputeID ID of the dispute in the arbitrator contract.\n     *  @param _ruling Ruling given by the arbitrator. Note that 0 is reserved for \"Refused to arbitrate\".\n     */\n    function rule(uint256 _disputeID, uint256 _ruling) external override {\n        Party resultRuling = Party(_ruling);\n        uint256 localDisputeID = externalIDtoLocalID[_disputeID];\n        uint256 claimID = disputes[localDisputeID].claimID;\n        ClaimData storage claimData = claimsData[claimID];\n\n        require(claimData.status == Status.Disputed, 'Status must be Disputed.');\n        require(_ruling <= RULING_OPTIONS, 'Invalid ruling option');\n        require(address(arbitrator) == msg.sender, 'Only the arbitrator can execute');\n\n        DisputeData storage disputeData = disputes[localDisputeID];\n        Round storage round = disputeData.rounds[disputeData.rounds.length - 1];\n\n        // The ruling is inverted if the loser paid its fees.\n        if (round.sideFunded == Party.Claimant) // If one side paid its fees, the ruling is in its favor. Note that if the other side had also paid, an appeal would have been created.\n            resultRuling = Party.Claimant;\n        else if (round.sideFunded == Party.Challenger)\n            resultRuling = Party.Challenger;\n\n        emit Ruling(IArbitrator(msg.sender), _disputeID, uint256(resultRuling));\n        executeRuling(claimID, claimData, disputeData, resultRuling);\n    }\n\n    // ************************ //\n    // *       Getters        * //\n    // ************************ //\n\n    /** @dev Returns stake multipliers.\n     *  @return _winnerStakeMultiplier Winners stake multiplier.\n     *  @return _loserStakeMultiplier Losers stake multiplier.\n     *  @return _loserAppealPeriodMultiplier Multiplier for calculating the duration of the appeal period for losing side. This contract uses default 1/2 of normal period.\n     *  @return divisor Multiplier divisor in basis points.\n     */\n    function getMultipliers()\n        external\n        view\n        override\n        returns (\n            uint256 _winnerStakeMultiplier,\n            uint256 _loserStakeMultiplier,\n            uint256 _loserAppealPeriodMultiplier,\n            uint256 divisor\n        )\n    {\n        return (winnerStakeMultiplier, loserStakeMultiplier, 5000, MULTIPLIER_DIVISOR);\n    }\n    \n    /** @dev Returns number of possible ruling options.\n     *  @return count The number of ruling options.\n     */\n    function numberOfRulingOptions(uint256 /* _localDisputeID */) external view override returns (uint256) {\n        return RULING_OPTIONS;\n    }\n\n    /** @dev Get the number of rounds of a local disputes.\n     *  @param _localDisputeID The index of the dispute in the array of disputes.\n     *  @return The number of rounds of the dispute.\n     */\n    function getNumberOfRounds(uint256 _localDisputeID) external view returns (uint256) {\n        return disputes[_localDisputeID].rounds.length;\n    }\n\n    /** @dev Get the contributions made by a party for a given round of a dispute.\n     *  @param _localDisputeID The index of the dispute in the array of disputes.\n     *  @param _round The round to query.\n     *  @param _contributor The address of the contributor.\n     *  @return contributions The contributions.\n     */\n    function getContributions(\n        uint256 _localDisputeID,\n        uint256 _round,\n        address _contributor\n    ) external view returns(uint256[3] memory contributions) {\n        Round storage round = disputes[_localDisputeID].rounds[_round];\n        contributions = round.contributions[_contributor];\n    }\n\n    /** @dev Get the information of a round of a dispute.\n     *  @param _localDisputeID The index of the dispute in the array of disputes.\n     *  @param _round The round to query.\n     *  @return appealed Whether the round was appealed.\n     *  @return paidFees Total fees paid in this round.\n     *  @return sideFunded The party that paid the appeal fees first.\n     *  @return feeRewards The amount of fees to use as rewards.\n     */\n    function getRoundInfo(uint256 _localDisputeID, uint256 _round)\n        external\n        view\n        returns (\n            bool appealed,\n            uint256[3] memory paidFees,\n            Party sideFunded,\n            uint256 feeRewards\n        )\n    {\n        DisputeData storage disputeData = disputes[_localDisputeID];\n        Round storage round = disputeData.rounds[_round];\n        return (\n            _round != (disputeData.rounds.length - 1),\n            round.paidFees,\n            round.sideFunded,\n            round.feeRewards\n        );\n    }\n\n    /** @dev Get the required deposit for the claimant.\n     *  @param _marketAddress The address of the market to define the token address.\n     *  @param _amount The amount to convert into ETH.\n     *  @return The deposit the claimant has to pay.\n     */\n    function getClaimantDeposit(address _marketAddress, uint256 _amount) public view returns (uint256) {\n        address marketToken = IClaimableMarket(_marketAddress).getPoolAsset();\n        address oracle = tokenToOracle[marketToken];\n        require(oracle != address(0), 'The token is not supported.');\n        // Use an oracle to perform the conversion.\n        uint256 amountInETH = IOracle(oracle).consult(marketToken, _amount);\n        uint256 arbitrationCost = arbitrator.arbitrationCost(arbitratorExtraData);\n        uint256 proportionalDeposit = arbitrationCost.addCap((amountInETH.mulCap(claimantMultiplier)) / MULTIPLIER_DIVISOR);\n        // Minimum deposit is paid in case when the amount is too low, to avoid spamming claims.\n        return proportionalDeposit > minimumDeposit ? proportionalDeposit : minimumDeposit;\n    }\n\n    /** @dev Get the cost of appeal of the claims' dispute.\n     *  @param _claimID The ID of the associated claim.\n     *  @return appealCost to be paid. Note that this cost doesn't include crowdfunding fees.\n     */\n    function getAppealCost(uint256 _claimID) external view returns (uint256 appealCost) {\n        ClaimData storage claimData = claimsData[_claimID];\n        require(claimData.status == Status.Disputed, 'Status must be Disputed.');\n        uint256 externalDisputeID = disputes[claimData.localDisputeID].externalDisputeID;\n        appealCost = arbitrator.appealCost(externalDisputeID, arbitratorExtraData);\n    }\n\n    /** @dev Get the deposit required for challenging the claim.\n     *  @param _claimID The ID of the associated claim.\n     *  @return challengeCost to be paid.\n     */\n    function getChallengeCost(uint256 _claimID) external view returns (uint256 challengeCost) {\n        ClaimData storage claimData = claimsData[_claimID];\n        require(claimData.status == Status.Created, 'Status must be Created.');\n        require(now - claimData.lastActionTime <= challengeTimeout, 'Time to challenge has passed.');\n        challengeCost = arbitrator.arbitrationCost(arbitratorExtraData);\n    }\n\n    /** @dev Get the cost of making a claim.\n     *  @param _marketAddress The address of the market to define the token address.\n     *  @param _amount The claimed amount.\n     *  @return deposit The fraction of the claimed amount converted into ETH.\n     */\n    function getClaimCost(address _marketAddress, uint256 _amount) external view returns (uint256 deposit) {\n        deposit = getClaimantDeposit(_marketAddress, _amount);\n    }\n\n    /** @dev Returns the sum of withdrawable amount.\n     *  This function is O(n) where n is the number of rounds. This could exceed the gas limit, \n     *  therefore this function should be used only as a utility and not be relied upon by other contracts.\n     *  @param _localDisputeID The index of the related dispute in the array of disputes.\n     *  @param _contributor The contributor for which to query.\n     *  @return sum The total amount available to withdraw.\n     */\n    function getTotalWithdrawableAmount(\n        uint256 _localDisputeID,\n        address payable _contributor,\n        uint256[] calldata /* _contributedTo */\n    ) external view override returns (uint256 sum) {\n        DisputeData storage disputeData = disputes[_localDisputeID];\n        ClaimData storage claimData = claimsData[disputeData.claimID];\n        require(disputeData.resolved || claimData.status == Status.Resolved, 'Dispute or claim not resolved.');\n        Party ruling = disputeData.ruling;\n        uint256 noOfRounds = disputeData.rounds.length;\n        for (uint256 roundNumber = 0; roundNumber < noOfRounds; roundNumber++) {\n            Round storage round = disputeData.rounds[roundNumber];\n            if (roundNumber == disputeData.rounds.length - 1) {\n                sum += round.contributions[_contributor][uint256(Party.Claimant)] + round.contributions[_contributor][uint256(Party.Challenger)];\n            } else if (ruling == Party.None) {\n                uint256 totalFeesInRound = round.paidFees[uint256(Party.Claimant)] + round.paidFees[uint256(Party.Challenger)];\n                uint256 claimableFees = round.contributions[_contributor][uint256(Party.Claimant)] + round.contributions[_contributor][uint256(Party.Challenger)];\n                sum += totalFeesInRound > 0 ? claimableFees * round.feeRewards / totalFeesInRound : 0;\n            } else {\n                sum += round.paidFees[uint256(ruling)] != 0\n                    ? (round.contributions[_contributor][uint256(ruling)] * round.feeRewards) / round.paidFees[uint256(ruling)]\n                    : 0;\n            }\n        }\n    }\n\n    /* Internal */\n\n    /** @dev Execute the ruling of a dispute.\n     *  @param _claimID The ID of the claim the dispute is related to.\n     *  @param _claimData The data of the disputed claim.\n     *  @param _disputeData The data of the dispute.\n     *  @param _ruling Ruling given by the arbitrator. Note that 0 is reserved for \"Refused to arbitrate\".\n     */\n    function executeRuling(uint256 _claimID, ClaimData storage _claimData, DisputeData storage _disputeData, Party _ruling) internal {\n        _disputeData.ruling = _ruling;\n        _disputeData.resolved = true;\n        uint256 localDisputeID = _claimData.localDisputeID;\n        // Enforce the ruling by calling a specific function in Claims contract.\n        if (_ruling == Party.Claimant) {\n            _claimData.status = Status.Resolved;\n            if (_claimData.amountReadjusted)\n                claims.decideUserClaimChangeAmount(_claimData.marketAddress, _claimData.groupClaimId, _claimData.userClaimId, true, _claimData.amount);\n            else\n                claims.decideUserClaim(_claimData.marketAddress, _claimData.groupClaimId, _claimData.userClaimId, true);\n\n            emit ClaimResolved(_claimID);\n        // Give the claimant a chance to readjust the claimed amount or report the claim as unsuccessul if this chance was already used.\n        } else {\n            if (_claimData.amountReadjusted) {\n                _claimData.status = Status.Resolved;\n                claims.decideUserClaim(_claimData.marketAddress, _claimData.groupClaimId, _claimData.userClaimId, false);\n                emit ClaimResolved(_claimID);\n            } else {\n                _claimData.status = Status.Readjustable;\n                _claimData.lastActionTime = uint64(now);\n            }\n        }\n\n        // Automatically withdraw from the 0 round for the party that is eligible for reimbursement/reward.\n        if (_ruling == Party.None) {\n            withdrawFeesAndRewards(localDisputeID, _claimData.claimant, 0, uint(Party.Claimant));\n            withdrawFeesAndRewards(localDisputeID, _claimData.challenger, 0, uint(Party.Challenger));\n        } else if (_ruling == Party.Claimant) {\n            withdrawFeesAndRewards(localDisputeID, _claimData.claimant, 0, uint(Party.Claimant));\n        } else {\n            withdrawFeesAndRewards(localDisputeID, _claimData.challenger, 0, uint(Party.Challenger));\n        }\n    }\n\n    /** @dev Make a fee contribution.\n     *  @param _round The round to contribute.\n     *  @param _side The side for which to contribute.\n     *  @param _amount The amount contributed.\n     *  @param _totalRequired The total amount required for this side.\n     *  @return contribution The amount of appeal fees contributed.\n     */\n    function contribute(Round storage _round, Party _side, uint256 _amount, uint256 _totalRequired)\n        internal\n        returns (uint256 contribution)\n    {\n        // Take up to the amount necessary to fund the current round at the current costs.\n        uint256 remainingETH; // Remaining ETH to send back.\n        (contribution, remainingETH) = calculateContribution(_amount, _totalRequired.subCap(_round.paidFees[uint256(_side)]));\n        _round.contributions[msg.sender][uint256(_side)] += contribution;\n        _round.paidFees[uint256(_side)] += contribution;\n        _round.feeRewards += contribution;\n\n        // Reimburse leftover ETH.\n        if (remainingETH > 0)\n            msg.sender.send(remainingETH); // It's the user's responsibility to accept ETH.\n    }\n\n    /** @dev Return the contribution value and remainder from available ETH and required amount.\n     *  @param _available The amount of ETH available for the contribution.\n     *  @param _requiredAmount The amount of ETH required for the contribution.\n     *  @return taken The amount of ETH taken.\n     *  @return remainder The amount of ETH left from the contribution.\n     */\n    function calculateContribution(uint256 _available, uint256 _requiredAmount)\n        internal\n        pure\n        returns(uint256 taken, uint256 remainder)\n    {\n        if (_requiredAmount > _available)\n            return (_available, 0); // Take whatever is available, return 0 as leftover ETH.\n        else\n            return (_requiredAmount, _available - _requiredAmount);\n    }\n}\n",
  "sourcePath": "/Users/Javier/Desktop/Solidity/claims/contracts/KlerosConnector.sol",
  "compiler": {
    "name": "solc",
    "version": "0.6.6+commit.6c089d02.Emscripten.clang"
  },
  "schemaVersion": "3.2.5",
  "updatedAt": "2021-06-19T01:02:18.519Z",
  "devdoc": {
    "details": "This contract acts a connector between Unslashed and Kleros court. NOTE: This contract trusts that the Arbitrator is honest and will not reenter or modify its costs during a call. The arbitrator must support appeal period. The contract also trusts that Claims and Market contracts are honest and won't reenter.",
    "methods": {
      "acceptClaim(uint256)": {
        "details": "Accept the claim that wasn't challenged during the challenge period.",
        "params": {
          "_claimID": "The ID of the claim."
        }
      },
      "challengeClaim(uint256,string[])": {
        "details": "Challenge the claim and create a dispute. Requires the value of the arbitration cost as a deposit. Accepts enough ETH to cover the deposit, reimburses the rest.",
        "params": {
          "_claimID": "The ID of the claim to challenge.",
          "_evidences": "A list of links to evidences using its URIs. Ignored if not provided."
        }
      },
      "changeChallengeTimeout(uint256)": {
        "details": "Change the duration of the challenge period.",
        "params": {
          "_challengeTimeout": "The new duration of the challenge period."
        }
      },
      "changeClaimantMultiplier(uint256)": {
        "details": "Change the proportion of the requested amount that must be paid by the claimant in order to create a new claim.",
        "params": {
          "_claimantMultiplier": "The new multiplier for calculating the claimant's deposit. In basis points."
        }
      },
      "changeGovernor(address)": {
        "details": "Change the governor of the contract.",
        "params": {
          "_governor": "The address of the new governor."
        }
      },
      "changeLoserStakeMultiplier(uint256)": {
        "details": "Change the proportion of arbitration fees that must be paid as fee stake by the party that lost the previous round.",
        "params": {
          "_loserStakeMultiplier": "The new multiplier of arbitration fees that must be paid as fee stake. In basis points."
        }
      },
      "changeMetaEvidence(string)": {
        "details": "Update the meta evidence used for disputes.",
        "params": {
          "_metaEvidence": "URI of the new meta evidence."
        }
      },
      "changeMinimumDeposit(uint256)": {
        "details": "Change the minimum deposit the claimant has to pay when the claimed value is too low.",
        "params": {
          "_minimumDeposit": "The new minimum deposit for claimant."
        }
      },
      "changeReadjustmentTimeout(uint256)": {
        "details": "Change the duration of the readjustment period.",
        "params": {
          "_readjustmentTimeout": "The new duration of the readjustment period."
        }
      },
      "changeWinnerStakeMultiplier(uint256)": {
        "details": "Change the proportion of arbitration fees that must be paid as fee stake by the winner of the previous round. Also applies in case of a draw.",
        "params": {
          "_winnerStakeMultiplier": "The new multiplier of arbitration fees that must be paid as fee stake. In basis points."
        }
      },
      "fundAppeal(uint256,uint256)": {
        "details": "Take up to the total amount required to fund a side of an appeal. Reimburse the rest. Create an appeal if both sides are fully funded.",
        "params": {
          "_localDisputeID": "The index of the related dispute in the array of disputes.",
          "_ruling": "The ruling to contribute to."
        },
        "returns": {
          "fullyFunded": "Whether the side of an appeal was fully funded or not."
        }
      },
      "getAppealCost(uint256)": {
        "details": "Get the cost of appeal of the claims' dispute.",
        "params": {
          "_claimID": "The ID of the associated claim."
        },
        "returns": {
          "appealCost": "to be paid. Note that this cost doesn't include crowdfunding fees."
        }
      },
      "getChallengeCost(uint256)": {
        "details": "Get the deposit required for challenging the claim.",
        "params": {
          "_claimID": "The ID of the associated claim."
        },
        "returns": {
          "challengeCost": "to be paid."
        }
      },
      "getClaimCost(address,uint256)": {
        "details": "Get the cost of making a claim.",
        "params": {
          "_amount": "The claimed amount.",
          "_marketAddress": "The address of the market to define the token address."
        },
        "returns": {
          "deposit": "The fraction of the claimed amount converted into ETH."
        }
      },
      "getClaimantDeposit(address,uint256)": {
        "details": "Get the required deposit for the claimant.",
        "params": {
          "_amount": "The amount to convert into ETH.",
          "_marketAddress": "The address of the market to define the token address."
        },
        "returns": {
          "_0": "The deposit the claimant has to pay."
        }
      },
      "getContributions(uint256,uint256,address)": {
        "details": "Get the contributions made by a party for a given round of a dispute.",
        "params": {
          "_contributor": "The address of the contributor.",
          "_localDisputeID": "The index of the dispute in the array of disputes.",
          "_round": "The round to query."
        },
        "returns": {
          "contributions": "The contributions."
        }
      },
      "getMultipliers()": {
        "details": "Returns stake multipliers.",
        "returns": {
          "_loserAppealPeriodMultiplier": "Multiplier for calculating the duration of the appeal period for losing side. This contract uses default 1/2 of normal period.",
          "_loserStakeMultiplier": "Losers stake multiplier.",
          "_winnerStakeMultiplier": "Winners stake multiplier.",
          "divisor": "Multiplier divisor in basis points."
        }
      },
      "getNumberOfRounds(uint256)": {
        "details": "Get the number of rounds of a local disputes.",
        "params": {
          "_localDisputeID": "The index of the dispute in the array of disputes."
        },
        "returns": {
          "_0": "The number of rounds of the dispute."
        }
      },
      "getRoundInfo(uint256,uint256)": {
        "details": "Get the information of a round of a dispute.",
        "params": {
          "_localDisputeID": "The index of the dispute in the array of disputes.",
          "_round": "The round to query."
        },
        "returns": {
          "appealed": "Whether the round was appealed.",
          "feeRewards": "The amount of fees to use as rewards.",
          "paidFees": "Total fees paid in this round.",
          "sideFunded": "The party that paid the appeal fees first."
        }
      },
      "getTotalWithdrawableAmount(uint256,address,uint256[])": {
        "details": "Returns the sum of withdrawable amount. This function is O(n) where n is the number of rounds. This could exceed the gas limit,  therefore this function should be used only as a utility and not be relied upon by other contracts.",
        "params": {
          "_contributor": "The contributor for which to query.",
          "_localDisputeID": "The index of the related dispute in the array of disputes."
        },
        "returns": {
          "sum": "The total amount available to withdraw."
        }
      },
      "initialize(address,bytes,address,string,uint256,uint256,uint256,uint256,uint256,uint256)": {
        "details": "Constructor.",
        "params": {
          "_arbitrator": "The arbitrator of the contract.",
          "_arbitratorExtraData": "Extra data for the arbitrator.",
          "_challengeTimeout": "Time in seconds during which it is possible to challenge a claim.",
          "_claimantMultiplier": "Multiplier for calculating the deposit of the claimant.",
          "_claims": "The address of Claims.sol contract.",
          "_loserStakeMultiplier": "Multiplier of the arbitration cost that the loser has to pay as fee stake for a round in basis points.",
          "_metaEvidence": "The URI of the meta evidence object.",
          "_minimumDeposit": "The minimum deposit the claimant has to pay if the claimed amount is too low.",
          "_readjustmentTimeout": "Time in seconds during which it is possible to readjust the amount of the claim.",
          "_winnerStakeMultiplier": "Multiplier of the arbitration cost that the winner has to pay as fee stake for a round in basis points. Also applies in case of a draw."
        }
      },
      "joinGroupClaim(uint256,uint256)": {
        "details": "Join a new claim group. Can only be called once per claim.",
        "params": {
          "_claimID": "The ID of the claim for which group is to be changed.",
          "_groupClaimId": "The ID of the new claim group."
        }
      },
      "makeNewClaim(address,uint256,bool,string[],uint256)": {
        "details": "Make a new claim in Connector and Claims contracts. Requires the fraction of the claimed amount as a deposit. Accepts enough ETH to cover the deposit, reimburses the rest.",
        "params": {
          "_amount": "The claimed amount.",
          "_dappCover": "True if the claim is covered by the dapp.",
          "_evidences": "A list of links to evidence using its URI. Ignored if not provided. If claim is first of the incident, the incident url has to be the first element",
          "_incidentGroupClaimId": "id connecting all the claims in the same incident, groupClaimId of the first claim in the incident if == uint256(-1) it means that this claim is the first in the incident",
          "_marketAddress": "The address of the market contract claimed"
        }
      },
      "makeNewClaimAndJoinGroup(address,uint256,uint256,string[])": {
        "details": "Make a new claim and join an existing claim group. Requires the fraction of the claimed amount as a deposit. Accepts enough ETH to cover the deposit, reimburses the rest.",
        "params": {
          "_amount": "Claimed amount.",
          "_evidences": "A list of links to evidences using its URIs. Ignored if not provided.",
          "_groupClaimId": "The ID of the group to join in Claims contract.",
          "_marketAddress": "The address of the market contract."
        }
      },
      "numberOfRulingOptions(uint256)": {
        "details": "Returns number of possible ruling options.",
        "returns": {
          "_0": "count The number of ruling options."
        }
      },
      "readjustClaim(uint256,uint256,string[])": {
        "details": "Change the claimed amount. Resets the claim to its initial state and makes it open for a new challenge. Can only be called once per claim and after the claim has been declined.",
        "params": {
          "_claimID": "The ID of the claim which amount to readjust.",
          "_evidences": "A list of links to evidences using its URIs. Ignored if not provided.",
          "_newAmount": "The new amount to claim."
        }
      },
      "refuseClaim(uint256)": {
        "details": "Refuse the claim that wasn't readjusted during the readjustment period.",
        "params": {
          "_claimID": "The ID of the claim."
        }
      },
      "rule(uint256,uint256)": {
        "details": "Give a ruling for a dispute. Can only be called by the arbitrator. TRUSTED. Accounts for the situation where the winner loses a case due to paying less appeal fees than expected.",
        "params": {
          "_disputeID": "ID of the dispute in the arbitrator contract.",
          "_ruling": "Ruling given by the arbitrator. Note that 0 is reserved for \"Refused to arbitrate\"."
        }
      },
      "setClaimsContract(address)": {
        "details": "Set the address of the Claims contract.",
        "params": {
          "_claims": "The address of the Claims contract."
        }
      },
      "setOracle(address,address)": {
        "details": "Map the address of the oracle to a specific token.",
        "params": {
          "_oracle": "The address of the oracle to convert tokens into ETH.",
          "_token": "The address of the token."
        }
      },
      "submitEvidence(uint256,string)": {
        "details": "Submit a reference to evidence. EVENT.",
        "params": {
          "_evidenceURI": "Link to evidence.",
          "_localDisputeID": "The index of the related dispute in the array of disputes."
        }
      },
      "submitMultipleEvidence(uint256,string[])": {
        "details": "Submit a reference to evidence. EVENT. This function accept multiple evidence URIs at once. ",
        "params": {
          "_evidences": "A list of links to evidences using its URIs.",
          "_localDisputeID": "The index of the related dispute in the array of disputes."
        }
      },
      "withdrawFeesAndRewards(uint256,address,uint256,uint256)": {
        "details": "Reimburse contributions if no disputes were raised in Arbitrator contract. If a dispute was raised, send the fee stake rewards and reimbursements proportionally to the contributions made to the winner of a dispute.",
        "params": {
          "_beneficiary": "The address that made contributions.",
          "_localDisputeID": "The index of the related dispute in the array of disputes.",
          "_round": "The round from which to withdraw.",
          "_ruling": "The ruling to withdraw from."
        },
        "returns": {
          "reward": "The withdrawn reward value."
        }
      },
      "withdrawFeesAndRewardsForAllRounds(uint256,address,uint256[])": {
        "details": "Allows to withdraw any rewards or reimbursable fees after the dispute gets resolved. For multiple rulings options and for all rounds at once. This function is O(n) where n is the number of rounds. This could exceed the gas limit, therefore this function should be used only as a utility and not be relied upon by other contracts.",
        "params": {
          "_contributedTo": "Rulings that received contributions from contributor. Not used in this contract.",
          "_contributor": "The address to withdraw rewards for.",
          "_localDisputeID": "The index of the related dispute in the array of disputes."
        }
      },
      "withdrawFeesAndRewardsForMultipleRulings(uint256,address,uint256,uint256[])": {
        "details": "Allows to withdraw any reimbursable fees or rewards after the dispute gets solved for multiple ruling options at once. Note that since this arbitrable contract only has 2 ruling options using this function isn't practical. It's implemented to match Dispute Resolver interface.",
        "params": {
          "_contributor": "The address to withdraw rewards for.",
          "_localDisputeID": "The index of the related dispute in the array of disputes.",
          "_roundNumber": "The number of the round caller wants to withdraw from."
        }
      }
    },
    "title": "KlerosConnector"
  },
  "userdoc": {
    "methods": {}
  }
}