{
  "contractName": "MultipleArbitrableTransaction",
  "abi": [
    {
      "constant": true,
      "inputs": [],
      "name": "arbitratorExtraData",
      "outputs": [
        {
          "name": "",
          "type": "bytes"
        }
      ],
      "payable": false,
      "stateMutability": "view",
      "type": "function"
    },
    {
      "constant": true,
      "inputs": [
        {
          "name": "",
          "type": "uint256"
        }
      ],
      "name": "disputeIDtoTransactionID",
      "outputs": [
        {
          "name": "",
          "type": "uint256"
        }
      ],
      "payable": false,
      "stateMutability": "view",
      "type": "function"
    },
    {
      "constant": true,
      "inputs": [],
      "name": "arbitrator",
      "outputs": [
        {
          "name": "",
          "type": "address"
        }
      ],
      "payable": false,
      "stateMutability": "view",
      "type": "function"
    },
    {
      "constant": true,
      "inputs": [
        {
          "name": "",
          "type": "uint256"
        }
      ],
      "name": "transactions",
      "outputs": [
        {
          "name": "sender",
          "type": "address"
        },
        {
          "name": "receiver",
          "type": "address"
        },
        {
          "name": "amount",
          "type": "uint256"
        },
        {
          "name": "timeoutPayment",
          "type": "uint256"
        },
        {
          "name": "disputeId",
          "type": "uint256"
        },
        {
          "name": "senderFee",
          "type": "uint256"
        },
        {
          "name": "receiverFee",
          "type": "uint256"
        },
        {
          "name": "lastInteraction",
          "type": "uint256"
        },
        {
          "name": "status",
          "type": "uint8"
        },
        {
          "name": "arbitrationCost",
          "type": "uint256"
        }
      ],
      "payable": false,
      "stateMutability": "view",
      "type": "function"
    },
    {
      "constant": true,
      "inputs": [],
      "name": "feeTimeout",
      "outputs": [
        {
          "name": "",
          "type": "uint256"
        }
      ],
      "payable": false,
      "stateMutability": "view",
      "type": "function"
    },
    {
      "inputs": [
        {
          "name": "_arbitrator",
          "type": "address"
        },
        {
          "name": "_arbitratorExtraData",
          "type": "bytes"
        },
        {
          "name": "_feeTimeout",
          "type": "uint256"
        }
      ],
      "payable": false,
      "stateMutability": "nonpayable",
      "type": "constructor"
    },
    {
      "anonymous": false,
      "inputs": [
        {
          "indexed": true,
          "name": "_metaEvidenceID",
          "type": "uint256"
        },
        {
          "indexed": false,
          "name": "_evidence",
          "type": "string"
        }
      ],
      "name": "MetaEvidence",
      "type": "event"
    },
    {
      "anonymous": false,
      "inputs": [
        {
          "indexed": true,
          "name": "_transactionID",
          "type": "uint256"
        },
        {
          "indexed": false,
          "name": "_party",
          "type": "uint8"
        }
      ],
      "name": "HasToPayFee",
      "type": "event"
    },
    {
      "anonymous": false,
      "inputs": [
        {
          "indexed": true,
          "name": "_arbitrator",
          "type": "address"
        },
        {
          "indexed": true,
          "name": "_disputeID",
          "type": "uint256"
        },
        {
          "indexed": true,
          "name": "_party",
          "type": "address"
        },
        {
          "indexed": false,
          "name": "_evidence",
          "type": "string"
        }
      ],
      "name": "Evidence",
      "type": "event"
    },
    {
      "anonymous": false,
      "inputs": [
        {
          "indexed": true,
          "name": "_arbitrator",
          "type": "address"
        },
        {
          "indexed": true,
          "name": "_disputeID",
          "type": "uint256"
        },
        {
          "indexed": false,
          "name": "_metaEvidenceID",
          "type": "uint256"
        }
      ],
      "name": "Dispute",
      "type": "event"
    },
    {
      "anonymous": false,
      "inputs": [
        {
          "indexed": true,
          "name": "_arbitrator",
          "type": "address"
        },
        {
          "indexed": true,
          "name": "_disputeID",
          "type": "uint256"
        },
        {
          "indexed": false,
          "name": "_ruling",
          "type": "uint256"
        }
      ],
      "name": "Ruling",
      "type": "event"
    },
    {
      "constant": false,
      "inputs": [
        {
          "name": "_timeoutPayment",
          "type": "uint256"
        },
        {
          "name": "_sender",
          "type": "address"
        },
        {
          "name": "_metaEvidence",
          "type": "string"
        }
      ],
      "name": "createTransaction",
      "outputs": [
        {
          "name": "transactionID",
          "type": "uint256"
        }
      ],
      "payable": true,
      "stateMutability": "payable",
      "type": "function"
    },
    {
      "constant": false,
      "inputs": [
        {
          "name": "_transactionID",
          "type": "uint256"
        },
        {
          "name": "_amount",
          "type": "uint256"
        }
      ],
      "name": "pay",
      "outputs": [],
      "payable": false,
      "stateMutability": "nonpayable",
      "type": "function"
    },
    {
      "constant": false,
      "inputs": [
        {
          "name": "_transactionID",
          "type": "uint256"
        },
        {
          "name": "_amountReimbursed",
          "type": "uint256"
        }
      ],
      "name": "reimburse",
      "outputs": [],
      "payable": false,
      "stateMutability": "nonpayable",
      "type": "function"
    },
    {
      "constant": false,
      "inputs": [
        {
          "name": "_transactionID",
          "type": "uint256"
        }
      ],
      "name": "executeTransaction",
      "outputs": [],
      "payable": false,
      "stateMutability": "nonpayable",
      "type": "function"
    },
    {
      "constant": false,
      "inputs": [
        {
          "name": "_transactionID",
          "type": "uint256"
        }
      ],
      "name": "timeOutByReceiver",
      "outputs": [],
      "payable": false,
      "stateMutability": "nonpayable",
      "type": "function"
    },
    {
      "constant": false,
      "inputs": [
        {
          "name": "_transactionID",
          "type": "uint256"
        }
      ],
      "name": "timeOutBySender",
      "outputs": [],
      "payable": false,
      "stateMutability": "nonpayable",
      "type": "function"
    },
    {
      "constant": false,
      "inputs": [
        {
          "name": "_transactionID",
          "type": "uint256"
        }
      ],
      "name": "payArbitrationFeeByReceiver",
      "outputs": [],
      "payable": true,
      "stateMutability": "payable",
      "type": "function"
    },
    {
      "constant": false,
      "inputs": [
        {
          "name": "_transactionID",
          "type": "uint256"
        }
      ],
      "name": "payArbitrationFeeBySender",
      "outputs": [],
      "payable": true,
      "stateMutability": "payable",
      "type": "function"
    },
    {
      "constant": false,
      "inputs": [
        {
          "name": "_transactionID",
          "type": "uint256"
        },
        {
          "name": "_evidence",
          "type": "string"
        }
      ],
      "name": "submitEvidence",
      "outputs": [],
      "payable": false,
      "stateMutability": "nonpayable",
      "type": "function"
    },
    {
      "constant": false,
      "inputs": [
        {
          "name": "_transactionID",
          "type": "uint256"
        }
      ],
      "name": "appeal",
      "outputs": [],
      "payable": true,
      "stateMutability": "payable",
      "type": "function"
    },
    {
      "constant": false,
      "inputs": [
        {
          "name": "_disputeID",
          "type": "uint256"
        },
        {
          "name": "_ruling",
          "type": "uint256"
        }
      ],
      "name": "rule",
      "outputs": [],
      "payable": false,
      "stateMutability": "nonpayable",
      "type": "function"
    },
    {
      "constant": true,
      "inputs": [],
      "name": "getCountTransactions",
      "outputs": [
        {
          "name": "countTransactions",
          "type": "uint256"
        }
      ],
      "payable": false,
      "stateMutability": "view",
      "type": "function"
    },
    {
      "constant": true,
      "inputs": [
        {
          "name": "_address",
          "type": "address"
        }
      ],
      "name": "getTransactionIDsByAddress",
      "outputs": [
        {
          "name": "transactionIDs",
          "type": "uint256[]"
        }
      ],
      "payable": false,
      "stateMutability": "view",
      "type": "function"
    }
  ],
  "bytecode": "0x60806040523480156200001157600080fd5b50604051620020fd380380620020fd83398101604090815281516020808401519284015160028054600160a060020a031916600160a060020a03851617905592909301805191939092916200006d91600191908501906200007a565b50600355506200011f9050565b828054600181600116156101000203166002900490600052602060002090601f016020900481019282601f10620000bd57805160ff1916838001178555620000ed565b82800160010185558215620000ed579182015b82811115620000ed578251825591602001919060010190620000d0565b50620000fb929150620000ff565b5090565b6200011c91905b80821115620000fb576000815560010162000106565b90565b611fce806200012f6000396000f3006080604052600436106100fb5763ffffffff7c01000000000000000000000000000000000000000000000000000000006000350416630c7ac7b681146101005780632fbe3b031461018a578063311a6c56146101b45780633de0c7ef146101d15780636cc6cde1146101e95780636e72b4521461021a5780637b44cdb5146102255780637e69b7b0146102305780639ace38c21461023b578063a527aa6a146102da578063a6a7f0eb146102ef578063b329036b1461034d578063da8c3eac14610362578063ee22610b146103be578063ef48eee6146103d6578063f42cadc1146103f1578063f94cdf9614610409578063fe43a9921461047a575b600080fd5b34801561010c57600080fd5b50610115610495565b6040805160208082528351818301528351919283929083019185019080838360005b8381101561014f578181015183820152602001610137565b50505050905090810190601f16801561017c5780820380516001836020036101000a031916815260200191505b509250505060405180910390f35b34801561019657600080fd5b506101a2600435610522565b60408051918252519081900360200190f35b3480156101c057600080fd5b506101cf600435602435610534565b005b3480156101dd57600080fd5b506101cf6004356106c5565b3480156101f557600080fd5b506101fe6107e6565b60408051600160a060020a039092168252519081900360200190f35b6101cf6004356107f5565b6101cf600435610b38565b6101cf600435610e55565b34801561024757600080fd5b50610253600435610f7d565b604051808b600160a060020a0316600160a060020a031681526020018a600160a060020a0316600160a060020a031681526020018981526020018881526020018781526020018681526020018581526020018481526020018360048111156102b757fe5b60ff1681526020018281526020019a505050505050505050505060405180910390f35b3480156102e657600080fd5b506101a2610fef565b3480156102fb57600080fd5b5060408051602060046024803582810135601f81018590048502860185019096528585526101cf958335953695604494919390910191908190840183828082843750949750610ff59650505050505050565b34801561035957600080fd5b506101a26111fa565b604080516020600460443581810135601f81018490048402850184019095528484526101a29482359460248035600160a060020a0316953695946064949201919081908401838280828437509497506112009650505050505050565b3480156103ca57600080fd5b506101cf6004356113eb565b3480156103e257600080fd5b506101cf600435602435611555565b3480156103fd57600080fd5b506101cf600435611737565b34801561041557600080fd5b5061042a600160a060020a0360043516611854565b60408051602080825283518183015283519192839290830191858101910280838360005b8381101561046657818101518382015260200161044e565b505050509050019250505060405180910390f35b34801561048657600080fd5b506101cf6004356024356119d4565b60018054604080516020600284861615610100026000190190941693909304601f8101849004840282018401909252818152929183018282801561051a5780601f106104ef5761010080835404028352916020019161051a565b820191906000526020600020905b8154815290600101906020018083116104fd57829003601f168201915b505050505081565b60046020526000908152604090205481565b600082815260046020526040812054815490919081908390811061055457fe5b60009182526020909120600254600a909202019150600160a060020a031633146105ee576040805160e560020a62461bcd02815260206004820152602260248201527f5468652063616c6c6572206d757374206265207468652061726269747261746f60448201527f722e000000000000000000000000000000000000000000000000000000000000606482015290519081900360840190fd5b6003600882015460ff16600481111561060357fe5b1461067e576040805160e560020a62461bcd02815260206004820152602660248201527f54686520646973707574652068617320616c7265616479206265656e2072657360448201527f6f6c7665642e0000000000000000000000000000000000000000000000000000606482015290519081900360840190fd5b604080518481529051859133917f394027a5fa6e098a1191094d1719d6929b9abc535fcc0c8f448d6a4e756222769181900360200190a36106bf8284611bcc565b50505050565b600080828154811015156106d557fe5b60009182526020909120600a9091020190506001600882015460ff1660048111156106fc57fe5b14610777576040805160e560020a62461bcd02815260206004820152602d60248201527f546865207472616e73616374696f6e206973206e6f742077616974696e67206f60448201527f6e207468652073656e6465722e00000000000000000000000000000000000000606482015290519081900360840190fd5b6003546007820154420310156107d7576040805160e560020a62461bcd02815260206004820181905260248201527f54696d656f75742074696d6520686173206e6f7420706173736564207965742e604482015290519081900360640190fd5b6107e2826001611bcc565b5050565b600254600160a060020a031681565b60008060008381548110151561080757fe5b6000918252602091829020600280546040517ff7434ea90000000000000000000000000000000000000000000000000000000081526004810195865260018054600019818316156101000201169390930460248201819052600a9095029093019650600160a060020a03169363f7434ea99391929091829160440190849080156108d25780601f106108a7576101008083540402835291602001916108d2565b820191906000526020600020905b8154815290600101906020018083116108b557829003601f168201915b505092505050602060405180830381600087803b1580156108f257600080fd5b505af1158015610906573d6000803e3d6000fd5b505050506040513d602081101561091c57600080fd5b505190506003600883015460ff16600481111561093557fe5b106109d6576040805160e560020a62461bcd02815260206004820152604e60248201527f446973707574652068617320616c7265616479206265656e206372656174656460448201527f206f72206265636175736520746865207472616e73616374696f6e206861732060648201527f6265656e2065786563757465642e000000000000000000000000000000000000608482015290519081900360a40190fd5b6001820154600160a060020a03163314610a3a576040805160e560020a62461bcd02815260206004820181905260248201527f5468652063616c6c6572206d757374206265207468652072656365697665722e604482015290519081900360640190fd5b600682018054340190819055811115610ac3576040805160e560020a62461bcd02815260206004820152602e60248201527f54686520726563656976657220666565206d75737420636f766572206172626960448201527f74726174696f6e20636f7374732e000000000000000000000000000000000000606482015290519081900360840190fd5b4260078301556005820154811115610b295760088201805460ff1916600117905560405183907fc74b9f7dedf2887cd3c113b6d8da9cea19e55c1116e25f1f0e1b72d7543179b59060009080825b60ff16815260200191505060405180910390a2610b33565b610b338382611d66565b505050565b600080600083815481101515610b4a57fe5b6000918252602091829020600280546040517ff7434ea90000000000000000000000000000000000000000000000000000000081526004810195865260018054600019818316156101000201169390930460248201819052600a9095029093019650600160a060020a03169363f7434ea9939192909182916044019084908015610c155780601f10610bea57610100808354040283529160200191610c15565b820191906000526020600020905b815481529060010190602001808311610bf857829003601f168201915b505092505050602060405180830381600087803b158015610c3557600080fd5b505af1158015610c49573d6000803e3d6000fd5b505050506040513d6020811015610c5f57600080fd5b505190506003600883015460ff166004811115610c7857fe5b10610d19576040805160e560020a62461bcd02815260206004820152604e60248201527f446973707574652068617320616c7265616479206265656e206372656174656460448201527f206f72206265636175736520746865207472616e73616374696f6e206861732060648201527f6265656e2065786563757465642e000000000000000000000000000000000000608482015290519081900360a40190fd5b8154600160a060020a03163314610d7a576040805160e560020a62461bcd02815260206004820152601e60248201527f5468652063616c6c6572206d757374206265207468652073656e6465722e0000604482015290519081900360640190fd5b600582018054340190819055811115610e03576040805160e560020a62461bcd02815260206004820152602c60248201527f5468652073656e64657220666565206d75737420636f7665722061726269747260448201527f6174696f6e20636f7374732e0000000000000000000000000000000000000000606482015290519081900360840190fd5b4260078301556006820154811115610b295760088201805460ff1916600217905560405183907fc74b9f7dedf2887cd3c113b6d8da9cea19e55c1116e25f1f0e1b72d7543179b5906001908082610b11565b60008082815481101515610e6557fe5b60009182526020909120600280546004600a90940290920183810154604080517f49912f880000000000000000000000000000000000000000000000000000000081529586018281526024870191825260018054600019818316156101000201169590950460448801819052939750600160a060020a03909516956349912f8895349593949092916064019084908015610f405780601f10610f1557610100808354040283529160200191610f40565b820191906000526020600020905b815481529060010190602001808311610f2357829003601f168201915b505093505050506000604051808303818588803b158015610f6057600080fd5b505af1158015610f74573d6000803e3d6000fd5b50505050505050565b6000805482908110610f8b57fe5b60009182526020909120600a90910201805460018201546002830154600384015460048501546005860154600687015460078801546008890154600990990154600160a060020a039889169a509790961697949693959294919390929160ff16908a565b60005490565b6000808381548110151561100557fe5b60009182526020909120600a909102016001810154909150600160a060020a031633148061103c57508054600160a060020a031633145b15156110b8576040805160e560020a62461bcd02815260206004820152602e60248201527f5468652063616c6c6572206d757374206265207468652072656365697665722060448201527f6f72207468652073656e6465722e000000000000000000000000000000000000606482015290519081900360840190fd5b6003600882015460ff1660048111156110cd57fe5b1015611149576040805160e560020a62461bcd02815260206004820152602560248201527f546865206469737075746520686173206e6f74206265656e206372656174656460448201527f207965742e000000000000000000000000000000000000000000000000000000606482015290519081900360840190fd5b60048101546002546040805160208082528651818301528651339594600160a060020a0316937fdccf2f8b2cc26eafcd61905cba744cff4b81d14740725f6376390dc6298a6a3c9389939092839283019185019080838360005b838110156111bb5781810151838201526020016111a3565b50505050905090810190601f1680156111e85780820380516001836020036101000a031916815260200191505b509250505060405180910390a4505050565b60035481565b6000806101406040519081016040528085600160a060020a0316815260200133600160a060020a031681526020013481526020018681526020016000815260200160008152602001600081526020014281526020016000600481111561126257fe5b81526000602091820181905283546001818101808755958352918390208451600a909202018054600160a060020a0392831673ffffffffffffffffffffffffffffffffffffffff199182161782559385015181840180549190931694169390931790556040830151600283015560608301516003830155608083015160048084019190915560a0840151600584015560c0840151600684015560e084015160078401556101008401516008840180549193909260ff1990921691849081111561132757fe5b021790555061012082015181600901555050506001600080549050037f61606860eb6c87306811e2695215385101daab53bd6ab4e9f9049aead9363c7d836040518080602001828103825283818151815260200191508051906020019080838360005b838110156113a257818101518382015260200161138a565b50505050905090810190601f1680156113cf5780820380516001836020036101000a031916815260200191505b509250505060405180910390a250600054600019019392505050565b600080828154811015156113fb57fe5b90600052602060002090600a020190508060030154816007015442031015151561146f576040805160e560020a62461bcd02815260206004820152601f60248201527f5468652074696d656f757420686173206e6f7420706173736564207965742e00604482015290519081900360640190fd5b6000600882015460ff16600481111561148457fe5b146114ff576040805160e560020a62461bcd02815260206004820152602260248201527f546865207472616e73616374696f6e2063616e2774206265206469737075746560448201527f642e000000000000000000000000000000000000000000000000000000000000606482015290519081900360840190fd5b80546002820154604051600160a060020a039092169181156108fc0291906000818181858888f1935050505015801561153c573d6000803e3d6000fd5b5060006002820155600801805460ff1916600417905550565b6000808381548110151561156557fe5b600091825260209091206001600a9092020190810154909150600160a060020a031633146115dd576040805160e560020a62461bcd02815260206004820181905260248201527f5468652063616c6c6572206d757374206265207468652072656365697665722e604482015290519081900360640190fd5b6000600882015460ff1660048111156115f257fe5b1461166d576040805160e560020a62461bcd02815260206004820152602260248201527f546865207472616e73616374696f6e2063616e2774206265206469737075746560448201527f642e000000000000000000000000000000000000000000000000000000000000606482015290519081900360840190fd5b60028101548211156116ef576040805160e560020a62461bcd02815260206004820152602481018290527f54686520616d6f756e7420706169642068617320746f206265206c657373207460448201527f68616e206f7220657175616c20746f20746865207472616e73616374696f6e2e606482015290519081900360840190fd5b8054604051600160a060020a039091169083156108fc029084906000818181858888f19350505050158015611728573d6000803e3d6000fd5b50600201805491909103905550565b6000808281548110151561174757fe5b60009182526020909120600a9091020190506002600882015460ff16600481111561176e57fe5b146117e9576040805160e560020a62461bcd02815260206004820152602f60248201527f546865207472616e73616374696f6e206973206e6f742077616974696e67206f60448201527f6e207468652072656365697665722e0000000000000000000000000000000000606482015290519081900360840190fd5b600354600782015442031015611849576040805160e560020a62461bcd02815260206004820181905260248201527f54696d656f75742074696d6520686173206e6f7420706173736564207965742e604482015290519081900360640190fd5b6107e2826002611bcc565b6060600080805b6000548210156118ee5784600160a060020a031660008381548110151561187e57fe5b60009182526020909120600a9091020154600160a060020a031614806118d7575084600160a060020a03166000838154811015156118b857fe5b600091825260209091206001600a909202010154600160a060020a0316145b156118e3576001909201915b60019091019061185b565b82604051908082528060200260200182016040528015611918578160200160208202803883390190505b50935060009250600090505b6000548110156119cc5784600160a060020a031660008281548110151561194757fe5b60009182526020909120600a9091020154600160a060020a031614806119a0575084600160a060020a031660008281548110151561198157fe5b600091825260209091206001600a909202010154600160a060020a0316145b156119c45783516001840193829186919081106119b957fe5b602090810290910101525b600101611924565b505050919050565b600080838154811015156119e457fe5b60009182526020909120600a909102018054909150600160a060020a03163314611a58576040805160e560020a62461bcd02815260206004820152601e60248201527f5468652063616c6c6572206d757374206265207468652073656e6465722e0000604482015290519081900360640190fd5b6000600882015460ff166004811115611a6d57fe5b14611ae8576040805160e560020a62461bcd02815260206004820152602260248201527f546865207472616e73616374696f6e2063616e2774206265206469737075746560448201527f642e000000000000000000000000000000000000000000000000000000000000606482015290519081900360840190fd5b6002810154821115611b90576040805160e560020a62461bcd02815260206004820152604360248201527f54686520616d6f756e74207265696d6275727365642068617320746f2062652060448201527f6c657373206f7220657175616c207468616e20746865207472616e736163746960648201527f6f6e2e0000000000000000000000000000000000000000000000000000000000608482015290519081900360a40190fd5b6001810154604051600160a060020a039091169083156108fc029084906000818181858888f19350505050158015611728573d6000803e3d6000fd5b600080600084815481101515611bde57fe5b60009182526020909120600a9091020191506002831115611c49576040805160e560020a62461bcd02815260206004820152600f60248201527f496e76616c69642072756c696e672e0000000000000000000000000000000000604482015290519081900360640190fd5b6002831415611c8a57815460028301546005840154604051600160a060020a0390931692910180156108fc02916000818181858888f1935050505050611d3e565b6001831415611cce57600182015460028301546006840154604051600160a060020a0390931692910180156108fc02916000818181858888f1935050505050611d3e565b6002828101546009840154600685015460058601540103016001840154604051929091049250600160a060020a03169082156108fc029083906000818181858888f150508454604051600160a060020a03909116935084156108fc0292508491506000818181858888f150505050505b50600060028201819055600582018190556006820155600801805460ff191660041790555050565b60008060008085815481101515611d7957fe5b600091825260209091206008600a90920201908101805460ff191660031790556009810185905560028054604080517fc13517e10000000000000000000000000000000000000000000000000000000081526004810184815260248201928352600180546101008183161502600019011686900460448401819052969950600160a060020a039094169563c13517e1958b9590949093909160649091019084908015611e665780601f10611e3b57610100808354040283529160200191611e66565b820191906000526020600020905b815481529060010190602001808311611e4957829003601f168201915b505093505050506020604051808303818588803b158015611e8657600080fd5b505af1158015611e9a573d6000803e3d6000fd5b50505050506040513d6020811015611eb157600080fd5b505160048085018281556000928352602091825260409283902088905554600254835189815293519193600160a060020a03909116927fc21357d76c2ee05713ed6e2edb9a5f60ab1e8748c56201385df30007f774f58d92918290030190a38383600501541115611f5357600583018054908590558354604051918690039350600160a060020a03169083156108fc029084906000818181858888f150505050505b8383600601541115611f9b57506006820180549084905560018301546040519185900391600160a060020a039091169082156108fc029083906000818181858888f150505050505b50505050505600a165627a7a72305820567759426ff390833b9d9282af5724bffba2af775e8a4cac0c531ca3e82e81e70029",
  "source": "/**\n *  @authors: [@eburgos, @n1c01a5]\n *  @reviewers: [@unknownunknown1, @clesaege*, @ferittuncer]\n *  @auditors: []\n *  @bounties: []\n *  @deployments: []\n */\n\npragma solidity ^0.4.24;\n\nimport \"./Arbitrator.sol\";\n\ncontract MultipleArbitrableTransaction {\n\n    // **************************** //\n    // *    Contract variables    * //\n    // **************************** //\n\n    uint8 constant AMOUNT_OF_CHOICES = 2;\n    uint8 constant RECEIVER_WINS = 1;\n    uint8 constant SENDER_WINS = 2;\n\n    enum Party {Sender, Receiver}\n    enum Status {NoDispute, WaitingSender, WaitingReceiver, DisputeCreated, Resolved}\n\n    struct Transaction {\n        address sender;\n        address receiver;\n        uint256 amount;\n        uint256 timeoutPayment; // Time in seconds after which the transaction can be automatically executed if not disputed.\n        uint disputeId; // If dispute exists, the ID of the dispute.\n        uint senderFee; // Total fees paid by the sender.\n        uint receiverFee; // Total fees paid by the receiver.\n        uint lastInteraction; // Last interaction for the dispute procedure.\n        Status status;\n        uint arbitrationCost;\n    }\n\n    Transaction[] public transactions;\n    bytes public arbitratorExtraData; // Extra data to set up the arbitration.\n    Arbitrator public arbitrator; // Address of the arbitrator contract.\n    uint public feeTimeout; // Time in seconds a party can take to pay arbitration fees before being considered unresponding and lose the dispute.\n\n\n    mapping (uint => uint) public disputeIDtoTransactionID; // One-to-one relationship between the dispute and the transaction.\n\n    // **************************** //\n    // *          Events          * //\n    // **************************** //\n\n    /** @dev To be emitted when meta-evidence is submitted.\n     *  @param _metaEvidenceID Unique identifier of meta-evidence. Should be the `transactionID`.\n     *  @param _evidence A link to the meta-evidence JSON that follows the ERC 1497 Evidence standard (https://github.com/ethereum/EIPs/issues/1497).\n     */\n    event MetaEvidence(uint indexed _metaEvidenceID, string _evidence);\n\n    /** @dev Indicate that a party has to pay a fee or would otherwise be considered as losing.\n     *  @param _transactionID The index of the transaction.\n     *  @param _party The party who has to pay.\n     */\n    event HasToPayFee(uint indexed _transactionID, Party _party);\n\n    /** @dev To be raised when evidence is submitted. Should point to the resource (evidences are not to be stored on chain due to gas considerations).\n     *  @param _arbitrator The arbitrator of the contract.\n     *  @param _disputeID ID of the dispute in the Arbitrator contract.\n     *  @param _party The address of the party submitting the evidence. Note that 0 is kept for evidences not submitted by any party.\n     *  @param _evidence A link to an evidence JSON that follows the ERC 1497 Evidence standard (https://github.com/ethereum/EIPs/issues/1497).\n     */\n    event Evidence(Arbitrator indexed _arbitrator, uint indexed _disputeID, address indexed _party, string _evidence);\n\n    /** @dev To be emitted when a dispute is created to link the correct meta-evidence to the disputeID.\n     *  @param _arbitrator The arbitrator of the contract.\n     *  @param _disputeID ID of the dispute in the Arbitrator contract.\n     *  @param _metaEvidenceID Unique identifier of meta-evidence. Should be the transactionID.\n     */\n    event Dispute(Arbitrator indexed _arbitrator, uint indexed _disputeID, uint _metaEvidenceID);\n\n    /** @dev To be raised when a ruling is given.\n     *  @param _arbitrator The arbitrator giving the ruling.\n     *  @param _disputeID ID of the dispute in the Arbitrator contract.\n     *  @param _ruling The ruling which was given.\n     */\n    event Ruling(Arbitrator indexed _arbitrator, uint indexed _disputeID, uint _ruling);\n\n    // **************************** //\n    // *    Arbitrable functions  * //\n    // *    Modifying the state   * //\n    // **************************** //\n\n    /** @dev Constructor.\n     *  @param _arbitrator The arbitrator of the contract.\n     *  @param _arbitratorExtraData Extra data for the arbitrator.\n     *  @param _feeTimeout Arbitration fee timeout for the parties.\n     */\n    constructor (\n        Arbitrator _arbitrator,\n        bytes _arbitratorExtraData,\n        uint _feeTimeout\n    ) public {\n        arbitrator = _arbitrator;\n        arbitratorExtraData = _arbitratorExtraData;\n        feeTimeout = _feeTimeout;\n    }\n\n    /** @dev Create a transaction.\n     *  @param _timeoutPayment Time after which a party can automatically execute the arbitrable transaction.\n     *  @param _sender The recipient of the transaction.\n     *  @param _metaEvidence Link to the meta-evidence.\n     *  @return transactionID The index of the transaction.\n     */\n    function createTransaction(\n        uint _timeoutPayment,\n        address _sender,\n        string _metaEvidence\n    ) public payable returns (uint transactionID) {\n        transactions.push(Transaction({\n            sender: _sender,\n            receiver: msg.sender,\n            amount: msg.value,\n            timeoutPayment: _timeoutPayment,\n            disputeId: 0,\n            senderFee: 0,\n            receiverFee: 0,\n            lastInteraction: now,\n            status: Status.NoDispute,\n            arbitrationCost: 0\n        }));\n        emit MetaEvidence(transactions.length - 1, _metaEvidence);\n        return transactions.length - 1;\n    }\n\n    /** @dev Pay sender. To be called if the good or service is provided.\n     *  @param _transactionID The index of the transaction.\n     *  @param _amount Amount to pay in wei.\n     */\n    function pay(uint _transactionID, uint _amount) public {\n        Transaction storage transaction = transactions[_transactionID];\n        require(transaction.receiver == msg.sender, \"The caller must be the receiver.\");\n        require(transaction.status == Status.NoDispute, \"The transaction can't be disputed.\");\n        require(_amount <= transaction.amount, \"The amount paid has to be less than or equal to the transaction.\");\n\n        transaction.sender.transfer(_amount);\n        transaction.amount -= _amount;\n    }\n\n    /** @dev Reimburse receiver. To be called if the good or service can't be fully provided.\n     *  @param _transactionID The index of the transaction.\n     *  @param _amountReimbursed Amount to reimburse in wei.\n     */\n    function reimburse(uint _transactionID, uint _amountReimbursed) public {\n        Transaction storage transaction = transactions[_transactionID];\n        require(transaction.sender == msg.sender, \"The caller must be the sender.\");\n        require(transaction.status == Status.NoDispute, \"The transaction can't be disputed.\");\n        require(_amountReimbursed <= transaction.amount, \"The amount reimbursed has to be less or equal than the transaction.\");\n\n        transaction.receiver.transfer(_amountReimbursed);\n        transaction.amount -= _amountReimbursed;\n    }\n\n    /** @dev Transfer the transaction's amount to the sender if the timeout has passed.\n     *  @param _transactionID The index of the transaction.\n     */\n    function executeTransaction(uint _transactionID) public {\n        Transaction storage transaction = transactions[_transactionID];\n        require(now - transaction.lastInteraction >= transaction.timeoutPayment, \"The timeout has not passed yet.\");\n        require(transaction.status == Status.NoDispute, \"The transaction can't be disputed.\");\n\n        transaction.sender.transfer(transaction.amount);\n        transaction.amount = 0;\n\n        transaction.status = Status.Resolved;\n    }\n\n    /** @dev Reimburse receiver if sender fails to pay the fee.\n     *  @param _transactionID The index of the transaction.\n     */\n    function timeOutByReceiver(uint _transactionID) public {\n        Transaction storage transaction = transactions[_transactionID];\n\n        require(transaction.status == Status.WaitingSender, \"The transaction is not waiting on the sender.\");\n        require(now - transaction.lastInteraction >= feeTimeout, \"Timeout time has not passed yet.\");\n\n        executeRuling(_transactionID, RECEIVER_WINS);\n    }\n\n    /** @dev Pay sender if receiver fails to pay the fee.\n     *  @param _transactionID The index of the transaction.\n     */\n    function timeOutBySender(uint _transactionID) public {\n        Transaction storage transaction = transactions[_transactionID];\n\n        require(transaction.status == Status.WaitingReceiver, \"The transaction is not waiting on the receiver.\");\n        require(now - transaction.lastInteraction >= feeTimeout, \"Timeout time has not passed yet.\");\n\n        executeRuling(_transactionID, SENDER_WINS);\n    }\n\n    /** @dev Pay the arbitration fee to raise a dispute. To be called by the receiver. UNTRUSTED.\n     *  Note that this function mirrors payArbitrationFeeBySender.\n     *  @param _transactionID The index of the transaction.\n     */\n    function payArbitrationFeeByReceiver(uint _transactionID) public payable {\n        Transaction storage transaction = transactions[_transactionID];\n        uint arbitrationCost = arbitrator.arbitrationCost(arbitratorExtraData);\n\n        require(transaction.status < Status.DisputeCreated, \"Dispute has already been created or because the transaction has been executed.\");\n        require(msg.sender == transaction.receiver, \"The caller must be the receiver.\");\n\n        transaction.receiverFee += msg.value;\n        // Require that the total paid to be at least the arbitration cost.\n        require(transaction.receiverFee >= arbitrationCost, \"The receiver fee must cover arbitration costs.\");\n\n        transaction.lastInteraction = now;\n        // The sender still has to pay. This can also happen if he has paid, but arbitrationCost has increased.\n        if (transaction.senderFee < arbitrationCost) {\n            transaction.status = Status.WaitingSender;\n            emit HasToPayFee(_transactionID, Party.Sender);\n        } else { // The receiver has also paid the fee. We create the dispute\n            raiseDispute(_transactionID, arbitrationCost);\n        }\n    }\n\n    /** @dev Pay the arbitration fee to raise a dispute. To be called by the sender. UNTRUSTED.\n     *  Note that the arbitrator can have createDispute throw, which will make this function throw and therefore lead to a party being timed-out.\n     *  This is not a vulnerability as the arbitrator can rule in favor of one party anyway.\n     *  @param _transactionID The index of the transaction.\n     */\n    function payArbitrationFeeBySender(uint _transactionID) public payable {\n        Transaction storage transaction = transactions[_transactionID];\n        uint arbitrationCost = arbitrator.arbitrationCost(arbitratorExtraData);\n\n        require(transaction.status < Status.DisputeCreated, \"Dispute has already been created or because the transaction has been executed.\");\n        require(msg.sender == transaction.sender, \"The caller must be the sender.\");\n\n        transaction.senderFee += msg.value;\n        // Require that the total pay at least the arbitration cost.\n        require(transaction.senderFee >= arbitrationCost, \"The sender fee must cover arbitration costs.\");\n\n        transaction.lastInteraction = now;\n\n        // The receiver still has to pay. This can also happen if he has paid, but arbitrationCost has increased.\n        if (transaction.receiverFee < arbitrationCost) {\n            transaction.status = Status.WaitingReceiver;\n            emit HasToPayFee(_transactionID, Party.Receiver);\n        } else { // The sender has also paid the fee. We create the dispute\n            raiseDispute(_transactionID, arbitrationCost);\n        }\n    }\n\n    /** @dev Create a dispute. UNTRUSTED.\n     *  @param _transactionID The index of the transaction.\n     *  @param _arbitrationCost Amount to pay the arbitrator.\n     */\n    function raiseDispute(uint _transactionID, uint _arbitrationCost) internal {\n        Transaction storage transaction = transactions[_transactionID];\n        transaction.status = Status.DisputeCreated;\n        transaction.arbitrationCost = _arbitrationCost;\n        transaction.disputeId = arbitrator.createDispute.value(_arbitrationCost)(AMOUNT_OF_CHOICES, arbitratorExtraData);\n        disputeIDtoTransactionID[transaction.disputeId] = _transactionID;\n        emit Dispute(arbitrator, transaction.disputeId, _transactionID);\n\n        // Refund sender if it overpaid.\n        if (transaction.senderFee > _arbitrationCost) {\n            uint extraFeeSender = transaction.senderFee - _arbitrationCost;\n            transaction.senderFee = _arbitrationCost;\n            transaction.sender.send(extraFeeSender);\n        }\n\n        // Refund receiver if it overpaid.\n        if (transaction.receiverFee > _arbitrationCost) {\n            uint extraFeeReceiver = transaction.receiverFee - _arbitrationCost;\n            transaction.receiverFee = _arbitrationCost;\n            transaction.receiver.send(extraFeeReceiver);\n        }\n    }\n\n    /** @dev Submit a reference to evidence. EVENT.\n     *  @param _transactionID The index of the transaction.\n     *  @param _evidence A link to an evidence using its URI.\n     */\n    function submitEvidence(uint _transactionID, string _evidence) public {\n        Transaction storage transaction = transactions[_transactionID];\n        require(msg.sender == transaction.receiver || msg.sender == transaction.sender, \"The caller must be the receiver or the sender.\");\n\n        require(transaction.status >= Status.DisputeCreated, \"The dispute has not been created yet.\");\n        emit Evidence(arbitrator, transaction.disputeId, msg.sender, _evidence);\n    }\n\n    /** @dev Appeal an appealable ruling.\n     *  Transfer the funds to the arbitrator.\n     *  Note that no checks are required as the checks are done by the arbitrator.\n     *  @param _transactionID The index of the transaction.\n     */\n    function appeal(uint _transactionID) public payable {\n        Transaction storage transaction = transactions[_transactionID];\n\n        arbitrator.appeal.value(msg.value)(transaction.disputeId, arbitratorExtraData);\n    }\n\n    /** @dev Give a ruling for a dispute. Must be called by the arbitrator.\n     *  The purpose of this function is to ensure that the address calling it has the right to rule on the contract.\n     *  @param _disputeID ID of the dispute in the Arbitrator contract.\n     *  @param _ruling Ruling given by the arbitrator. Note that 0 is reserved for \"Not able/wanting to make a decision\".\n     */\n    function rule(uint _disputeID, uint _ruling) public {\n        uint transactionID = disputeIDtoTransactionID[_disputeID];\n        Transaction storage transaction = transactions[transactionID];\n        require(msg.sender == address(arbitrator), \"The caller must be the arbitrator.\");\n        require(transaction.status == Status.DisputeCreated, \"The dispute has already been resolved.\");\n\n        emit Ruling(Arbitrator(msg.sender), _disputeID, _ruling);\n\n        executeRuling(transactionID, _ruling);\n    }\n\n    /** @dev Execute a ruling of a dispute. It reimburses the fee to the winning party.\n     *  @param _transactionID The index of the transaction.\n     *  @param _ruling Ruling given by the arbitrator. 1 : Reimburse the receiver. 2 : Pay the sender.\n     */\n    function executeRuling(uint _transactionID, uint _ruling) internal {\n        Transaction storage transaction = transactions[_transactionID];\n        require(_ruling <= AMOUNT_OF_CHOICES, \"Invalid ruling.\");\n\n        // Give the arbitration fee back.\n        // Note that we use send to prevent a party from blocking the execution.\n        if (_ruling == SENDER_WINS) {\n            transaction.sender.send(transaction.senderFee + transaction.amount);\n        } else if (_ruling == RECEIVER_WINS) {\n            transaction.receiver.send(transaction.receiverFee + transaction.amount);\n        } else {\n            uint split_amount = (transaction.senderFee + transaction.receiverFee - transaction.arbitrationCost + transaction.amount) / 2;\n            transaction.receiver.send(split_amount);\n            transaction.sender.send(split_amount);\n        }\n\n        transaction.amount = 0;\n        transaction.senderFee = 0;\n        transaction.receiverFee = 0;\n        transaction.status = Status.Resolved;\n    }\n\n    // **************************** //\n    // *     Constant getters     * //\n    // **************************** //\n\n    /** @dev Getter to know the count of transactions.\n     *  @return countTransactions The count of transactions.\n     */\n    function getCountTransactions() public view returns (uint countTransactions) {\n        return transactions.length;\n    }\n\n    /** @dev Get IDs for transactions where the specified address is the receiver and/or the sender.\n     *  This function must be used by the UI and not by other smart contracts.\n     *  Note that the complexity is O(t), where t is amount of arbitrable transactions.\n     *  @param _address The specified address.\n     *  @return transactionIDs The transaction IDs.\n     */\n    function getTransactionIDsByAddress(address _address) public view returns (uint[] transactionIDs) {\n        uint count = 0;\n        for (uint i = 0; i < transactions.length; i++) {\n            if (transactions[i].sender == _address || transactions[i].receiver == _address)\n                count++;\n        }\n\n        transactionIDs = new uint[](count);\n\n        count = 0;\n\n        for (uint j = 0; j < transactions.length; j++) {\n            if (transactions[j].sender == _address || transactions[j].receiver == _address)\n                transactionIDs[count++] = j;\n        }\n    }\n}\n",
  "sourcePath": "/Users/epiqueras/Work/kleros/kleros-interaction/contracts/standard/arbitration/MultipleArbitrableTransaction.sol",
  "compiler": {
    "name": "solc",
    "version": "0.4.24+commit.e67f0147.Emscripten.clang"
  },
  "schemaVersion": "2.0.1",
  "updatedAt": "2019-02-08T18:12:57.375Z"
}