{
  "contractName": "MultipleArbitrableTransaction",
  "abi": [
    {
      "constant": true,
      "inputs": [],
      "name": "arbitratorExtraData",
      "outputs": [
        {
          "name": "",
          "type": "bytes"
        }
      ],
      "payable": false,
      "stateMutability": "view",
      "type": "function"
    },
    {
      "constant": true,
      "inputs": [
        {
          "name": "",
          "type": "uint256"
        }
      ],
      "name": "disputeIDtoTransactionID",
      "outputs": [
        {
          "name": "",
          "type": "uint256"
        }
      ],
      "payable": false,
      "stateMutability": "view",
      "type": "function"
    },
    {
      "constant": true,
      "inputs": [],
      "name": "arbitrator",
      "outputs": [
        {
          "name": "",
          "type": "address"
        }
      ],
      "payable": false,
      "stateMutability": "view",
      "type": "function"
    },
    {
      "constant": true,
      "inputs": [
        {
          "name": "",
          "type": "uint256"
        }
      ],
      "name": "transactions",
      "outputs": [
        {
          "name": "sender",
          "type": "address"
        },
        {
          "name": "receiver",
          "type": "address"
        },
        {
          "name": "amount",
          "type": "uint256"
        },
        {
          "name": "timeoutPayment",
          "type": "uint256"
        },
        {
          "name": "disputeId",
          "type": "uint256"
        },
        {
          "name": "senderFee",
          "type": "uint256"
        },
        {
          "name": "receiverFee",
          "type": "uint256"
        },
        {
          "name": "lastInteraction",
          "type": "uint256"
        },
        {
          "name": "status",
          "type": "uint8"
        }
      ],
      "payable": false,
      "stateMutability": "view",
      "type": "function"
    },
    {
      "constant": true,
      "inputs": [],
      "name": "feeTimeout",
      "outputs": [
        {
          "name": "",
          "type": "uint256"
        }
      ],
      "payable": false,
      "stateMutability": "view",
      "type": "function"
    },
    {
      "inputs": [
        {
          "name": "_arbitrator",
          "type": "address"
        },
        {
          "name": "_arbitratorExtraData",
          "type": "bytes"
        },
        {
          "name": "_feeTimeout",
          "type": "uint256"
        }
      ],
      "payable": false,
      "stateMutability": "nonpayable",
      "type": "constructor"
    },
    {
      "anonymous": false,
      "inputs": [
        {
          "indexed": true,
          "name": "_metaEvidenceID",
          "type": "uint256"
        },
        {
          "indexed": false,
          "name": "_evidence",
          "type": "string"
        }
      ],
      "name": "MetaEvidence",
      "type": "event"
    },
    {
      "anonymous": false,
      "inputs": [
        {
          "indexed": true,
          "name": "_transactionID",
          "type": "uint256"
        },
        {
          "indexed": false,
          "name": "_party",
          "type": "uint8"
        }
      ],
      "name": "HasToPayFee",
      "type": "event"
    },
    {
      "anonymous": false,
      "inputs": [
        {
          "indexed": true,
          "name": "_arbitrator",
          "type": "address"
        },
        {
          "indexed": true,
          "name": "_evidenceGroupID",
          "type": "uint256"
        },
        {
          "indexed": true,
          "name": "_party",
          "type": "address"
        },
        {
          "indexed": false,
          "name": "_evidence",
          "type": "string"
        }
      ],
      "name": "Evidence",
      "type": "event"
    },
    {
      "anonymous": false,
      "inputs": [
        {
          "indexed": true,
          "name": "_arbitrator",
          "type": "address"
        },
        {
          "indexed": true,
          "name": "_disputeID",
          "type": "uint256"
        },
        {
          "indexed": false,
          "name": "_metaEvidenceID",
          "type": "uint256"
        },
        {
          "indexed": false,
          "name": "_evidenceGroupID",
          "type": "uint256"
        }
      ],
      "name": "Dispute",
      "type": "event"
    },
    {
      "anonymous": false,
      "inputs": [
        {
          "indexed": true,
          "name": "_arbitrator",
          "type": "address"
        },
        {
          "indexed": true,
          "name": "_disputeID",
          "type": "uint256"
        },
        {
          "indexed": false,
          "name": "_ruling",
          "type": "uint256"
        }
      ],
      "name": "Ruling",
      "type": "event"
    },
    {
      "constant": false,
      "inputs": [
        {
          "name": "_timeoutPayment",
          "type": "uint256"
        },
        {
          "name": "_receiver",
          "type": "address"
        },
        {
          "name": "_metaEvidence",
          "type": "string"
        }
      ],
      "name": "createTransaction",
      "outputs": [
        {
          "name": "transactionID",
          "type": "uint256"
        }
      ],
      "payable": true,
      "stateMutability": "payable",
      "type": "function"
    },
    {
      "constant": false,
      "inputs": [
        {
          "name": "_transactionID",
          "type": "uint256"
        },
        {
          "name": "_amount",
          "type": "uint256"
        }
      ],
      "name": "pay",
      "outputs": [],
      "payable": false,
      "stateMutability": "nonpayable",
      "type": "function"
    },
    {
      "constant": false,
      "inputs": [
        {
          "name": "_transactionID",
          "type": "uint256"
        },
        {
          "name": "_amountReimbursed",
          "type": "uint256"
        }
      ],
      "name": "reimburse",
      "outputs": [],
      "payable": false,
      "stateMutability": "nonpayable",
      "type": "function"
    },
    {
      "constant": false,
      "inputs": [
        {
          "name": "_transactionID",
          "type": "uint256"
        }
      ],
      "name": "executeTransaction",
      "outputs": [],
      "payable": false,
      "stateMutability": "nonpayable",
      "type": "function"
    },
    {
      "constant": false,
      "inputs": [
        {
          "name": "_transactionID",
          "type": "uint256"
        }
      ],
      "name": "timeOutBySender",
      "outputs": [],
      "payable": false,
      "stateMutability": "nonpayable",
      "type": "function"
    },
    {
      "constant": false,
      "inputs": [
        {
          "name": "_transactionID",
          "type": "uint256"
        }
      ],
      "name": "timeOutByReceiver",
      "outputs": [],
      "payable": false,
      "stateMutability": "nonpayable",
      "type": "function"
    },
    {
      "constant": false,
      "inputs": [
        {
          "name": "_transactionID",
          "type": "uint256"
        }
      ],
      "name": "payArbitrationFeeBySender",
      "outputs": [],
      "payable": true,
      "stateMutability": "payable",
      "type": "function"
    },
    {
      "constant": false,
      "inputs": [
        {
          "name": "_transactionID",
          "type": "uint256"
        }
      ],
      "name": "payArbitrationFeeByReceiver",
      "outputs": [],
      "payable": true,
      "stateMutability": "payable",
      "type": "function"
    },
    {
      "constant": false,
      "inputs": [
        {
          "name": "_transactionID",
          "type": "uint256"
        },
        {
          "name": "_evidence",
          "type": "string"
        }
      ],
      "name": "submitEvidence",
      "outputs": [],
      "payable": false,
      "stateMutability": "nonpayable",
      "type": "function"
    },
    {
      "constant": false,
      "inputs": [
        {
          "name": "_transactionID",
          "type": "uint256"
        }
      ],
      "name": "appeal",
      "outputs": [],
      "payable": true,
      "stateMutability": "payable",
      "type": "function"
    },
    {
      "constant": false,
      "inputs": [
        {
          "name": "_disputeID",
          "type": "uint256"
        },
        {
          "name": "_ruling",
          "type": "uint256"
        }
      ],
      "name": "rule",
      "outputs": [],
      "payable": false,
      "stateMutability": "nonpayable",
      "type": "function"
    },
    {
      "constant": true,
      "inputs": [],
      "name": "getCountTransactions",
      "outputs": [
        {
          "name": "countTransactions",
          "type": "uint256"
        }
      ],
      "payable": false,
      "stateMutability": "view",
      "type": "function"
    },
    {
      "constant": true,
      "inputs": [
        {
          "name": "_address",
          "type": "address"
        }
      ],
      "name": "getTransactionIDsByAddress",
      "outputs": [
        {
          "name": "transactionIDs",
          "type": "uint256[]"
        }
      ],
      "payable": false,
      "stateMutability": "view",
      "type": "function"
    }
  ],
  "bytecode": "0x60806040523480156200001157600080fd5b5060405162001f2e38038062001f2e83398101604090815281516020808401519284015160028054600160a060020a031916600160a060020a03851617905592909301805191939092916200006d91600191908501906200007a565b50600355506200011f9050565b828054600181600116156101000203166002900490600052602060002090601f016020900481019282601f10620000bd57805160ff1916838001178555620000ed565b82800160010185558215620000ed579182015b82811115620000ed578251825591602001919060010190620000d0565b50620000fb929150620000ff565b5090565b6200011c91905b80821115620000fb576000815560010162000106565b90565b611dff806200012f6000396000f3006080604052600436106100e25763ffffffff60e060020a6000350416630c7ac7b681146100e75780632fbe3b0314610171578063311a6c561461019b5780633de0c7ef146101b85780636cc6cde1146101d05780636e72b452146102015780637b44cdb51461020c5780637e69b7b0146102175780639ace38c214610222578063a527aa6a146102ba578063a6a7f0eb146102cf578063b329036b1461032d578063da8c3eac14610342578063ee22610b1461039e578063ef48eee6146103b6578063f42cadc1146103d1578063f94cdf96146103e9578063fe43a9921461045a575b600080fd5b3480156100f357600080fd5b506100fc610475565b6040805160208082528351818301528351919283929083019185019080838360005b8381101561013657818101518382015260200161011e565b50505050905090810190601f1680156101635780820380516001836020036101000a031916815260200191505b509250505060405180910390f35b34801561017d57600080fd5b50610189600435610502565b60408051918252519081900360200190f35b3480156101a757600080fd5b506101b6600435602435610514565b005b3480156101c457600080fd5b506101b6600435610679565b3480156101dc57600080fd5b506101e5610769565b60408051600160a060020a039092168252519081900360200190f35b6101b6600435610778565b6101b6600435610a45565b6101b6600435610cea565b34801561022e57600080fd5b5061023a600435610dfc565b604051808a600160a060020a0316600160a060020a0316815260200189600160a060020a0316600160a060020a0316815260200188815260200187815260200186815260200185815260200184815260200183815260200182600481111561029e57fe5b60ff168152602001995050505050505050505060405180910390f35b3480156102c657600080fd5b50610189610e65565b3480156102db57600080fd5b5060408051602060046024803582810135601f81018590048502860185019096528585526101b6958335953695604494919390910191908190840183828082843750949750610e6b9650505050505050565b34801561033957600080fd5b5061018961104e565b604080516020600460443581810135601f81018490048402850184019095528484526101899482359460248035600160a060020a0316953695946064949201919081908401838280828437509497506110549650505050505050565b3480156103aa57600080fd5b506101b6600435611221565b3480156103c257600080fd5b506101b6600435602435611368565b3480156103dd57600080fd5b506101b6600435611511565b3480156103f557600080fd5b5061040a600160a060020a03600435166115ff565b60408051602080825283518183015283519192839290830191858101910280838360005b8381101561044657818101518382015260200161042e565b505050509050019250505060405180910390f35b34801561046657600080fd5b506101b660043560243561177f565b60018054604080516020600284861615610100026000190190941693909304601f810184900484028201840190925281815292918301828280156104fa5780601f106104cf576101008083540402835291602001916104fa565b820191906000526020600020905b8154815290600101906020018083116104dd57829003601f168201915b505050505081565b60046020526000908152604090205481565b600082815260046020526040812054815490919081908390811061053457fe5b600091825260209091206002546009909202019150600160a060020a031633146105b6576040805160e560020a62461bcd02815260206004820152602260248201527f5468652063616c6c6572206d757374206265207468652061726269747261746f604482015260f160020a61391702606482015290519081900360840190fd5b6003600882015460ff1660048111156105cb57fe5b14610632576040805160e560020a62461bcd02815260206004820152602660248201527f54686520646973707574652068617320616c7265616479206265656e20726573604482015260d160020a6537b63b32b21702606482015290519081900360840190fd5b604080518481529051859133917f394027a5fa6e098a1191094d1719d6929b9abc535fcc0c8f448d6a4e756222769181900360200190a36106738284611929565b50505050565b6000808281548110151561068957fe5b6000918252602090912060099091020190506001600882015460ff1660048111156106b057fe5b1461070c576040805160e560020a62461bcd02815260206004820152602d6024820152600080516020611d748339815191526044820152609960020a6c37103a34329039b2b73232b91702606482015290519081900360840190fd5b60035460078201544203101561075a576040805160e560020a62461bcd0281526020600482018190526024820152600080516020611cf4833981519152604482015290519081900360640190fd5b610765826002611929565b5050565b600254600160a060020a031681565b60008060008381548110151561078a57fe5b60009182526020918290206002805460405160e060020a63f7434ea9028152600481019586526001805460001981831615610100020116939093046024820181905260099095029093019650600160a060020a03169363f7434ea993919290918291604401908490801561083f5780601f106108145761010080835404028352916020019161083f565b820191906000526020600020905b81548152906001019060200180831161082257829003601f168201915b505092505050602060405180830381600087803b15801561085f57600080fd5b505af1158015610873573d6000803e3d6000fd5b505050506040513d602081101561088957600080fd5b505190506003600883015460ff1660048111156108a257fe5b10610913576040805160e560020a62461bcd02815260206004820152604e6024820152600080516020611d548339815191526044820152600080516020611d948339815191526064820152609160020a6d3132b2b71032bc32b1baba32b21702608482015290519081900360a40190fd5b6001820154600160a060020a03163314610965576040805160e560020a62461bcd0281526020600482018190526024820152600080516020611cd4833981519152604482015290519081900360640190fd5b6006820180543401908190558111156109e2576040805160e560020a62461bcd02815260206004820152602e60248201527f54686520726563656976657220666565206d75737420636f76657220617262696044820152609160020a6d3a3930ba34b7b71031b7b9ba399702606482015290519081900360840190fd5b4260078301556005820154811115610a365760088201805460ff191660011790556040518390600080516020611db48339815191529060009080825b60ff16815260200191505060405180910390a2610a40565b610a408382611aac565b505050565b600080600083815481101515610a5757fe5b60009182526020918290206002805460405160e060020a63f7434ea9028152600481019586526001805460001981831615610100020116939093046024820181905260099095029093019650600160a060020a03169363f7434ea9939192909182916044019084908015610b0c5780601f10610ae157610100808354040283529160200191610b0c565b820191906000526020600020905b815481529060010190602001808311610aef57829003601f168201915b505092505050602060405180830381600087803b158015610b2c57600080fd5b505af1158015610b40573d6000803e3d6000fd5b505050506040513d6020811015610b5657600080fd5b505190506003600883015460ff166004811115610b6f57fe5b10610be0576040805160e560020a62461bcd02815260206004820152604e6024820152600080516020611d548339815191526044820152600080516020611d948339815191526064820152609160020a6d3132b2b71032bc32b1baba32b21702608482015290519081900360a40190fd5b8154600160a060020a03163314610c2f576040805160e560020a62461bcd02815260206004820152601e6024820152600080516020611d34833981519152604482015290519081900360640190fd5b600582018054340190819055811115610caa576040805160e560020a62461bcd02815260206004820152602c60248201527f5468652073656e64657220666565206d75737420636f76657220617262697472604482015260a160020a6b30ba34b7b71031b7b9ba399702606482015290519081900360840190fd5b4260078301556006820154811115610a365760088201805460ff191660021790556040518390600080516020611db4833981519152906001908082610a1e565b60008082815481101515610cfa57fe5b600091825260209091206002805460046009909402909201838101546040805160e360020a63093225f10281529586018281526024870191825260018054600019818316156101000201169590950460448801819052939750600160a060020a03909516956349912f8895349593949092916064019084908015610dbf5780601f10610d9457610100808354040283529160200191610dbf565b820191906000526020600020905b815481529060010190602001808311610da257829003601f168201915b505093505050506000604051808303818588803b158015610ddf57600080fd5b505af1158015610df3573d6000803e3d6000fd5b50505050505050565b6000805482908110610e0a57fe5b6000918252602090912060099091020180546001820154600283015460038401546004850154600586015460068701546007880154600890980154600160a060020a0397881699509690951696939592949193909260ff1689565b60005490565b60008083815481101515610e7b57fe5b600091825260209091206009909102018054909150600160a060020a0316331480610eb257506001810154600160a060020a031633145b1515610f22576040805160e560020a62461bcd02815260206004820152602e60248201527f5468652063616c6c6572206d757374206265207468652073656e646572206f726044820152609160020a6d103a3432903932b1b2b4bb32b91702606482015290519081900360840190fd5b6003600882015460ff166004811115610f3757fe5b1015610f9e576040805160e560020a62461bcd02815260206004820152602560248201527f546865206469737075746520686173206e6f74206265656e2063726561746564604482015260d960020a64103cb2ba1702606482015290519081900360840190fd5b600254604080516020808252855181830152855133948894600160a060020a03909116937fdccf2f8b2cc26eafcd61905cba744cff4b81d14740725f6376390dc6298a6a3c938993919283929083019185019080838360005b8381101561100f578181015183820152602001610ff7565b50505050905090810190601f16801561103c5780820380516001836020036101000a031916815260200191505b509250505060405180910390a4505050565b60035481565b6000806101206040519081016040528033600160a060020a0316815260200185600160a060020a03168152602001348152602001868152602001600081526020016000815260200160008152602001428152602001600060048111156110b657fe5b905281546001808201808555600094855260209485902084516009909402018054600160a060020a0319908116600160a060020a039586161782559585015181840180549097169416939093179094556040830151600283015560608301516003830155608083015160048084019190915560a0840151600584015560c0840151600684015560e084015160078401556101008401516008840180549193909260ff1990921691849081111561116857fe5b02179055505050506001600080549050037f61606860eb6c87306811e2695215385101daab53bd6ab4e9f9049aead9363c7d836040518080602001828103825283818151815260200191508051906020019080838360005b838110156111d85781810151838201526020016111c0565b50505050905090810190601f1680156112055780820380516001836020036101000a031916815260200191505b509250505060405180910390a250600054600019019392505050565b6000808281548110151561123157fe5b90600052602060002090600902019050806003015481600701544203101515156112a5576040805160e560020a62461bcd02815260206004820152601f60248201527f5468652074696d656f757420686173206e6f7420706173736564207965742e00604482015290519081900360640190fd5b6000600882015460ff1660048111156112ba57fe5b1461130f576040805160e560020a62461bcd0281526020600482015260266024820152600080516020611d14833981519152604482015260d160020a65383aba32b21702606482015290519081900360840190fd5b60018101546002820154604051600160a060020a039092169181156108fc0291906000818181858888f1935050505015801561134f573d6000803e3d6000fd5b5060006002820155600801805460ff1916600417905550565b6000808381548110151561137857fe5b600091825260209091206009909102018054909150600160a060020a031633146113da576040805160e560020a62461bcd02815260206004820152601e6024820152600080516020611d34833981519152604482015290519081900360640190fd5b6000600882015460ff1660048111156113ef57fe5b14611444576040805160e560020a62461bcd0281526020600482015260266024820152600080516020611d14833981519152604482015260d160020a65383aba32b21702606482015290519081900360840190fd5b60028101548211156114c6576040805160e560020a62461bcd02815260206004820152602481018290527f54686520616d6f756e7420706169642068617320746f206265206c657373207460448201527f68616e206f7220657175616c20746f20746865207472616e73616374696f6e2e606482015290519081900360840190fd5b6001810154604051600160a060020a039091169083156108fc029084906000818181858888f19350505050158015611502573d6000803e3d6000fd5b50600201805491909103905550565b6000808281548110151561152157fe5b6000918252602090912060099091020190506002600882015460ff16600481111561154857fe5b146115a6576040805160e560020a62461bcd02815260206004820152602f6024820152600080516020611d748339815191526044820152608960020a6e37103a3432903932b1b2b4bb32b91702606482015290519081900360840190fd5b6003546007820154420310156115f4576040805160e560020a62461bcd0281526020600482018190526024820152600080516020611cf4833981519152604482015290519081900360640190fd5b610765826001611929565b6060600080805b6000548210156116995784600160a060020a031660008381548110151561162957fe5b6000918252602090912060099091020154600160a060020a03161480611682575084600160a060020a031660008381548110151561166357fe5b6000918252602090912060016009909202010154600160a060020a0316145b1561168e576001909201915b600190910190611606565b826040519080825280602002602001820160405280156116c3578160200160208202803883390190505b50935060009250600090505b6000548110156117775784600160a060020a03166000828154811015156116f257fe5b6000918252602090912060099091020154600160a060020a0316148061174b575084600160a060020a031660008281548110151561172c57fe5b6000918252602090912060016009909202010154600160a060020a0316145b1561176f57835160018401938291869190811061176457fe5b602090810290910101525b6001016116cf565b505050919050565b6000808381548110151561178f57fe5b60009182526020909120600160099092020190810154909150600160a060020a031633146117f5576040805160e560020a62461bcd0281526020600482018190526024820152600080516020611cd4833981519152604482015290519081900360640190fd5b6000600882015460ff16600481111561180a57fe5b1461185f576040805160e560020a62461bcd0281526020600482015260266024820152600080516020611d14833981519152604482015260d160020a65383aba32b21702606482015290519081900360840190fd5b60028101548211156118f0576040805160e560020a62461bcd02815260206004820152604360248201527f54686520616d6f756e74207265696d6275727365642068617320746f2062652060448201527f6c657373206f7220657175616c207468616e20746865207472616e7361637469606482015260e960020a6237b71702608482015290519081900360a40190fd5b8054604051600160a060020a039091169083156108fc029084906000818181858888f19350505050158015611502573d6000803e3d6000fd5b60008060008481548110151561193b57fe5b600091825260209091206009909102019150600283111561199b576040805160e560020a62461bcd02815260206004820152600f6024820152608960020a6e24b73b30b634b210393ab634b7339702604482015290519081900360640190fd5b60018314156119dc57815460028301546005840154604051600160a060020a0390931692910180156108fc02916000818181858888f1935050505050611a84565b6002831415611a2057600182015460028301546006840154604051600160a060020a0390931692910180156108fc02916000818181858888f1935050505050611a84565b6002828101546005840154018354604051929091049250600160a060020a03169082156108fc029083906000818181858888f15050506001840154604051600160a060020a03909116925083156108fc02915083906000818181858888f150505050505b50600060028201819055600582018190556006820155600801805460ff191660041790555050565b60008060008085815481101515611abf57fe5b600091825260209091206008600990920201908101805460ff19166003179055600280546040805160e060020a63c13517e10281526004810184815260248201928352600180546101008183161502600019011686900460448401819052969950600160a060020a039094169563c13517e1958b9590949093909160649091019084908015611b8f5780601f10611b6457610100808354040283529160200191611b8f565b820191906000526020600020905b815481529060010190602001808311611b7257829003601f168201915b505093505050506020604051808303818588803b158015611baf57600080fd5b505af1158015611bc3573d6000803e3d6000fd5b50505050506040513d6020811015611bda57600080fd5b505160048085018281556000928352602091825260409283902088905554600254835189815292830189905283519193600160a060020a03909116927f74baab670a4015ab2f1b467c5252a96141a2573f2908e58a92081e80d3cfde3d929081900390910190a38383600501541115611c8457600583018054908590558354604051918690039350600160a060020a03169083156108fc029084906000818181858888f150505050505b8383600601541115611ccc57506006820180549084905560018301546040519185900391600160a060020a039091169082156108fc029083906000818181858888f150505050505b505050505056005468652063616c6c6572206d757374206265207468652072656365697665722e54696d656f75742074696d6520686173206e6f7420706173736564207965742e546865207472616e73616374696f6e2073686f756c646e2774206265206469735468652063616c6c6572206d757374206265207468652073656e6465722e0000446973707574652068617320616c7265616479206265656e2063726561746564546865207472616e73616374696f6e206973206e6f742077616974696e67206f206f72206265636175736520746865207472616e73616374696f6e2068617320c74b9f7dedf2887cd3c113b6d8da9cea19e55c1116e25f1f0e1b72d7543179b5a165627a7a723058206831473752ba4b661016ded4b991eda89144183fcd19559736361afba3900dc90029",
  "source": "/**\n *  @authors: [@eburgos, @n1c01a5]\n *  @reviewers: [@unknownunknown1*, @clesaege*, @ferittuncer*]\n *  @auditors: []\n *  @bounties: []\n *  @deployments: []\n */\n\npragma solidity ^0.4.24;\n\nimport \"./Arbitrator.sol\";\nimport \"./IArbitrable.sol\";\n\ncontract MultipleArbitrableTransaction is IArbitrable {\n\n    // **************************** //\n    // *    Contract variables    * //\n    // **************************** //\n\n    uint8 constant AMOUNT_OF_CHOICES = 2;\n    uint8 constant SENDER_WINS = 1;\n    uint8 constant RECEIVER_WINS = 2;\n\n    enum Party {Sender, Receiver}\n    enum Status {NoDispute, WaitingSender, WaitingReceiver, DisputeCreated, Resolved}\n\n    struct Transaction {\n        address sender;\n        address receiver;\n        uint256 amount;\n        uint256 timeoutPayment; // Time in seconds after which the transaction can be automatically executed if not disputed.\n        uint disputeId; // If dispute exists, the ID of the dispute.\n        uint senderFee; // Total fees paid by the sender.\n        uint receiverFee; // Total fees paid by the receiver.\n        uint lastInteraction; // Last interaction for the dispute procedure.\n        Status status;\n    }\n\n    Transaction[] public transactions;\n    bytes public arbitratorExtraData; // Extra data to set up the arbitration.\n    Arbitrator public arbitrator; // Address of the arbitrator contract.\n    uint public feeTimeout; // Time in seconds a party can take to pay arbitration fees before being considered unresponding and lose the dispute.\n\n\n    mapping (uint => uint) public disputeIDtoTransactionID; // One-to-one relationship between the dispute and the transaction.\n\n    // **************************** //\n    // *          Events          * //\n    // **************************** //\n\n    /** @dev To be emitted when meta-evidence is submitted.\n     *  @param _metaEvidenceID Unique identifier of meta-evidence. Should be the `transactionID`.\n     *  @param _evidence A link to the meta-evidence JSON that follows the ERC 1497 Evidence standard (https://github.com/ethereum/EIPs/issues/1497).\n     */\n    event MetaEvidence(uint indexed _metaEvidenceID, string _evidence);\n\n    /** @dev Indicate that a party has to pay a fee or would otherwise be considered as losing.\n     *  @param _transactionID The index of the transaction.\n     *  @param _party The party who has to pay.\n     */\n    event HasToPayFee(uint indexed _transactionID, Party _party);\n\n    /** @dev To be raised when evidence is submitted. Should point to the resource (evidences are not to be stored on chain due to gas considerations).\n     *  @param _arbitrator The arbitrator of the contract.\n     *  @param _evidenceGroupID Unique identifier of the evidence group the evidence belongs to.\n     *  @param _party The address of the party submitting the evidence. Note that 0 is kept for evidences not submitted by any party.\n     *  @param _evidence A link to an evidence JSON that follows the ERC 1497 Evidence standard (https://github.com/ethereum/EIPs/issues/1497).\n     */\n    event Evidence(Arbitrator indexed _arbitrator, uint indexed _evidenceGroupID, address indexed _party, string _evidence);\n\n    /** @dev To be emitted when a dispute is created to link the correct meta-evidence to the disputeID.\n     *  @param _arbitrator The arbitrator of the contract.\n     *  @param _disputeID ID of the dispute in the Arbitrator contract.\n     *  @param _metaEvidenceID Unique identifier of meta-evidence. Should be the transactionID.\n     *  @param _evidenceGroupID Unique identifier of the evidence group that is linked to this dispute.\n     */\n    event Dispute(Arbitrator indexed _arbitrator, uint indexed _disputeID, uint _metaEvidenceID, uint _evidenceGroupID);\n\n    /** @dev To be raised when a ruling is given.\n     *  @param _arbitrator The arbitrator giving the ruling.\n     *  @param _disputeID ID of the dispute in the Arbitrator contract.\n     *  @param _ruling The ruling which was given.\n     */\n    event Ruling(Arbitrator indexed _arbitrator, uint indexed _disputeID, uint _ruling);\n\n    // **************************** //\n    // *    Arbitrable functions  * //\n    // *    Modifying the state   * //\n    // **************************** //\n\n    /** @dev Constructor.\n     *  @param _arbitrator The arbitrator of the contract.\n     *  @param _arbitratorExtraData Extra data for the arbitrator.\n     *  @param _feeTimeout Arbitration fee timeout for the parties.\n     */\n    constructor (\n        Arbitrator _arbitrator,\n        bytes _arbitratorExtraData,\n        uint _feeTimeout\n    ) public {\n        arbitrator = _arbitrator;\n        arbitratorExtraData = _arbitratorExtraData;\n        feeTimeout = _feeTimeout;\n    }\n\n    /** @dev Create a transaction.\n     *  @param _timeoutPayment Time after which a party can automatically execute the arbitrable transaction.\n     *  @param _receiver The recipient of the transaction.\n     *  @param _metaEvidence Link to the meta-evidence.\n     *  @return transactionID The index of the transaction.\n     */\n    function createTransaction(\n        uint _timeoutPayment,\n        address _receiver,\n        string _metaEvidence\n    ) public payable returns (uint transactionID) {\n        transactions.push(Transaction({\n            sender: msg.sender,\n            receiver: _receiver,\n            amount: msg.value,\n            timeoutPayment: _timeoutPayment,\n            disputeId: 0,\n            senderFee: 0,\n            receiverFee: 0,\n            lastInteraction: now,\n            status: Status.NoDispute\n        }));\n        emit MetaEvidence(transactions.length - 1, _metaEvidence);\n\n        return transactions.length - 1;\n    }\n\n    /** @dev Pay receiver. To be called if the good or service is provided.\n     *  @param _transactionID The index of the transaction.\n     *  @param _amount Amount to pay in wei.\n     */\n    function pay(uint _transactionID, uint _amount) public {\n        Transaction storage transaction = transactions[_transactionID];\n        require(transaction.sender == msg.sender, \"The caller must be the sender.\");\n        require(transaction.status == Status.NoDispute, \"The transaction shouldn't be disputed.\");\n        require(_amount <= transaction.amount, \"The amount paid has to be less than or equal to the transaction.\");\n\n        transaction.receiver.transfer(_amount);\n        transaction.amount -= _amount;\n    }\n\n    /** @dev Reimburse sender. To be called if the good or service can't be fully provided.\n     *  @param _transactionID The index of the transaction.\n     *  @param _amountReimbursed Amount to reimburse in wei.\n     */\n    function reimburse(uint _transactionID, uint _amountReimbursed) public {\n        Transaction storage transaction = transactions[_transactionID];\n        require(transaction.receiver == msg.sender, \"The caller must be the receiver.\");\n        require(transaction.status == Status.NoDispute, \"The transaction shouldn't be disputed.\");\n        require(_amountReimbursed <= transaction.amount, \"The amount reimbursed has to be less or equal than the transaction.\");\n\n        transaction.sender.transfer(_amountReimbursed);\n        transaction.amount -= _amountReimbursed;\n    }\n\n    /** @dev Transfer the transaction's amount to the receiver if the timeout has passed.\n     *  @param _transactionID The index of the transaction.\n     */\n    function executeTransaction(uint _transactionID) public {\n        Transaction storage transaction = transactions[_transactionID];\n        require(now - transaction.lastInteraction >= transaction.timeoutPayment, \"The timeout has not passed yet.\");\n        require(transaction.status == Status.NoDispute, \"The transaction shouldn't be disputed.\");\n\n        transaction.receiver.transfer(transaction.amount);\n        transaction.amount = 0;\n\n        transaction.status = Status.Resolved;\n    }\n\n    /** @dev Reimburse sender if receiver fails to pay the fee.\n     *  @param _transactionID The index of the transaction.\n     */\n    function timeOutBySender(uint _transactionID) public {\n        Transaction storage transaction = transactions[_transactionID];\n\n        require(transaction.status == Status.WaitingReceiver, \"The transaction is not waiting on the receiver.\");\n        require(now - transaction.lastInteraction >= feeTimeout, \"Timeout time has not passed yet.\");\n\n        executeRuling(_transactionID, SENDER_WINS);\n    }\n\n    /** @dev Pay receiver if sender fails to pay the fee.\n     *  @param _transactionID The index of the transaction.\n     */\n    function timeOutByReceiver(uint _transactionID) public {\n        Transaction storage transaction = transactions[_transactionID];\n\n        require(transaction.status == Status.WaitingSender, \"The transaction is not waiting on the sender.\");\n        require(now - transaction.lastInteraction >= feeTimeout, \"Timeout time has not passed yet.\");\n\n        executeRuling(_transactionID, RECEIVER_WINS);\n    }\n\n    /** @dev Pay the arbitration fee to raise a dispute. To be called by the sender. UNTRUSTED.\n     *  Note that the arbitrator can have createDispute throw, which will make this function throw and therefore lead to a party being timed-out.\n     *  This is not a vulnerability as the arbitrator can rule in favor of one party anyway.\n     *  @param _transactionID The index of the transaction.\n     */\n    function payArbitrationFeeBySender(uint _transactionID) public payable {\n        Transaction storage transaction = transactions[_transactionID];\n        uint arbitrationCost = arbitrator.arbitrationCost(arbitratorExtraData);\n\n        require(transaction.status < Status.DisputeCreated, \"Dispute has already been created or because the transaction has been executed.\");\n        require(msg.sender == transaction.sender, \"The caller must be the sender.\");\n\n        transaction.senderFee += msg.value;\n        // Require that the total pay at least the arbitration cost.\n        require(transaction.senderFee >= arbitrationCost, \"The sender fee must cover arbitration costs.\");\n\n        transaction.lastInteraction = now;\n\n        // The receiver still has to pay. This can also happen if he has paid, but arbitrationCost has increased.\n        if (transaction.receiverFee < arbitrationCost) {\n            transaction.status = Status.WaitingReceiver;\n            emit HasToPayFee(_transactionID, Party.Receiver);\n        } else { // The receiver has also paid the fee. We create the dispute.\n            raiseDispute(_transactionID, arbitrationCost);\n        }\n    }\n\n    /** @dev Pay the arbitration fee to raise a dispute. To be called by the receiver. UNTRUSTED.\n     *  Note that this function mirrors payArbitrationFeeBySender.\n     *  @param _transactionID The index of the transaction.\n     */\n    function payArbitrationFeeByReceiver(uint _transactionID) public payable {\n        Transaction storage transaction = transactions[_transactionID];\n        uint arbitrationCost = arbitrator.arbitrationCost(arbitratorExtraData);\n\n        require(transaction.status < Status.DisputeCreated, \"Dispute has already been created or because the transaction has been executed.\");\n        require(msg.sender == transaction.receiver, \"The caller must be the receiver.\");\n\n        transaction.receiverFee += msg.value;\n        // Require that the total paid to be at least the arbitration cost.\n        require(transaction.receiverFee >= arbitrationCost, \"The receiver fee must cover arbitration costs.\");\n\n        transaction.lastInteraction = now;\n        // The sender still has to pay. This can also happen if he has paid, but arbitrationCost has increased.\n        if (transaction.senderFee < arbitrationCost) {\n            transaction.status = Status.WaitingSender;\n            emit HasToPayFee(_transactionID, Party.Sender);\n        } else { // The sender has also paid the fee. We create the dispute.\n            raiseDispute(_transactionID, arbitrationCost);\n        }\n    }\n\n    /** @dev Create a dispute. UNTRUSTED.\n     *  @param _transactionID The index of the transaction.\n     *  @param _arbitrationCost Amount to pay the arbitrator.\n     */\n    function raiseDispute(uint _transactionID, uint _arbitrationCost) internal {\n        Transaction storage transaction = transactions[_transactionID];\n        transaction.status = Status.DisputeCreated;\n        transaction.disputeId = arbitrator.createDispute.value(_arbitrationCost)(AMOUNT_OF_CHOICES, arbitratorExtraData);\n        disputeIDtoTransactionID[transaction.disputeId] = _transactionID;\n        emit Dispute(arbitrator, transaction.disputeId, _transactionID, _transactionID);\n\n        // Refund sender if it overpaid.\n        if (transaction.senderFee > _arbitrationCost) {\n            uint extraFeeSender = transaction.senderFee - _arbitrationCost;\n            transaction.senderFee = _arbitrationCost;\n            transaction.sender.send(extraFeeSender);\n        }\n\n        // Refund receiver if it overpaid.\n        if (transaction.receiverFee > _arbitrationCost) {\n            uint extraFeeReceiver = transaction.receiverFee - _arbitrationCost;\n            transaction.receiverFee = _arbitrationCost;\n            transaction.receiver.send(extraFeeReceiver);\n        }\n    }\n\n    /** @dev Submit a reference to evidence. EVENT.\n     *  @param _transactionID The index of the transaction.\n     *  @param _evidence A link to an evidence using its URI.\n     */\n    function submitEvidence(uint _transactionID, string _evidence) public {\n        Transaction storage transaction = transactions[_transactionID];\n        require(msg.sender == transaction.sender || msg.sender == transaction.receiver, \"The caller must be the sender or the receiver.\");\n\n        require(transaction.status >= Status.DisputeCreated, \"The dispute has not been created yet.\");\n        emit Evidence(arbitrator, _transactionID, msg.sender, _evidence);\n    }\n\n    /** @dev Appeal an appealable ruling.\n     *  Transfer the funds to the arbitrator.\n     *  Note that no checks are required as the checks are done by the arbitrator.\n     *  @param _transactionID The index of the transaction.\n     */\n    function appeal(uint _transactionID) public payable {\n        Transaction storage transaction = transactions[_transactionID];\n\n        arbitrator.appeal.value(msg.value)(transaction.disputeId, arbitratorExtraData);\n    }\n\n    /** @dev Give a ruling for a dispute. Must be called by the arbitrator.\n     *  The purpose of this function is to ensure that the address calling it has the right to rule on the contract.\n     *  @param _disputeID ID of the dispute in the Arbitrator contract.\n     *  @param _ruling Ruling given by the arbitrator. Note that 0 is reserved for \"Not able/wanting to make a decision\".\n     */\n    function rule(uint _disputeID, uint _ruling) public {\n        uint transactionID = disputeIDtoTransactionID[_disputeID];\n        Transaction storage transaction = transactions[transactionID];\n        require(msg.sender == address(arbitrator), \"The caller must be the arbitrator.\");\n        require(transaction.status == Status.DisputeCreated, \"The dispute has already been resolved.\");\n\n        emit Ruling(Arbitrator(msg.sender), _disputeID, _ruling);\n\n        executeRuling(transactionID, _ruling);\n    }\n\n    /** @dev Execute a ruling of a dispute. It reimburses the fee to the winning party.\n     *  @param _transactionID The index of the transaction.\n     *  @param _ruling Ruling given by the arbitrator. 1 : Reimburse the receiver. 2 : Pay the sender.\n     */\n    function executeRuling(uint _transactionID, uint _ruling) internal {\n        Transaction storage transaction = transactions[_transactionID];\n        require(_ruling <= AMOUNT_OF_CHOICES, \"Invalid ruling.\");\n\n        // Give the arbitration fee back.\n        // Note that we use send to prevent a party from blocking the execution.\n        if (_ruling == SENDER_WINS) {\n            transaction.sender.send(transaction.senderFee + transaction.amount);\n        } else if (_ruling == RECEIVER_WINS) {\n            transaction.receiver.send(transaction.receiverFee + transaction.amount);\n        } else {\n            uint split_amount = (transaction.senderFee + transaction.amount) / 2;\n            transaction.sender.send(split_amount);\n            transaction.receiver.send(split_amount);\n        }\n\n        transaction.amount = 0;\n        transaction.senderFee = 0;\n        transaction.receiverFee = 0;\n        transaction.status = Status.Resolved;\n    }\n\n    // **************************** //\n    // *     Constant getters     * //\n    // **************************** //\n\n    /** @dev Getter to know the count of transactions.\n     *  @return countTransactions The count of transactions.\n     */\n    function getCountTransactions() public view returns (uint countTransactions) {\n        return transactions.length;\n    }\n\n    /** @dev Get IDs for transactions where the specified address is the receiver and/or the sender.\n     *  This function must be used by the UI and not by other smart contracts.\n     *  Note that the complexity is O(t), where t is amount of arbitrable transactions.\n     *  @param _address The specified address.\n     *  @return transactionIDs The transaction IDs.\n     */\n    function getTransactionIDsByAddress(address _address) public view returns (uint[] transactionIDs) {\n        uint count = 0;\n        for (uint i = 0; i < transactions.length; i++) {\n            if (transactions[i].sender == _address || transactions[i].receiver == _address)\n                count++;\n        }\n\n        transactionIDs = new uint[](count);\n\n        count = 0;\n\n        for (uint j = 0; j < transactions.length; j++) {\n            if (transactions[j].sender == _address || transactions[j].receiver == _address)\n                transactionIDs[count++] = j;\n        }\n    }\n}\n",
  "sourcePath": "/private/tmp/kleros-interaction/contracts/standard/arbitration/MultipleArbitrableTransaction.sol",
  "compiler": {
    "name": "solc",
    "version": "0.4.24+commit.e67f0147.Emscripten.clang"
  },
  "schemaVersion": "2.0.1",
  "updatedAt": "2019-03-14T20:53:06.759Z"
}